:020000041000EA
:10000000002008205D0100101301001015010010F0
:100010001101001011010010110100101101001058
:100020001101001011010010110100101701001042
:100030001101001011010010190100101B01001026
:100040001D0100101D0100101D0100101D010010F8
:100050001D0100101D0100101D0100101D010010E8
:100060001D0100101D0100101D0100101D010010D8
:100070001D0100101D0100101D0100101D010010C8
:100080001D0100101D0100101D0100101D010010B8
:100090001D0100101D0100101D0100101D010010A8
:1000A0001D0100101D0100101D0100101D01001098
:1000B0001D0100101D0100101D0100101D01001088
:1000C0001D0100101D0100101D0100101D01001078
:1000D0001D0100101D0100101D0100101D01001068
:1000E0001D0100101D0100101D0100101D01001058
:1000F0001D0100101D0100101D0100101D01001048
:100100001D0100101D0100101D0100101D01001037
:1001100000BE00BE00BE00BE00BE00BEEFF3058004
:10012000103800BEF2EB887150FE001078FE00100F
:10013000A801001090A31AE7D3DEFFFF42012110AF
:10014000FF010000A0150100793512AB4FF000004F
:100150002049086006C881F3088810474FF05040D6
:10016000006810B14FF00000F2E70FA40ECC002998
:1001700002D000F015F8F9E71749184A002000E00E
:1001800001C19142FCD1002080F30A8814498847BC
:10019000144988471449884700BEFDE701C901C2D8
:1001A0009A42FBD3704700BF78FE00101001002078
:1001B00070190020D8160110000008200000082047
:1001C000D8160110001008200010082000000000C0
:1001D0007047000008ED00E0701900206839002029
:1001E0000D4A0010B9020010D1490010F8B500BF47
:1001F000064B0749C91A891048BF0131491003D07D
:10020000044B0BB101481847704700BF701900201C
:10021000701900200000000008B5054B1BB105490E
:100220000548AFF30080BDE80840FFF7E1BF00BF1D
:1002300000000000EC3200206CE5001008B502F070
:100240006FF929B14FF47A7200230EF051F908BD0D
:10025000024BA3FB00308009F9E700BFD34D6210C9
:1002600008B506E0104A1368013313600F4B1B7882
:100270009BB9FFF7E3FF0E4B1B68C01AB0F57A7FFE
:10028000F0D3FFF7DBFF0A4B1860074C21680948E1
:1002900004F03CFD00232360E4E700F03BFE034B49
:1002A00000221A70E5E700BF6428002062390020B0
:1002B0006828002070E5001000B583B008F091FBBD
:1002C00000F048FE00F01AFE2B4B1B88ADF80430FE
:1002D00001A9002007F0F6FF04F0E4FCFFF7AEFFF1
:1002E000264B1860264808F021FC21E0FFF7A6FF06
:1002F000224D2860234C2168234804F007FD29681B
:10030000224804F003FD01F091F9002323601CE072
:10031000FFF794FF1E4B18601E4B187880F0010009
:10032000187000F022FE19E0164A136801331360BA
:1003300000214FF0FF3005F07DFEFFF77FFF0F4BF0
:100340001B68C01AB0F57A7FD0D2FFF777FF104B49
:100350001B68C01A104B1B689842D9D8FFF76EFF74
:100360000E4B1B689842DFD0FFF768FF0B4B1860FD
:1003700001F038F9D8E700BFCCF400105439002060
:10038000610200104C39002094E50010B4E5001023
:100390002428002065390020CC110020503900208D
:1003A000013861F10001430843EAC17343EA0002E6
:1003B00041EA5101930843EA81731A4341EA9101EA
:1003C000130943EA01731A4341EA1111130A43EA7C
:1003D0000163134341EA1121180C40EA014018431C
:1003E00041EA11410843013041F10001704700002A
:1003F00038B500F0B9FC0A4C22686468824274F196
:10040000000C06D3501C44F10001054B18605960E4
:1004100038BD00252946024A10605560F8E700BF44
:100420007019002000000000F8B5044608460EF0E0
:100430005BF842A3D3E9002302F00CFB03F00CF8B5
:10044000DFF800C1384F1CEB000247EB010182EAE4
:100450005102364E364D05FB02F306FB0133A2FB7B
:1004600006210B44110F41EA03114A4083EA137E2F
:100470003049314800FB02F301FB0E33A2FB012E91
:100480007344236013EB0C0347F1000283EA520329
:1004900005FB03FE06FB02EEA3FB063296441A0F91
:1004A00042EA0E125A408EEA1E7E00FB02F301FB66
:1004B0000E33A2FB012E7344636013EB0C0347F170
:1004C000000283EA520305FB03FE06FB02EEA3FBD8
:1004D000063296441A0F42EA0E125A408EEA1E7EE7
:1004E00000FB02F301FB0E33A2FB012E7344A36059
:1004F00013EB0C0347F1000783EA570303FB05F5F1
:1005000006FB0755A3FB063635441A0F42EA0512CF
:10051000534085EA157503FB00F001FB0500A3FBC2
:1005200001310844E060F8BDB979379EF505977947
:10053000EDD9A962B3358CC8A5D024CB000000004A
:1005400080842E41157C4A7F10B50446FFF750FF8A
:1005500003F067F801462046FFF766FF10BD000074
:1005600008B50248FFF7F0FF08BD00BF001B0020E0
:1005700070B584B00446836963B14168006800F0D7
:10058000CDFB00236361636923616368013BA36062
:1005900004B070BD1546084600F0E8FB00F0E8FB2B
:1005A0000646A061E8B1E5602846022DB8BF0220EA
:1005B0006060C117FFF7F4FE01466060012230461B
:1005C00000F0F0FB01A9A06900F0DDFBA0B96368B1
:1005D000019A9A4209D00A4800F0AAFB002323603E
:1005E000D6E7084800F0A4FBD2E7039B2360A0698C
:1005F00000F0D1FB6061C6E7034800F099FBC2E759
:10060000F0E50010D8E5001008E6001010B584B041
:10061000044601A9406900F0B6FB38B9039BA3600A
:10062000019B2360029B636004B010BD014800F091
:100630007FFBF9E708E6001070B5044615461E4634
:10064000436943B132462946606900F0ABFB20465E
:10065000FFF7DCFF70BD084600F088FB00F088FB68
:1006600060610028EED1024800F062FBF2E700BFB3
:10067000D8E5001070B504460D46164602FB01F39E
:10068000B3F1007F10DCA068B0B106FB05F1890072
:1006900000F03CFBA060A068A8B12560666006FB86
:1006A00005F100F03BFB70BD4FF0007595FBF2F5D6
:1006B0000A4800F04BFBE6E706FB05F0800000F07F
:1006C00021FBA060E7E7064800F032FB01224FF46F
:1006D00000712046FFF7CEFFE5E700BF24E60010DB
:1006E00048E600102DE9F041804600240460012214
:1006F000426084600461C4604FF48041FFF7BAFF38
:1007000029E007EE904AB8EEE77ADFED167A67EE59
:10071000277A17EE900A0DF0E7FE02460B4602F02C
:1007200071F906460F4607EE905AF8EEE77A17EE93
:10073000900A0DF0D9FE02460B463046394602F0CB
:10074000AFF902F020FCD8F8083003EB840502F082
:10075000F5F928600134D8F80050A542D1DC4046B4
:10076000BDE8F081DB0F494070B504460026C0F8B3
:100770002861C0F82C21C0F86C114FF48052474911
:100780007030FFF7F5FE0025C4F870514FF4805229
:10079000434904F1A800FFF7EBFEC4F868514FF499
:1007A0008052404904F1C400FFF7E2FEC4F85C51F6
:1007B0004FF480523C4904F18C00FFF7D9FEC4F895
:1007C000605101230422394904F12800FFF734FF66
:1007D00001230422364904F15800FFF72DFF354A62
:1007E000C4F86421C4F87851334BC4F888314FF011
:1007F0007E53C4F87C313149C4F890113049C4F8B3
:1008000094113049C4F88C11C4F85451C4F884319F
:10081000C4F858214FF07C52C4F87421C4F8503108
:1008200001231122284904F14000FFF705FFC4F815
:100830003851C4F8345194ED5B7AC4F8F860C4F8C8
:10084000FC60DFED226AC6EE877AC4ED407AC4F818
:100850004451C4F84C51C4F8EC60C4F8F060C4EDE5
:100860003D7AC4F83C51C4F83051C4F80461C4F86E
:100870000861C4ED437AC4F84851C4F84051C4F843
:10088000E060C4F8E460C4ED3A7AC4F88051C4F87A
:100890009851204600F030FB70BD00BF58E60010B4
:1008A00064E6001070E600107CE6001088E6001098
:1008B00094E600103333333F9A99993ECDCC4C3EA9
:1008C0000000A0400AD7233CA0E600100000804FA3
:1008D00010B50446002383620122C262036383636E
:1008E0004363C3630364426483640365C364436511
:1008F0008365C265036683664366C3660367C36731
:1009000083674367C0F88430C0F88030C0F888300F
:10091000C0F88C30C0F89830C0F89430C0F89030EF
:10092000C0F8A030C0F89C30C0F8A430C0F8A8309F
:10093000C0F8B430C0F8B030C0F8AC30C0F8BC304B
:10094000C0F8B830C0F8C030C0F8C430C0F8D030FB
:10095000C0F8CC30C0F8C830C0F8D830C0F8D430B7
:10096000C0F8DC3000F58870FFF7BCFE204610BDF3
:10097000F8B506460D464FF4CE7002F0DFFE044691
:10098000FFF7A6FF2A4631462046FFF7EDFEC24B91
:100990002361C24B6361C24B1B68A360C14B1B68E0
:1009A000E360266065604FF41A7000F0ABF9E06117
:1009B0000E23A361BC4BC361012646620023036082
:1009C000002242600272C3604FF07E5101614272A8
:1009D000436181618362B54D0562E069B44F87640C
:1009E0000265D4F87C71C762026380F834208363A7
:1009F000C16380F83560AF4F0764AF4F476443650C
:100A0000C564E069AD4F4767C267D4F884718765F4
:100A1000C26580F860204366816680F86160C366C5
:100A20000167C0F880308567E069A54FC0F8A07005
:100A3000C0F8A820D4F85871C0F88470C0F8882095
:100A400080F88C20C0F89030C0F8941080F88D6049
:100A5000C0F89830C0F89C10C0F8AC30C0F8A45072
:100A6000E069984FC0F8CC70C0F8D420D4F88871F1
:100A7000C0F8B070C0F8B42080F8B820C0F8BC301E
:100A8000C0F8C01080F8B960C0F8C4308E4FC0F80C
:100A9000C870C0F8D830C0F8D050E0698B4FC0F8AB
:100AA000F870C0F80021D4F89071C0F8DC70C0F87C
:100AB000E02080F8E420C0F8E830C0F8EC1080F8BE
:100AC000E560834FC0F8F070824FC0F8F470C0F852
:100AD0000431C0F8FC50E0697F4FC0F82471C0F8C1
:100AE0002C21D4F85471C0F80871C0F80C2180F89A
:100AF0001021C0F81431C0F8181180F81161C0F845
:100B00001C31C0F82011C0F83031C0F82851E0691C
:100B1000724FC0F85071C0F85821D4F87871C0F8FD
:100B20003471C0F8382180F83C21C0F84031C0F859
:100B3000441180F83D61C0F84831C0F84C11C0F84C
:100B40005C31C0F85451E069654FC0F87C71C0F861
:100B50008461C0F86031C0F8642180F86821C0F871
:100B60006C31C0F8701180F86921C0F87431C0F898
:100B70007811C0F88831C0F88051E069594FC0F849
:100B8000A871C0F8B021D4F88C71C0F88C71C0F88D
:100B9000902180F89421C0F89831C0F89C1180F819
:100BA0009561C0F8A0314FF08147C0F8A471C0F83A
:100BB000B431C0F8AC51E0694B4FC0F8D471C0F803
:100BC000DC21D4F89471C0F8B871C0F8BC2180F869
:100BD000C021C0F8C431C0F8C81180F8C161C0F8A4
:100BE000CC11424FC0F8D071C0F8E031C0F8D851F4
:100BF000E0693F4FC0F80072C0F80862C0F8E43105
:100C0000C0F8E82180F8EC21C0F8F031C0F8F41108
:100C100080F8ED21C0F8F831C0F8FC11C0F80C32B2
:100C2000C0F80452E069334FC0F82C72C0F8342287
:100C3000D4F87471C0F81072C0F8142280F8182229
:100C4000C0F81C32C0F8201280F81962C0F82432B3
:100C5000C0F82812C0F83832C0F83052E069264F88
:100C6000C0F85872C0F86022D4F864C1C0F83CC221
:100C7000C0F8402280F84422C0F84832C0F84C1234
:100C800080F84562C0F85032C0F85412C0F864329F
:100C9000C0F85C522046F8BDC0110020B011002001
:100CA000C8110020C411002094E60010D4E5001003
:100CB000ACE60010CDCCCC3D00004041CCE60010AD
:100CC000B4E60010BCE60010A4707D3FC0E6001042
:100CD0000AD7233C0000F041C8E60010D0E600101F
:100CE000A0E60010D8E60010E0E600100000204268
:100CF00088E60010D4E60010E8E6001008B5FFF71B
:100D00002FFC08BD08B502F0DBFC08BD08B502F0F9
:100D1000EDFC08BD08B502F001FD08BD002303E0AD
:100D2000002240F8042B01338B42F9DB70470000AE
:100D300008B50246034B1B680349D86808F0DAFB84
:100D400008BD00BFA01600201CE7001008B5024631
:100D5000034B1B680349986808F0CCFB08BD00BF33
:100D6000A01600201CE700100020704700207047EC
:100D700008B5102002F0A4FC0022026042608260EC
:100D80000022C26008BD03680B6043684B60836843
:100D90008B6000207047D0ED037AFDEEE77A17EE06
:100DA000900A70472DE9F04F83B08146884614467B
:100DB0008568D0F800B0466802FB01F3B3F1007F0C
:100DC0001EDC04FB08FA4FEA8A0A06FB0BF39B00C1
:100DD00001930DB19A451BD05046FFF793FF07468C
:100DE00040B304FB08F1FFF799FFC5B3D8453DDADE
:100DF000C646A6423CD0A64252DDA44600205FE093
:100E00004FF0007898FBF2F83948FFF79FFFD8E7DA
:100E1000D8450ADDC9F80440C9F8008004FB08F190
:100E2000D9F80800FFF77AFF37E0C9F80080C9F861
:100E30000440F3E72F48FFF77BFFB8F5007F01DCA4
:100E4000012C06DD01224FF400714846FFF7AAFF8E
:100E500023E0012204214846FFF7A4FF1DE0C9F862
:100E60000870C9F80080C9F8044016E0DE46C0E703
:100E700004FB0EF292002946384608F049FC019B1B
:100E80009A4526D2D8451FDDC9F80440C9F800802C
:100E9000C9F808702846FFF73DFF03B0BDE8F08FA2
:100EA000B446ABE706FB003104FB003207EB8202DD
:100EB00005EB81010968116001336345F2DB013004
:100EC0007045DCDA0023F8E7C9F80080C9F804406F
:100ED000DEE7C9F80870D84504DDC9F80440C9F850
:100EE0000080D7E7C9F80080C9F80440D2E700BF06
:100EF00020E7001048E700107047000008B53021D7
:100F00000248FFF735FD024B186008BD00803B47E3
:100F100030280020002313E00B4A02EB8302D2EDBD
:100F2000007A0A4A02EB8302C2ED007AB6EE007A3A
:100F300067EE877A064A02EB8302C2ED007A01333C
:100F40002F2BE9DD704700BF6421002064240020BE
:100F5000E425002008B5192000F0A2FB19234FF06A
:100F6000010242EC4430002008BD192340EC40301F
:100F70007047000008B501F0D3FA29B14FF47A7236
:100F800000230DF0B5FA08BD024BA3FB0030800929
:100F9000F9E700BFD34D621038B50546FFF7EAFF09
:100FA000044604E000214FF0FF3005F043F8FFF75E
:100FB000E1FF001BA842F5D338BD704730B591B0B2
:100FC0000446002006F09EFA08B911B030BD00209A
:100FD00006F0B2FA0028F8D040226946204606F012
:100FE000B7FA02466946204606F028FB204606F07E
:100FF000C9FA002007F0FFFC3220FFF7CDFF0120E7
:1010000007F0F9FC3220FFF7C7FF002007F0F3FCE0
:10101000DBE7000008B5487902280FD14B78012B97
:1010200046D191F803C0BCF1010F16D0BCF1020FFC
:1010300037D1CB88022B21D000203AE0B0221D49C5
:101040001D4803F063FE4FF0E023D3F8F03D13F0AA
:10105000010F00D000BE00202BE0CB88012B01D077
:10106000002026E0887892F90020144B1A548978E1
:101070005A56134803F04AFE01201AE08878B2F964
:101080000020104B23F81020897833F91120002A12
:1010900005DB12120C4803F039FE012009E0FF3293
:1010A000F7E762460146094803F030FE002000E001
:1010B000002008BDECF400106CE70010E4320020C2
:1010C00084E7001058390020A0E70010C0E70010A6
:1010D00008B5487904280CD14B78012B27D191F819
:1010E00003C0BCF1010F1BD1CB88042B10D0002012
:1010F0001EE072220F49104803F008FE4FF0E02373
:10110000D3F8F03D13F0010F00D000BE00200FE037
:1011100011680A4B19600A4803F0F8FD012007E046
:1011200062460146074803F0F1FD002000E0002080
:1011300008BD00BFD0F400106CE70010D0110020F3
:1011400014E8001034E8001070B58AB00C464979F4
:1011500004290CD10546E278012A17D0022A5AD078
:101160006378354803F0D2FD00200AB070BD4422F8
:101170003249334803F0CAFD4FF0E023D3F8F03D85
:1011800013F0010F00D000BE0020EEE76378012BC2
:1011900011D0022BE4D100260396049605960696FC
:1011A00007960896ADF824600221ADF80C1025488A
:1011B00003F0ACFD26E0244E3168244803F0A6FD80
:1011C00033680393042303AA2146284606F0C8F88F
:1011D000CBE71F4B53F8262006EB46010AAB03EB87
:1011E000810141F81A2C41F8162C002321F8123CF9
:1011F00021F8103C009313463146164803F086FD53
:101200000136F6B2012EE4D91A2303AA2146284654
:1012100006F0A6F8A9E76378012BA1D101268DF885
:101220000C6031460C4803F071FD334603AA214699
:10123000284606F095F898E7ECE8001034F5001021
:101240006CE70010A0E80010D011002080E800102A
:1012500054F50010BCE80010D4E8001070B584B05C
:101260000C464979022911D10546E278012A1CD0A1
:10127000022A04D16378022B29D0012B3DD0637858
:10128000294803F043FD002004B070BD8A2227499D
:10129000274803F03BFD4FF0E023D3F8F03D13F077
:1012A000010F00D000BE0020EEE76378012BDFD1F4
:1012B000A178204B5A568DF808201F4803F026FDD0
:1012C000012302AA2146284606F04AF8DCE71B4B18
:1012D00002AE93E8030086E8030001230093002395
:1012E0006FF03102A178164803F010FD0823324652
:1012F0002146284606F034F8C6E7A178114B33F9A9
:101300001130ADF808301A46002B0ADB12120E48D5
:1013100003F0FCFC022302AA2146284606F020F82E
:10132000B2E703F1FF02F1E7A4E9001010F50010A5
:101330006CE70010E432002038E900105CF5001082
:1013400054E900105839002084E9001008B50A4615
:101350004979042908D002290AD05378D27806485E
:1013600003F0D4FC002008BD1146FFF7EDFEFAE7BC
:101370001146FFF773FFF6E7F8E9001008B58C4651
:10138000497902290AD004290CD09CF801309CF834
:101390000320064803F0BAFC002008BD6146FFF7B1
:1013A00039FEFAE76146FFF793FEF6E73CEA0010E4
:1013B0008B88DBB24A88D2B2012B01D00120704762
:1013C000002AFBD1024B4FF47A721A60F6E700BF95
:1013D000CC1100208A88D2B24B88DBB2012A0AD015
:1013E000094A0021116023B1013B084AD25C084B35
:1013F0001A70012070471BB9034B00221A60F8E7EE
:10140000044A19211160EBE74039002050F5001023
:1014100063390020CC11002038B50C46264D0A4611
:101420002946002005F0B4FD244B18600023244910
:10143000AC4635E0604630F9042B07EE902AF8EE12
:10144000E77A9FED207A67EE877A1F4A02EB8302E4
:10145000C2ED007ABCF9022007EE902AF8EEE77A96
:1014600067EE877A194A02EB8302C2ED007A184AC6
:1014700002EB8302D2ED007AFEEEE87A8C4617EE9C
:10148000902A2CF8042B134A02EB830EDEED007A2F
:10149000FEEEE87A17EE902A4A80013361468446D0
:1014A0002F2BC7DD22460649002005F089FD0120CB
:1014B000094B187038BD00BF303300204039002080
:1014C000642700200000003864210020E42200206E
:1014D00064240020E42500206239002001207047A8
:1014E00070B588B004460D461D4B5BB110210DEB65
:1014F000010007F084FA6E08B0EB550F00D80646DD
:10150000002524E0174B049303F18833059308204A
:10151000F1E7154BEE460FCB8DE80F0005F12003E8
:101520006B4413F8103C4FEA8C02134103F00F0395
:10153000CCEB4502013220336B4413F8203C24F8F5
:1015400012300CF1010CBCF1010FE2D90135AE42B1
:1015500002D94FF0000CF6E7700008B070BD00BF74
:10156000FF8900100123456780EA0010004870479A
:1015700048F700100048704768F5001010B570B1CA
:1015800003281AD0062825D8134A52F820402046AE
:1015900008F034F9202800D92020002317E00E4B52
:1015A0001B681A880D4B5A800120431C5B009BB2BC
:1015B00043F440730948038010BD20210848FFF719
:1015C0008FFFF2E7E15C0133044A22F813109842DE
:1015D000F8D8EAE70020EFE7D41100208C1E0020A5
:1015E0008E1E002000B583B017E001A9002006F090
:1015F0005FFB9DF804308DF800309DF805308DF8C4
:1016000001309DF806308DF802309DF807308DF8D6
:1016100003306946002006F091FC0021084606F0E0
:1016200033FB0028E1D103B05DF804FB10B582B0B4
:1016300001AA0020ADF804009070B0238DF80430AA
:101640003C238DF80530074C237803F07F038DF899
:1016500006300323014606F049FB2378013323704B
:1016600002B010BD5E3900200C4B03EB800253F832
:10167000203083F0400303F0C00302F5805CCCF817
:101680000030C00000F1804000F52030416002F5DC
:1016900040524FF480731360704700BF04800340D2
:1016A00008B54FF0000242EC440042EC4000052136
:1016B000FFF7DAFF08BD00000FB400B583B0049C4B
:1016C000074803F0F3FA3CB105A90191204603F065
:1016D000FDFA044803F0EAFA012003F02FF900BFF5
:1016E000D8EA001080E90010EFF3108072B6064BC4
:1016F000D3E8CF1F01220029FAD1C3E8412F0029E6
:10170000F6D1BFF35F8F7047232000200023034AE8
:10171000C2E88F3F80F31088704700BF232000206D
:1017200070B505460C461646FFF7DEFFE208A95CD9
:1017300004F0070C012303FA0CF3194205D1DBB2C4
:101740000B43AB54FFF7E2FF70BD21463046FFF775
:10175000B3FFF8B506460D4614461F46FFF7C4FF13
:1017600000E00134BC420ED84FEAD40C16F80C103D
:1017700004F0070301229A401142F2D1D2B20A4387
:1017800006F80C2001E04FF0FF34FFF7BFFF002CFC
:1017900001DB2046F8BD002DFBD00698FFF78CFF3B
:1017A000054A1078431CDBB21370172B02D913467D
:1017B00010221A70704700BFF011002000B583B0EE
:1017C0000146054B00931F2318220448FFF7C1FF71
:1017D00003B05DF804FB00BFE8EA001034280020E5
:1017E0004FF0E022936843F000539360704700008D
:1017F000002305E0044A1A440021C2E88F1F013388
:101800001F2BF7D9704700BF18200020064B9B689C
:10181000103043F82010BFF35F8F00230349C1E865
:101820008F3F82F31088704700ED00E021200020F8
:101830000048704700E400E008B5FFF7F9FF002317
:1018400004E04FF0803240F8042B01330C2BF8D920
:1018500008BD000008B50388DA0A1C2A06D15B051A
:101860000BD45B15023300EB430008BD064B074A5F
:1018700040F21511064803F0AFF803F5FF1303F526
:10188000FF531F33EDE700BF04EB001084F7001097
:101890001CEB001008B5091A01F2FC7240F6FE7349
:1018A0009A4208D8081F11F0010F04D1C0F34A0072
:1018B00040F4604008BD034B034A40F2071103485F
:1018C00003F08AF864EB001078F700101CEB0010AE
:1018D0004209064B53F8223000F01F0001228240DB
:1018E00003EA0200003818BF0120704700E100E061
:1018F0003AB1064B00F1600243F8221043F8201081
:1019000070472030014B43F82010704700E100E0A1
:1019100008B50A4600F01F03012199404009FFF76E
:10192000E7FF08BD024B9B68103053F8200070475A
:1019300000ED00E070B505460C46EFF3108672B678
:101940000F4BD3E8CF1F01220029FAD1C3E8412F62
:101950000029F6D1BFF35F8FFFF7E4FF094B9842F0
:1019600001D0A04205D1324621462846FFF74EFF5E
:1019700070BD054B054AE721054803F02DF800BF6F
:10198000212000201D01001094EB0010ACF7001086
:101990001CEB00102DE9F04F87B000911546EFF3D6
:1019A000108A72B67C4BD3E8CF1F01220029FAD1EE
:1019B000C3E8412F0029F6D1BFF35F8F774B93F92E
:1019C0000040002C44DB804604EB4407744B03EBDF
:1019D000870797F90610714A1170724A926800F1F0
:1019E000100152F82190A9EB03022F2A3ED96E4B29
:1019F000994534D14FF42143ADF80C304FEA4409F6
:101A000004EB4400664E06EB800068490230FFF7A5
:101A100041FFADF80E004BF60153ADF81030FF2337
:101A20008DF812308DF81350009B0593A14406EBFE
:101A3000890306AA12E9070083E8070047F00109B5
:101A4000524649464046FFF7E1FE07B0BDE8F08F39
:101A5000574B584A40F27311574802F0BDFF574B9D
:101A6000544A4FF4BD71544802F0B6FF29F0010BFF
:101A7000ABEB0303524AA2FB0312D20802EB420271
:101A8000B3EB820F0FD15B460026DA79AA4212D956
:101A900093F90620002A0DDB02EB42021E46404B62
:101AA00003EB8203F1E7474B424A40F28B11424875
:101AB00002F092FF1E46A6B344F60103ADF80C30C7
:101AC0004FF48F43ADF80E3096F906B0BBF1000F1E
:101AD0001ADA4BF60150ADF810008DF812B08DF8FF
:101AE0001350009B05933946301DFFF7D3FEB0809D
:101AF000B47104EB44042A4B03EB840306AA12E9F5
:101B0000070083E807009BE7301DFFF7A3FE0146AF
:101B100004EB4402224B03EB8203181DFFF7BAFECD
:101B2000D9E74FF42143ADF80C306300019304EB87
:101B30004406DFF86C9009EB86061C49B01CFFF7E1
:101B4000A9FEADF80E005946301DFFF7A3FEADF813
:101B500010004AF6AA235A464946521A52415343A4
:101B60001B0D8DF812308DF81350009A0592019BD1
:101B7000234409EB830906AB13E9070089E8070052
:101B800044F60103ABF800304FF48F43ABF802305A
:101B900047F0010954E700BF2120002064390020EC
:101BA000F411002000ED00E01D01001024120020BF
:101BB000CCEB001094F700101CEB0010F4EB0010BD
:101BC000ABAAAAAA1CEC001038B540F00104324BB5
:101BD000E31A2F2B31D8EFF30581C9B2002933D096
:101BE000EFF3108E72B62D4BD3E8CF5F0122002D9C
:101BF000FAD1C3E8452F002DF6D1BFF35F8F4AF627
:101C0000AA230246244D521B524153431B0D4FFA47
:101C100083FC234B9B6853F82130A3421BD0002345
:101C2000032B32D803EB43011B4A02EB810292F9EA
:101C30000620624520D00133F2E71A4B1A4A4FF4CE
:101C40001D711A4802F0C8FE194B174A40F277215D
:101C5000164802F0C1FE124B9B68164A43F8212039
:101C6000154B1A78827183F800C000230B4AC2E832
:101C70008F3F8EF3108838BD074A02EB8101FF24A5
:101C80008C714BF601538B80EAE70C4B064A4FF4FC
:101C90002271064802F0A0FEF4110020212000204D
:101CA00000ED00E0A0EC00105CF700101CEB001051
:101CB000C8EC00101D01001064390020D4EC0010A5
:101CC000014B0B44036070471820002010B50446F8
:101CD000FFF766FD01462046FFF7F2FFFF23237161
:101CE000BFF35F8F10BD10B50446FFF759FD0146E5
:101CF0002046FFF7E5FFFF23237100236371BFF345
:101D00005F8F10BD10B50D4C09E00D4B0D4A1A2127
:101D10000D4802F061FE2046FFF7D8FF08340B4B58
:101D20009C4209D22368002BF5D0012BEDD120462F
:101D3000FFF7D9FF0834F2E710BD00BF601900209B
:101D4000DCEC0010ECF70010FCEC00107019002027
:101D5000024B0B440360BFF35F8F704718200020D5
:101D600010B504460120FFF729FD01462046FFF784
:101D7000EFFF10BD0246EFF30583DBB2103B99087D
:101D800004D0034803F00303136070470148F9E7E8
:101D900000800B4000000B4010B4846AA2EB040CDE
:101DA0000B1D50F823301B1B9C4504D3046A0123F0
:101DB0008B401C4202D1043140F821205DF8044BD5
:101DC000704741EA004070470D4B1A68EFF31081ED
:101DD00072B6D2E8CFCF0120BCF1000FF9D1C2E832
:101DE0004C0FBCF1000FF4D1BFF35F8F1A680023D2
:101DF000C2E88F3F81F3108840BF00200021704768
:101E00002C3300202DE9F04F85B003A8FFF7B2FF77
:101E1000954B984214BF00230123039901EB8303E0
:101E2000924A52F823402378994206D1054601226E
:101E30008A4000F541535A602CE18D4B8D4A922126
:101E40008D4802F0C9FDD4F8149006EB46074FEA1E
:101E5000C70A09EBC707D7F808B0D7F80C8028469F
:101E600000F034FBB0EB0B0061EB0803002BC0F279
:101E70001A81B8F1000F64DB3B691A4600937F4B6F
:101E80009A4230D0798889B2B4F90800FFF799FFF7
:101E90007969009B9847009001910099019A51EA55
:101EA00002034ED01346002A29DABBEB010268EB8D
:101EB0000308BA60C7F80C8039F90A70002FC0F225
:101EC000F280D4F814E007EB47030EEBC3039968E4
:101ED000DB68511A68EB0303002BC0F2E480A446D0
:101EE0002CF8087F17E07A6913690092104698472A
:101EF00038B3009A1368009353680193CDE72846DE
:101F000000F0E4FA009B1A18019B43EB0108D0E7AC
:101F10009C463EF90B70002F0EDBBCF9003003EB42
:101F200043034FEAC30B0EEBC3039868D968101A3A
:101F300068EB01010029EBDA29F80A70ACF80060BF
:101F4000B1E039F90A3023812369EFF3108272B6C8
:101F5000D3E8CF0F01210028FAD1C3E8401F0028A1
:101F6000F6D1BFF35F8FB4F9023029F80A306680EA
:101F700021690023C1E88F3F82F3108893E0236931
:101F8000EFF3108272B6D3E8CF0F01210028FAD107
:101F9000C3E8401F0028F6D1BFF35F8FB4F8048078
:101FA0000FFA88F84FF6FF73A38021690023C1E878
:101FB0008F3F82F310881AE01F4630F90A60002E26
:101FC0000FDBB7F9003003EB43034FEAC30A00EB22
:101FD000C3039968DA68BCEB01016EEB0202002AC8
:101FE000EADAA7F8008030F9098020F80960B8F132
:101FF000000F5DDB606908EB48034FEAC30900EBA3
:10200000C303D3F808C0D3F80CE004F10807B4F90F
:102010000860D4E70023A37104F1080CB4F9083078
:1020200010E04FF0FF384FF0FF39C0E90289B4F9F2
:102030000800984205D0ACF80020B4F90800C85355
:1020400023811346B3F1FF3F35D0616903EB4302AF
:10205000D70001EBC20031F93220468816F4004F58
:10206000DFD18446EDE700BF00800B400433002041
:1020700094ED001018F80010C0ED0010051E0010BF
:10208000284600F023FA3F1A66EB0106012F76F18D
:10209000000628DA039A01239340EB63B4F9086041
:1020A000002EBFF6D0AEA38813F4004F3FF467AF05
:1020B000A379002BAED1B4F90830002B13DB626991
:1020C00003EB430302EBC3039F68DE68B6F1FF3FF7
:1020D00008BFB7F1FF3FD3D03A46334603992846AD
:1020E000FFF75AFECCE740BF05B0BDE8F08F00BF58
:1020F000F8B504460D4611460A4B984210D000260A
:102100002E44012707FA05F525623046FFF712FC39
:1021100039463046FFF7FCFB04F501542560F8BD55
:102120000426EDE700800B40F8B504460E4617463E
:102130001D46C160FFF734FB164B03442361277033
:10214000ABB263814FF05042127862704FF6FF726B
:102150002281A280013B63804FF0000C08E00CF16B
:10216000FF300CEB4C0E636923F83E000CF1010CC0
:10217000AC45F4D3084B9E4214BF0023012307EB68
:102180008303064A42F82340054A39463046FFF7A2
:10219000AFFFF8BD1820002000800B400433002062
:1021A000051E001008B5054B1B690BB1034808BD9F
:1021B000034B044A6521044802F00EFC3C12002047
:1021C00000EE001000F80010C0ED0010F8B5044655
:1021D0009E460069EFF3108172B6D0E8CF6F0125FB
:1021E000002EFAD1C0E8465F002EF6D1BFF35F8F14
:1021F000B4F90250666905EB4500C70006EBC00064
:10220000002D03DB36F907C0A4F802C04FF0000C24
:102210002369C3E88FCF81F31088654533DB0699C6
:102220000161079941618260C0F80CE0418889B280
:102230000131C1F30E0101B9012141802846FFF7A8
:10224000C0FD2369EFF3108272B6D3E8CFCF01212E
:10225000BCF1000FF9D1C3E84C1FBCF1000FF4D161
:10226000BFF35F8FA388F353A58021690023C1E8E2
:102270008F3F82F31088E368217801228A4003F5BA
:1022800001535A60F8BD4FF0FF30FBE770B582B0E4
:10229000064615461C469DF8203033B900F040F93B
:1022A000854264EB010100290ADB079B0193069B31
:1022B00000932A4623463046FFF788FF02B070BDE0
:1022C0000020FBE7F0B585B005460C4616461F46D4
:1022D000FFF768FF9DF828300293019700962A4681
:1022E0002346FFF7D3FF05B0F0BD03464089B0EBAE
:1022F000214F31DD10B50A14586902EB420200EBA0
:10230000C2001A69EFF3108C72B6D2E8CF4F5FF0BB
:10231000010E002CF9D1C2E844EF002CF5D1BFF337
:102320005F8F428892B289B28A420FD00020196929
:102330000022C1E88F2F8CF3108830B1DA681B7847
:102340000121994002F50153596010BD42F4004249
:10235000428001209871EAE70020704710B50446DA
:10236000FFF720FF2146FFF7C0FF10BD4078704700
:10237000F0B583B005460C46EFF30583DBB293B1AD
:10238000384B5B6A8B4209D3364A926A824208D242
:102390008B4201D0012002E0002000E0002003B0C9
:1023A000F0BD0120FBE7FFF7FDFEC7680678384661
:1023B00000F08CF82A1A64EB0101043657F8263035
:1023C0001B1A9A4271F1000112DB20BF254B5B6A98
:1023D0009C4209D8234A926AAA4207D29C4201D061
:1023E0000120DCE70020DAE70020D8E70120D6E76B
:1023F000002300931C4A28462146FFF763FF00286C
:1024000018DD184B5B6A9C4205D8164A926AAA42AC
:1024100002D29C4200D120BFFFF7A0FF114B5B6AA4
:102420009C421BD80F4A926AAA4219D29C4213D0EE
:102430000120B4E70B4B5B6A9C4209D8094A926AB7
:10244000AA4207D29C4201D00120A8E70020A6E7BB
:102450000020A4E70120A2E70020A0E700209EE7DB
:1024600001209CE700000B40C91D00100048704788
:1024700000000B4010B50A4B1B6923B10A21094823
:10248000FFF71EFC10BDFFF7F1FF0446032100F02B
:102490000BF81023032221460148FFF745FEEDE724
:1024A0003C1200202C33002010B5054A054C064B89
:1024B000A04214BF1846581CFFF732F910BD00BFE8
:1024C00024EE001000800B40382800200246436AAA
:1024D000906A1946536A9942FAD17047416A00E0FE
:1024E000416A9942FCD300E0416A994202D1816A73
:1024F0009142F9D3704770B5064614461D46FFF762
:10250000E5FF021941EB0503824273EB010102D2A0
:102510004FF0FF3213463046FFF7E0FF70BD00007A
:1025200008B50248FFF7D2FF08BD00BF00000B400E
:1025300008B502460B460248FFF7DDFF08BD00BFA5
:1025400000000B4070B51646049D00EB400C4FEAAE
:102550008C0C0CF1804C0CF5803CDCF80420AA4279
:1025600001D2CCF80450A0F1040E5FFA8EFEBEF149
:10257000010F28D90CF540524FF4006414601E4A34
:1025800052F8202042B11C4C6469B4FBF2F40134CF
:1025900004EB4404033CFDD2DCF8002082EA46123E
:1025A00002F0E0020CF580542260BEF1010F16D952
:1025B0000CF500524FF400611160CCF804500E4A43
:1025C00042F8203070BD0129D4D10CF540520324CB
:1025D0001460DCF8082012F0010FFAD0DCE7DCF818
:1025E00000204A4002F003022260DCF80840012289
:1025F0008A401442F9D0DBE73C28002010B582B0B5
:102600004FF480340094FFF79DFF02B010BD00002E
:10261000014B53F8200070473C28002070B5049C03
:10262000344DB5FBF1FC344D1544344EB54237D82A
:10263000B2FBFCF5A5F1100EBEF5987F36D803F17C
:10264000FF3EBEF1060F37D804F1FF3EBEF1060F84
:1026500032D8BCEB121F35D8240344EA0344036884
:10266000002B35DB264B984242D00E2301229A40A4
:10267000244B1A6003F580531A60234B9B6832EA9F
:102680000303FAD10160856000F540520432212332
:1026900013600368002BFCDAC4600823136070BD6C
:1026A0001A4B1B4A11211B4802F096F91A4B184A83
:1026B0001921184802F090F9184B154A1C211548A9
:1026C00002F08AF9164B124A2321124802F084F9CB
:1026D000036803F03F038B42C4D18368C3F30B0349
:1026E000AB42BFD1C36803F4EE23A342BAD1D6E70D
:1026F0000F23BBE7001BB70080E84BD380F8A9325B
:1027000000800540002002400000024048EE00101A
:1027100038F8001098EE0010E0EE0010FCEE00100B
:1027200048EF0010054A00EB400302EB83035960B9
:1027300000EB4000800001231350704700801040E0
:1027400008B50023DB8A002242E800F212F4800F71
:1027500002D11021984708BD04219847FBE70000EB
:10276000034BD3F82838002BFAD0BFF35F8F7047A4
:1027700000000E40002207E0054B13449B00BFF30E
:102780005F8F002119600132072AF5D9704700BF19
:102790000382031008B5FFF7EDFF08BD074B4FF4A8
:1027A0002A621A604FF48D72DA6003F50053044A0E
:1027B0001A60024B5B68002BFBDA70470080044014
:1027C00000B0FA0010B5044602E054F8043B984704
:1027D000014B9C42F9D310BD60E50010704700002A
:1027E00008B50248FFF7EEFF08BD00BF20E5001066
:1027F00008B50248FFF7E6FF08BD00BF4CE5001032
:10280000064B074A1A6003F58053064A1A60064BC6
:102810009A68044B9343FAD1704700BF00200240EE
:102820007F3BEFEFF6FFF30300000240054BDB6C4C
:10283000B3F5004F00D07047034B4FF48022DA64A9
:10284000F9E700BF00001150002011504FF0E022C6
:10285000D2F8881D034B0B43C2F8883D10EE3004BC
:10286000704700BF03033000054B6FF060421A60F1
:10287000044B9B68DB4333F06043F9D1704700BFE2
:10288000003002400000024008B545F25320FFF737
:1028900057FF03460420984708BD08B545F253206A
:1028A000FFF74EFF03460120984708BD08B5FEF725
:1028B0009FFF08BD38B5054CA168054D4FF48872DF
:1028C000284606F025FFA56038BD00BF00ED00E0FA
:1028D0000000002038B50420FFF79AFE064BA3FB4A
:1028E0000035AD0C002404E02946E0B2FFF71AFFE2
:1028F0000134052CF8DD38BD83DE1B4330B583B0D1
:10290000264B0022C3F88420FFF748FF244B012206
:10291000DA63224B5B6C012BFBD1214B03221A6340
:102920001E4B9B6B012BFBD10224009405231D4AF7
:1029300001211D48FFF772FE052500952B461B4A15
:1029400001211B48FFF76AFE1A4B00222146042092
:10295000FFF754FE184C2346002201212846FFF7BA
:102960004DFE164D2B46002211460820FFF746FE6D
:102970002B46002211460920FFF740FE2346002285
:1029800011460620FFF73AFE234600221146072093
:10299000FFF734FEFFF79EFF03B030BD000001409B
:1029A00000300140002F685900000540008C864728
:1029B00000800540001BB70080D1F008006CDC02ED
:1029C00086B003B451FC0804CDE9020151FC0904AE
:1029D000CDE9040151EC0A04CDE9060103BCF0473E
:1029E000BDE800504EEC00C4BDE800504EEC01C400
:1029F000BDE800504EEC02C400BD000000B5FFF77A
:102A0000DFFF02E010FE30F4F8D441EC100443EC98
:102A1000112400EE010410EE010480EE200451ECBC
:102A20001004704700B5FFF7CBFF02E010FE30F452
:102A3000F8D441EC100443EC112400EE010410EE34
:102A4000210480EE200451EC3004704700B5FFF7FC
:102A5000B7FF02E010FE30F4F8D410B541EC1004DA
:102A600043EC112451EC040453EC0524A0FB024C6C
:102A70005FF0000EE0FB03CEE1FB02CE4CEC204405
:102A80000024E1FB03E444EC30E480EE200451EC4C
:102A90005004BDE81040704700B5FFF791FF02E019
:102AA00010FE30F4F8D441EC100443EC112451EC46
:102AB0002104A0FB01126FEA820252FB100052FBBC
:102AC00012F252FB1000A0EBD07C53EC04245CFB10
:102AD00013F153EC1524A1FB022001FB030053EC7E
:102AE0004424A2EB000050FB1CF24FEA111312EB3E
:102AF000017043EBE27140EA515020EA915020F01E
:102B0000070053EC7524A0FB023C53EC752400FB3A
:102B100003CC01FB02CC53EC0424ACEB824C40EA26
:102B20005C70A0F1010041EC400480EE200451EC07
:102B30007004704700B5FFF743FF02E010FE30F469
:102B4000F8D441EC100480EE220410EEB204704779
:102B500000B5FFF735FF02E010FE30F4F8D440EC8A
:102B6000700400EE010410EE210480EE200451EC0C
:102B70003004704700B5FFF723FF02E010FE30F489
:102B8000F8D440EC600400EE010410EE210480EE65
:102B9000200451EC3004704700B5FFF711FF02E04C
:102BA00010FE30F4F8D441EC800400EE010410EE85
:102BB000010480EE400410EE1304704700B5FFF7E7
:102BC000FFFE02E010FE30F4F8D441EC800400EE89
:102BD000010410EE010480EE400410EE330470474F
:102BE00000B5FFF7EDFE02E010FE30F4F8D441EC42
:102BF000100443EC112400EE010410EE3004C0F385
:102C00000070704700B5FFF7DBFE02E010FE30F405
:102C1000F8D441EC100443EC112400EE010410EE52
:102C20003004C0F38070704700B5FFF7C9FE02E0C2
:102C300010FE30F4F8D443EC102441EC110400EE03
:102C4000010410EE30F48CBF01200020704700BF5B
:102C500000B5FFF7B5FE02E010FE30F4F8D443EC07
:102C6000102441EC110400EE010410EE30F42CBFEE
:102C700001200020704700BF00B5FFF7A1FE02E071
:102C800010FE30F4F8D441EC100443EC112400EEB3
:102C9000010410EE30F42CBF01200020704700BF6B
:102CA00000B5FFF78DFE02E010FE30F4F8D441ECE1
:102CB000100443EC112400EE010410EE30F48CBF3C
:102CC00001200020704700BF00000000000000004D
:102CD00000000000DB60BE284A059193F4D5097F0F
:102CE00070374D7D66A5D83610E4104FEA58947FB2
:102CF00058F1AEF78E1BC96DB8749390BA4B920120
:102D000087647482C77A873FCF694A2C7D8D20BA49
:102D100021D1AE4B091C673A90DF17AD8E75644E1A
:102D20007DCED460E21721270E4A7EEFFF25FEC735
:102D3000036681F762C4CBFB479B82D6B39F4DDB12
:102D40006DC2F2C9D98FD1D38BFA97A7B1EE495D85
:102D50005E7CF9FA7DCE41CFBAA494E2ECD7FE9A1C
:102D60004257E34711CC8015174B02F01F054FF077
:102D70000107AF405FEA6218A7FB00450026E7FBAA
:102D8000015603EB8803D3F81090A9FB06A7D3F8EC
:102D90000C90A9FB05A8E9FB6678D3F8089009FB1D
:102DA0000688E9FB0578A9FB04A6D3F8049009FB83
:102DB0000588E9FB0478D3F8009009FB0488BF1963
:102DC00048F1000870470000CC2C001050EA013296
:102DD00008BF41F0004141F400210B0002007047A0
:102DE0000BB900200021002240F20003C3F6F0736B
:102DF0001CF0020F1CBF104619467047002200232A
:102E000000245FF0004504E14DF804CD5FF0000CB4
:102E10000CF1040C02F10402FFF7A6FF98EAE8792E
:102E2000B9F1807F02D2BCF1400FF1D197EAE87787
:102E300041F2A616C0F64636A9FB06A04DF2115681
:102E4000C4F67E06A7FB06A1E9FB66010626E7FBA2
:102E5000060109FB0611DCF1200A57D421FA0CF314
:102E600020FA0CF201FA0AF942EA0902A2FB0394E1
:102E7000A2FB0395E3FB6345A4FB0596A4FB059722
:102E8000E5FB6567F60856EA47764FF0AA39A6FBD8
:102E90000967D4EB070675EB45075FEA2739360B60
:102EA00056EB075659F17F6717F14057C0B4A0FBA6
:102EB0000592A1FB0493E1FB6523A2FB0596A3FB0E
:102EC0000497E3FB65674FF0AA39A2FB09A400252C
:102ED000E3FB0945641955F100054FF08839A6FB5D
:102EE0000923B4EB131465F10005B0EB940061EB1A
:102EF000A501B0EB857061F10001CCF58064A4F10F
:102F00000E0400F082F9BDE8C0100CE0CCF580643E
:102F1000A4F10E0400F079F95DF804CB002640F22C
:102F20000007C3F6F0775FEAD87868F3000C5FEA31
:102F30006C090FD45FEA690906D31CF0040C57EA48
:102F40004C713000BDE8F0879CEA9C0C51EACC71D2
:102F5000BDE8F0871CF0040497EA4477C0B4A6E00B
:102F60003CB500F004F830BC03C40CC530BD11F012
:102F7000004C5FEA5C0C5CF0004C06E05FEA517CC0
:102F80001CF0040C01E05FF0020CC1F30A53A3F241
:102F9000FF32B2F5806F3FF419AF12F1200FFFF648
:102FA0001FAF012363F31F512DE9F04702F10C021B
:102FB000FFF7DAFE5FEA987444F10004A8EB847826
:102FC0000CEB440C4CEAD87C97EAE87798EAE8786E
:102FD000B8F5800FFFF418AF41F2A619C0F64639D4
:102FE000A8FB09A04DF21159C4F67E09A7FB09A15F
:102FF000E8FB69015FF00609E7FB090108FB09111D
:10300000B1F1007FFFF4FAAECA0E7C4B03EB021362
:103010003CCB801A994110D45FEA6C0636D4761006
:103020001CD200F06CF800F0AFF800F0ECF89CEA6D
:103030009C0C51EACC71BDE8F0875FEA6C0649D47C
:10304000761017D200F058F800F0ACF800F0D8F87D
:103050009CEA9C0C51EACC71BDE8F08700F04FF877
:1030600000F0AFF800F0CCF81CF0040C51EA4C7101
:10307000BDE8F08700F040F800F0B2F800F0C3F8C7
:103080001CF0040C51EA4C71BDE8F08700F037F8F1
:10309000FCB400F096F800F0B3F81CF0040491EAD8
:1030A0004471FCBC03B400F06FF800F0ACF89CEA8B
:1030B0005C0494EA9C0491EAC4711CF0020F1DBFE9
:1030C00002460B4603BC0CBC1CF0804491EA440150
:1030D000BDE8F08700F010F8FCB400F081F800F0D3
:1030E00092F81CF0040491EA4471FCBC03B400F0B3
:1030F00059F800F085F8DAE7404261EB4101A1FBA5
:103100000167A0FB01237F084FEA3606F21847F15A
:103110000003A3FB0076E2FB01760027E3FB0167D7
:103120004FF05538A6FB08964FF00009E7FB0869F9
:1031300016EB090659F10007861B71EB07074FEAEA
:10314000033040EA1250A0FB0009E9FB0809A9FB83
:1031500001084FF03330A8FB000858FB11FA4AF67B
:10316000AA20C2F6AA2060FB1A99B2EB491273EBAF
:10317000D9635AFB11FA4FF0C3606AFB108816EB53
:10318000481657EBD8677047A2FB04804FF0000148
:10319000E3FB0401A6FB0583E7FB0534181A64EB87
:1031A00001017047A2FB04804FF00001E3FB040122
:1031B000A6FB05836442E7FB0534181844EB0101C4
:1031C0007047A2FB05804FF00001E3FB0501A6FB61
:1031D00004836D42E7FB0435181845EB0101704785
:1031E000A2FB05804FF00001E3FB0501A6FB048371
:1031F000E7FB0435181A65EB0101704758320010DF
:10320000404261EB410140F2F334B1FA81F20C2A01
:103210000CD2153211FA02F3C2F12002D04021FA89
:1032200002F12244584141EB0251704769B1C2F1A9
:103230002B0230FA02F3C2F1200291409040194370
:10324000A4EB020201EB0251704701004FF00000B5
:10325000A4F12004D9D170470B5C7325A974F50340
:1032600029B5FA010015FC7FEB2FAA0054D9440CB4
:10327000C8D221061F60DA7F3663E842CFD3D91364
:103280003C5EEA09F0889D7F2FC46D04D9860A1C34
:103290001F17FE0DD09E3B7FA79B50EC3EF5EB2306
:1032A000BCE7E611C7EFBD7ED21C9C03B212F12B26
:1032B00046F5DC1549771E7ECA057A3DF493F23354
:1032C00014C0CB199CAC5F7DA0A0EF7A1D32193CD5
:1032D0001D22C61D2F2F7D7CB50FFB1270EF5044B1
:1032E000530CC1213522787B5C8D6B4745A0F14B97
:1032F00018DC6A2516AD687AC14069576DD9EA5362
:10330000391636293C2D2F79DFEA4ED38942B35B3B
:10331000D639E02C2526E0776950EA31D9071164C7
:10332000C0D3C43070625876CB5667F3B3A2FD6B3E
:103330001C7E6834227AC7740EED7A2F3175E073E3
:10334000CCE7FA3727111C73C08EC4FC0E79147CAD
:103350000EA7A33B8ECD417113B7043B8F7B5483E3
:10336000D489D23EEBD8856F9A365B13D96F0B8C1C
:10337000D4EA9442A3EF516D5F52CA4A26D33994DE
:10338000706E0A464005236B8340C441340B0E9C8B
:103390003DB0484907EFF168BF086DA3FD6179A40E
:1033A00085F2B14C9D847A663616F8C8D247E5ABF3
:1033B0001E22A24F2F623664ADC9C8D0E1ADFEB364
:1033C0002470C35286AFA461730E73646A35FEBB6A
:1033D00028F0C555A3A3025FC6A58CB055B912C489
:1033E0000892BA58A394415C90005354372DB0CB47
:1033F00019F46E5BD88E9359367C8DA16E3CAAD39E
:1034000025022E5EFC32AF56D0C7A248F619FFDB6C
:103410003253F3607EED9253949AAD7AE1AD22E49B
:10342000CADF8E63C72B7350FF15EF19BD85FBEB09
:10343000BB18FA65C7615C4DBD960F7E494B4CF4D5
:10344000F7816F68E617024AEB09EF1DFDBD4DFCE1
:10345000C4D2B26A13E4B4460022A2F232420B157F
:10346000A3F10103A1EB035126D440F2FE7C634596
:103470001CD2D21809D40C2A19DA9140D2F12003B7
:1034800030FA03F3904019437047203207DD01FA08
:1034900002F3D2F12002D140D0401843704752428B
:1034A00082F3050231FA02F0002170470AD86FF06A
:1034B00000006FF00001704713F1020F02D150EAD3
:1034C0000132F4D10020002170470022002980F24F
:1034D000A980404261EB4101B1B3B1FA81F3083BED
:1034E00016D4994010FA03FCC3F1200320FA03F02C
:1034F00040EA0100A2EB0302C2F195021CEB0C0CA6
:1035000040EBC25040F0004020D0FE2A16D2704757
:1035100003F1210311FA03FC5CEA000CC3F121035F
:1035200021FA03F0A3EB020202F1B50240EBC25014
:1035300040F000400AD0FE2A38BF70474FF00040EC
:10354000A8BFCFF68070704711460AE028BF20F070
:103550000100FE2A38BF7047F0E7002880F2338070
:103560004042B0FA80F3083B0CD4984001EB0302D0
:10357000C2F1950200EBC25040F00040FE2A38BF75
:10358000704713E003F1210310FA03FCC3F1210398
:1035900020FA03F0A3EB010202F1950240EBC250C6
:1035A00040F0004008D0FE2A38BF70474FF000407E
:1035B000A8BF40F0FF40704728BF20F00100FE2A5E
:1035C00038BF7047F2E720B3B0FA80F3083B0AD463
:1035D000984001EB0302C2F1950200EBC250FE2AB3
:1035E00038BF704711E003F1210310FA03FCC3F167
:1035F000210320FA03F0A3EB010202F1950240EB54
:10360000C25007D0FE2A38BF7047ACBF4FF0FF4012
:103610000020704728BF20F00100FE2A38BF704705
:10362000F3E7002289B3B1FA81F3083B14D499403F
:1036300010FA03FCC3F1200320FA03F040EA010072
:10364000A2EB0302C2F195021CEB0C0C40EBC25042
:103650001ED0FE2A14D2704703F1210311FA03FC95
:103660005CEA000CC3F1210321FA03F0A3EB020290
:1036700002F1B50240EBC2500AD0FE2A38BF7047B3
:10368000ACBF4FF0FF40002070471146FFF79BBFD3
:1036900028BF20F00100FE2A38BF7047F0E7000085
:1036A00008B528B103460B44034A934200D808BD2D
:1036B0000248FEF701F800BF0000082064EF001088
:1036C00070B50546084E30460AF01AFF284605F048
:1036D00077FA044630460AF00FFF29462046FFF7E6
:1036E000DFFF204670BD00BF6019002070B50446A2
:1036F0000D46094E30460AF003FF2946204605F0E4
:1037000037FD044630460AF0F7FE29462046FFF70B
:10371000C7FF204670BD00BF6019002038B50446C1
:10372000054D28460AF0ECFE204605F051FA2846E1
:103730000AF0E2FE38BD00BF6019002008B5FFF7AF
:10374000BFFF08BD704720B108B50A6849689047B7
:1037500008BD70470146002008E000EB8000531CC4
:103760000B60137803EB4003A3F130000A68137871
:10377000303BDBB2092BF0D970472DE9F04F83B015
:1037800005460E4693461F46DDF830A00D9CDDF839
:1037900038900F9B13F0030F19D1A046019208E057
:1037A00002F1010B3B4631462020A84708F10108F1
:1037B0005A46C845F4D3DDF804B008E0013C02F1F4
:1037C00001083B4631461AF80400A8474246002C3F
:1037D000F4D10F9B13F0020F09D1104603B0BDE8DE
:1037E000F08F541C3B4631462020A8472246A2EBCE
:1037F0000B034B45F5D3F0E72DE9F04385B099462F
:103800000C9D0D9C9DF83880DDF840E0119F129EC4
:1038100016F0020F21D17FB116F0010F0CD0B8F1D4
:10382000000F02D116F00C0F06D0013F04E04FF05C
:10383000300C05F804C00134744501D21F2CF6D9B0
:1038400016F0010F09D0BC4207D21F2C05D84FF04B
:10385000300C05F804C00134F2E716F0100F14D054
:1038600016F4806F04D11CB1744522D0BC4220D024
:103870000F9B102B33D00F9B022B3DD01F2C0ED84B
:103880004FF0300C05F804C001341F2C07D8B8F1F4
:10389000000F39D04FF02D0C05F804C00134039609
:1038A0000297019400954B46FFF767FF05B0BDE80E
:1038B000F083B4F1010C1DD00F9B102B0ED0644689
:1038C0000F9B102BD7D116F0200FD4D01F2CD2D89D
:1038D0004FF0580C05F804C00134CFE7023C16F055
:1038E000200FEDD11F2CEBD84FF0780C05F804C059
:1038F0000134C3E76446BBE71F2CD0D84FF0620CFD
:1039000005F804C00134B9E716F0040F05D04FF0F4
:103910002B0C05F804C00134C1E716F0080FBED027
:103920004FF0200C05F804C00134B8E7F0B591B0B1
:10393000169C189D1B9E0CB926F0100616F4806E7E
:103940001DD064B34FF0000E19E016F0200F24D004
:103950004127BC445FFA8CFCACF10A0C5FFA8CFC8A
:103960000EF101070EF1400EEE440EF820CCB4FB30
:10397000F5FCAC4214D31F2F12D8BE466446B4FBEC
:10398000F5FC05FB1C4C5FFA8CFCBCF1090FDCD884
:103990000CF1300C5FFA8CFCE2E76127D9E727468F
:1039A00006961A9C0594199C049403959DF85C4016
:1039B0000294019708AC0094FFF71EFF11B0F0BD10
:1039C0002DE9F04F95B009900A910B929846DDF8D9
:1039D00078B0DDF87C90229D239F269E5BEA090249
:1039E00001D126F0100616F4806424D05BEA0902A7
:1039F0002FD000241FE016F0200F28D041231344BD
:103A0000DBB20A3BDBB204F1010A04F150020DEB18
:103A1000020404F8203C2A463B46584649460AF030
:103A200067FDAB4579EB070915D3BAF11F0F12D823
:103A30005446834689462A463B46584649460AF03C
:103A400057FDD2B2092AD6D83032D3B2DBE7612390
:103A5000D5E74FF0000A0696259B0593249B049317
:103A600003959DF880300293CDF804A00CAB009331
:103A700043460B9A0A990998FFF7BEFE15B0BDE8B8
:103A8000F08F0000000000002DE9F04F93B00446D5
:103A90000D4617461E46DDE91CAB52465B465046B6
:103AA0005946FFF7A1F8002840F0F3804FF0FF32AD
:103AB000AD4B50465946FFF7F7F8002840F0E98033
:103AC0004FF0FF326FF4801350465946FFF7B0F8BD
:103AD000002840F0DE800022002350465946FFF7C0
:103AE000A7F8002840F0E680CDE906AB209B13F450
:103AF00080630F9301D106231E93DDE90623104650
:103B00001946CDE90A01079B52EA030100F0DC8067
:103B1000C3F30A50C3F31303904643F07F5949F4AB
:103B20004019A0F2FF30FFF717F87DA3D3E9002377
:103B3000FEF790FF7CA3D3E90023FEF763FFCDE9F6
:103B400008010022894B40464946FEF76FFF78A3E3
:103B5000D3E90023FEF77EFF02460B46DDE90801AC
:103B6000FEF750FFFFF71CF80890FEF7F5FF8046C0
:103B7000894671A3D3E90023FEF76CFF00227C4B3A
:103B8000FEF740FFFFF70CF80A906DA3D3E900237E
:103B900040464946FEF75EFF804689460A98FEF792
:103BA000DBFF69A3D3E90023FEF754FF02460B466F
:103BB00040464946FEF73AFF8046894602460B4694
:103BC000FEF748FFCDE90C010A9B03F2FF33002109
:103BD0000022CDE90A121B050B9300230A934246EB
:103BE0004B4640464946FEF70DFFCDE910014246DF
:103BF0004B4600204FF08041FEF718FF8046894673
:103C000000225C4BDDE90C01FEF74AFF00225A4B13
:103C1000FEF7F8FE02460B46DDE90C01FEF740FF19
:103C20000022564BFEF7EEFE02460B46DDE90C0184
:103C3000FEF736FF02460B4640464946FEF7E2FED7
:103C400002460B46DDE91001FEF72AFF00224C4B2D
:103C5000FEF7D8FEDDE90A23FEF7FCFE8046894622
:103C6000CDE90A89DDE90623FFF71EF850B1089B6C
:103C7000013B08930022404B40464946FEF710FFA7
:103C8000CDE90A01089B6333C62B46D84FF00408E0
:103C90001EE0209B04931F9B03931E9B0293CDE980
:103CA00000AB33463A462946204600F0FDF813B0F3
:103CB000BDE8F08F9FED267B8DED067BCDF818A03B
:103CC0000BF10043079311E7002308934FF004081A
:103CD000209B13F4006F5FD0DDE90A1213460B43FB
:103CE00013D01DA3D3E90023DDE90601FEF7C8FFC9
:103CF000002800F0B4801AA3D3E90023DDE906010F
:103D0000FEF796FF002800F0AA801E9A089B9A42B0
:103D100038DDD31A013B1E9336E04FF00508D7E794
:103D2000FB799F501344D33FB3C8608B288AC63FAA
:103D300061436F63A787D23F71A379094F930A400C
:103D40001655B5BBB16B0240EF39FAFE422EE63F85
:103D500000000000000000002D431CEBE2361A3F7B
:103D60000000000080842E41FFFFEF7F0000F83F3D
:103D70000000E03F00002C400000244000001840FC
:103D80000000F03F00231E93209B43F480632093A8
:103D90004FF00008CDF820801F9B984569D2A3EB17
:103DA0000809209B13F002030C9304D0B8F1000F14
:103DB00001D04FF00009089B3BB1DDE90A23DDE9A2
:103DC0000601FEF76DFECDE90601002200235046F4
:103DD0005946FEF72DFF00284ED1209B23F40063A7
:103DE0000493CDF80C901E9B02939DED067B8DED08
:103DF000007B33463A462946204600F055F8B8F194
:103E0000000F3FF454AF209B13F0200F3CD04FF035
:103E1000450C00F101093346024629466046A04799
:103E2000089981EAE172A2EBE1720523059308F19A
:103E3000FF330493002303930A230293CB0F0193D0
:103E4000009233464A4629462046FFF76FFD0C9BF9
:103E5000002B3FF42CAF0246DDF87C901EE01E9B49
:103E6000002B99D00F9B002B96D01E9B013B1E93DD
:103E700092E74FF0000994E7DDE90601024601F1FF
:103E80000043CDE90623A8E74FF0650CC1E702F136
:103E90000108334629462020A0474246D31B4B4504
:103EA000F5D3104603E700BF2DE9F04F2DED028B4F
:103EB00095B007900A9192469B46DDE92089229DA4
:103EC00042464B4640464946FEF78EFE002835D115
:103ED0004FF0FF326FF4801340464946FEF7A8FECC
:103EE00000283AD14FF0FF32B14B40464946FEF729
:103EF000DBFE002840D1AAA3D3E90023404649466F
:103F0000FEF7D2FE00284DD1A7A3D3E900234046F7
:103F10004946FEF78DFE002844D10022002340468A
:103F20004946FEF785FE00284AD100230B93249BC7
:103F300013F4806F00F0B580002454E0249B0393B9
:103F4000239B0293032301939A4B00935B465246B3
:103F50000A990798FFF711FC1BE1249B0393239B0D
:103F6000029304230193944B00935B4652460A99B3
:103F70000798FFF702FC0CE1249B13F0040F0ED00E
:103F80008E4B04222499039123990291019200936C
:103F90005B4652460A990798FFF7EFFBF9E0884B1A
:103FA0000322EFE7249B0493239B03930295CDE91F
:103FB00000895B4652460A990798FFF765FDE8E0DD
:103FC00042464B4600200021FEF730FD80468946E0
:103FD00001230B93ABE704F150036B44302203F849
:103FE000202C013D01341F2C01D8092DF3D8404667
:103FF0004946FEF7D5FD0646FEF7AEFD02460B46E6
:1040000040464946FEF712FD6E4B03EBC50393EDA8
:10401000008B53EC182BFEF71DFD02460B46CDE935
:104020000823FEF7CFFD0746FEF7A8FD02460B4624
:10403000DDE90801FEF7FAFC02460B46CDE908234C
:104040000022614BFEF730FE68B301373846FEF7B9
:1040500095FD02460B4651EC180BFEF7FDFD08B12D
:10406000013600276DBB3046FEF776FD02460B4653
:1040700040464946FEF7DAFC074688460022524B86
:10408000FEF7D6FD00284CD100224F4B3846414662
:10409000FEF70AFE002844D116F0010F41D0013688
:1040A0003FE0062548E70022474BDDE90801FEF71F
:1040B000BFFD0028D6D117B117F0010FD2D00137BC
:1040C000D0E71F2C17D8013D404BA3FB0723DB088B
:1040D000194603EB8303A7EB4303621C303304F15F
:1040E00050000DEB000404F8203C092F02D90F46C4
:1040F0001446E6E714461F2C0AD86B1E45B104F19E
:1041000050026A44302102F8201C1D460134F2E7B7
:104110001F2C06D804F150036B442E2203F8202CE8
:1041200001341F2C17D82A4A82FB0632F317C3EB3F
:10413000A2031A4603EB8303A6EB4303611C30334F
:1041400004F150000DEB000404F8203C16460AB1BF
:104150000C46E6E70C46249B03F00303012B39D001
:104160001F2C09D80B9B002B51D004F150036B443A
:104170002D2203F8202C0134249B0393239B0293CC
:1041800001940CAB00935B4652460A990798FFF7DF
:10419000F4FA15B0BDEC028BBDE8F08FAFF30080F0
:1041A0000000000065CDCD410000000065CDCDC10F
:1041B000FFFFEF7FC4EF0010C8EF0010B8EF001052
:1041C000C0EF0010A8F800100000E03FCDCCCCCC30
:1041D00067666666239BB3B10B9B1BB9249B13F0E8
:1041E0000C0F12D0239B013B2393194606E004F1E8
:1041F00050036B44302203F8202C01348C42AFD2A0
:104200001F2CF4D9ACE72399F8E72399F6E7249B10
:1042100013F0040F07D004F150036B442B2203F872
:10422000202C0134A8E7249B13F0080FA4D004F13C
:1042300050036B44202203F8202C01349CE700BF7C
:104240002DE9F04F8FB0804617460D93894600291F
:1042500000F04F83002508E06C1C3B462A46494687
:10426000C0470D9B01330D9325460D9B1878002800
:1042700000F042832528EFD101330D9300261FE083
:1042800046F0010601320D92012318E046F00206C5
:1042900001320D92012312E046F0040601320D9224
:1042A00001230CE046F0080601320D92012306E0DE
:1042B00046F0100601320D92012300E000234BB3BB
:1042C0000D9A1378203B102BF8D801A151F823F058
:1042D000A5420010BD420010BD420010B1420010C6
:1042E000BD420010BD420010BD420010BD42001092
:1042F000BD420010BD420010BD42001099420010A6
:10430000BD4200108D420010BD420010BD420010A1
:10431000814200100A930D9B1A78A2F13003DBB2A0
:10432000092B18D92A2A1BD00A9B0B930D9B1A78AC
:104330002E2A25D00D9A1378683B122B5CD8DFE823
:1043400003F0495BAC5B3B5B5B5B5B5B5B5B575B65
:104350005B5B5B5BB1000DA8FFF7FCF90B90E5E739
:10436000189B1A1D18921B68002B04DB0B930D9BE6
:1043700001330D93DAE746F002065B420B93F6E752
:1043800046F480665A1C0D925A78A2F13003DBB2D3
:10439000092B0CD92A2ACDD1189B1A1D18921C68FA
:1043A00024EAE4730A930D9B01330D93C2E70DA831
:1043B000FFF7D0F90A90BDE746F48071531C0D93C6
:1043C00053786C2B01D00E4616E046F4407602324C
:1043D0000D9211E046F08001531C0D935378682B29
:1043E00001D00E4608E046F0C00602320D9203E00E
:1043F00046F4807601320D920D9B1878672856D8C6
:104400002528C0F06C82A0F12503422B00F26782C0
:10441000DFE813F05A026502650265026502650273
:104420006502650265026502650265026502650254
:104430006502650265026502650265026502650244
:104440006502650265026502650265026502650234
:1044500065026502880168018801650265026502DE
:104460006502650265026502650265026502650214
:1044700065026502650265026502710065026502FA
:1044800065026502650265026502650265027100EA
:10449000AF01710088016801880146F4007601329D
:1044A0000D92A9E746F4807601320D92A4E77828B0
:1044B00000F215826928C0F01282A0F16902D2B21E
:1044C0000123934049F24102134214D113F0800FAB
:1044D00040F0DF8113F4806F00F00182189B1A1DF9
:1044E0001892D3F800A00A9B002B40F090814FF067
:1044F000FF32534674E16F283DD005D858283CD090
:10450000622803D1022304E0782838D026F0100670
:104510000A23582835D0692803D0642801D026F012
:104520000C0616F4806F01D026F0010669282BD006
:10453000642829D016F4007F40F0968016F4807F1E
:1045400040F0AE8016F0400F00F0BF80189A111DA9
:104550001891127805960B9904910A990391029388
:104560000023019300923B462A4649464046FFF706
:10457000DDF9054629E00823CBE71023C9E710231E
:10458000C7E746F02006C6E716F4007F21D116F4EF
:10459000807F42D116F0400F58D0189A111D189103
:1045A000127882EAE271A1EBE27105960B98049011
:1045B0000A9803900293D20F019200913B462A463B
:1045C00049464046FFF7B2F905460D9B01330D936E
:1045D0004BE6189A073222F0070202F108011891FF
:1045E000516812680846002913DB08960B9C079453
:1045F0000A9C0694049300230593C90F029100922C
:1046000001903B462A4649464046FFF7D9F9054600
:10461000DBE7524261EB4100E7E7189A111D189160
:10462000126882EAE271A1EBE27105960B980490A0
:104630000A9803900293D20F019200913B462A46BA
:1046400049464046FFF772F90546BEE716F0800F6F
:1046500005D0189A111D1891B2F90020A1E7189AF7
:10466000111D189112689CE7189A073222F0070270
:1046700002F10801189108960B9907910A99069181
:104680000021049305910291D2E90023CDE9002392
:104690003B462A4649464046FFF792F9054694E7CD
:1046A000189A111D189105960B9904910A99039176
:1046B000029300230193136800933B462A46494620
:1046C0004046FFF733F905467FE716F0800F04D028
:1046D000189A111D189112883CE7189A111D18910B
:1046E000126837E746281AD0189B073323F00703D0
:1046F00003F10802189204960B9A03920A9A029206
:10470000D3E90023CDE900233B462A4649464046EB
:10471000FFF7CAFB05460D9B01330D93A5E546F057
:104720002006E1E7672801D0472801D146F400665A
:10473000452801D0472801D146F02006189B0733B1
:1047400023F0070303F10802189204960B9A0392D0
:104750000A9A0292D3E90023CDE900233B462A4678
:1047600049464046FFF790F905460D9B01330D93EE
:104770007BE516F002061CD001241898031D18933F
:1047800005F1010A3B462A4649460078C047AEB9C2
:104790000D9B01330D93554667E5551C3B46494635
:1047A0002020C04723462A465C1C9A45F5D815466A
:1047B000E3E70123DDF82CA02A46F5E75246DDF8B1
:1047C0002CA006E0561C3B4649462020C0472C46FC
:1047D0003246651CA245F5D89246D9E701330A4610
:1047E000197811B1511E002AF8D1A3EB0A0316F46F
:1047F000806B03D00A9A934228BF134616F0020436
:1048000007D00C940A9E2A465D469B4623E00A9AEE
:104810006FE6CDF830B02A4625460B9C07E002F142
:10482000010B3B4649462020C04733465A465E1C92
:104830009C42F4D8DDF830B02C4633460C940A9EE6
:104840005D469B4607E01E460AF1010A541C3B46A2
:104850004946C04722469AF8000020B1002DF3D007
:10486000731E002EEFD10C9C15465B461CB90D9BA8
:1048700001330D93F9E40B9E06E0551C3B46494677
:104880002020C04723462A465C1C9E42F5D8154688
:10489000EDE746F02106189B1A1D18921B68059635
:1048A000082204920A9A0392102202920022019294
:1048B00000933B462A4649464046FFF737F80546EF
:1048C0000D9B01330D93D0E46C1C3B462A464946B0
:1048D0002520C0470D9B01330D932546C5E46C1C74
:1048E0003B462A464946C0470D9B01330D9325465A
:1048F000BBE4DFF82080ADE4BD4208D37A1E3B461E
:1049000049460020C04728460FB0BDE8F08F2A4630
:10491000F5E700BF4537001000B585B00290039160
:10492000009313464FF0FF3202A90348FFF788FCBB
:1049300005B05DF804FB00BF4737001000BEFDE77F
:104940000346094A126842B1074A10680344074AFD
:10495000934206D8044A13607047034A0449116021
:10496000F2E74FF0FF307047D82B002000000820FE
:104970006839002008B538B908461146044BD3E918
:10498000002300F035F908BD4FF0FF30FBE700BF12
:1049900030F80010431E012B09D810B50846144604
:1049A00001230022214600F0DDF8204610BD4FF023
:1049B000FF3070474FF0FF3070474FF0FF307047C7
:1049C0004FF0FF30704702288CBF00200120704755
:1049D00008B5FFF7B3FF000000B583B08C46194659
:1049E0005AB11446064B01940093634602460548AB
:1049F00000F08CF90120FFF7A1FF034B1C46F2E702
:104A0000D0EF0010E0EF0010D4E5001010B5EFF388
:104A10000583DBB203B100BEFDF7E2FE044C02E009
:104A200054F8043B9847034B9C42F9D310BD00BF98
:104A300060E500106CE5001008B5034608461B68E9
:104A40001146984708BD0000F8B507460D461646C2
:104A5000437D13B1002420460CE00368114628462C
:104A600098472EE03B7D10E03B68022115489847AF
:104A7000601C0134B44214DA002CF3DD2B1913F856
:104A8000013C0D2B14BF002301232A5D0A2AF0D11B
:104A9000002BEED1A042E7DA3B68211A2844984760
:104AA000E2E7B04203DA3B68311A28449847002E07
:104AB00007DD354415F8013C0D2B14BF00230123FD
:104AC0003B75F8BDF8F8001038B50368BBB1054672
:104AD0000B4B1C6806E0294651F8042B2046FFF7D3
:104AE000B3FF24694CB12368002BFAD0054B1B6837
:104AF000002BF0D0A342F4D1EDE700232B6038BDAA
:104B0000B0280020D42B002038B505460C460B6891
:104B1000802B05D023685A1C22601C44257138BDA7
:104B20000846FFF7D1FFF5E708B5FDF7F9FC074A9E
:104B3000821841F10003002B03DB054809F0E8FC73
:104B400008BD4FF0FF326FF00043F6E740420F0020
:104B50006819002008B5024809F0CEFC08BD00BF66
:104B6000681900202DE9F04383B006460D469046B3
:104B70001C46FFF7D9FF8146B5F1FF3F04D044B191
:104B8000174F184B1C6807E0304604F037FE054607
:104B9000F5E7154FF5E72469BCB12368002BFAD07F
:104BA000124B1B680BB1A342F5D12A463146204671
:104BB000B847B8F1000FEED00A238DF80730012274
:104BC0000DF107012046B847E5E7B9F1000F03D121
:104BD000284603B0BDE8F083FFF7BCFFF8E700BF4D
:104BE000494A0010B0280020394A0010D42B002078
:104BF0002DE9F84307460E4691469846144B1C682B
:104C000007E0A36823B131463846984700281CDCEA
:104C1000246934B10F4D2D68002DF2D0A542F7D193
:104C2000EFE70D4B5B6A984508D80B4A926A4A45F4
:104C300009D2984502D06FF0010006E00120002162
:104C4000FDF776FCDAE76FF00100BDE8F88300BFFE
:104C5000B0280020D42B002000000B40094A136824
:104C600002E003F110021B6943B113688342F8D1DB
:104C700031B90369136000230361704701B110600B
:104C8000704700BFB028002010B5054B1C6800E03D
:104C9000246924B16368002BFAD09847F8E710BD67
:104CA000B028002008B500F06DF808BD38B50546FD
:104CB00004F0A4FD044601231A4601462846FFF7E6
:104CC00051FFFFF7E1FF204638BD0000F0B5A3B06B
:104CD00004460E46FFF728FF05460023019301AF67
:104CE0003346224639460848FFF716FE0446384642
:104CF000FFF7EAFEFFF7C8FF15B9204623B0F0BD65
:104D0000FFF728FFF9E700BF094B00100FB400B50B
:104D100083B004A951F8040B0191FFF7D7FF03B04A
:104D20005DF804EB04B07047024B1860024B196049
:104D3000704700BF282800202C28002008B5FDF768
:104D4000EFFB0E4A821841F10003002B11DB0C48E7
:104D500009F0DEFB60B100214FF0FF3001F06AF98D
:104D6000002002F00FFC0028F5D1054809F0C4FB33
:104D700008BD4FF0FF326FF00043E8E740420F00FC
:104D80004439002010B54FF050431C68FDF70AFA73
:104D9000FDF7ECFAA0420DD10E4B1B7800F062FD3E
:104DA00070B10D4B1B688BB101210C48FFF756FF0A
:104DB000012010BD0A4B0B4AC1210B48FFF70CFE26
:104DC0000A4B084ACC210848FFF706FE0248FCF7C8
:104DD0007DFFE9E774FE00104439002054120020E2
:104DE00010F0001008F9001018F0001068F0001022
:104DF00008B5002002F086FB08BD000038B5044667
:104E00000D46FFF7F5FF90B3002002F095FB88B345
:104E1000FDF786FB1A4A821841F10003002B16DBCE
:104E2000184809F075FB40B3FFF7E2FF18B1002006
:104E300002F082FB80B900214FF0FF3001F0FAF858
:104E40006FF002040F4809F057FB204638BD4FF0C1
:104E5000FF326FF00043E3E72A462146002002F0CC
:104E600077FB04460028EDD16FF00204EAE76FF00B
:104E70000204EAE76FF00204E7E76FF00204E4E7F8
:104E800040420F0044390020F8B507460D46FDF7B3
:104E900047FB2E4A821841F10003002B04DB2C480B
:104EA00009F036FB28B9F8BD4FF0FF326FF0004330
:104EB000F5E7FFF79DFF002845D1264B0020002194
:104EC000C3E90001224809F017FBECE700214FF08D
:104ED000FF3001F0AFF8002002F054FBFFF788FF2D
:104EE0000028EFD0002002F0CBFBF8B1AC42E9DAA9
:104EF0002E1B002002F0C4FB864200DC3046002856
:104F0000E4D002463919002002F098FB0646002141
:104F10004FF0FF3001F08EF8002002F033FB3444F4
:104F2000FDF7FEFA0B4BC3E90001DFE7FDF7F8FAE6
:104F3000084A13685268084E9B1942F100028342E6
:104F40008A41D3D2BEE70024D0E700BF40420F0021
:104F500044390020F81A002020A1070000B58BB0CA
:104F600045F24730FDF7ECFB03460122092101A879
:104F70009847042801D100230EE00A4B0A4A292150
:104F80000A48FFF729FDC3F10F0228326A4412F8DC
:104F9000241C074AD1540133072BF4DD0BB05DF814
:104FA00004FB00BF8CF0001018F9001094F0001002
:104FB000243300200346024A03CA18605960704730
:104FC0002433002030B400F07F05C3094FEA450CBC
:104FD0000CEBD01C244C04EB4C1C8CF8020083F02E
:104FE00001008CF8010000208CF80300ACF81810C8
:104FF0008CF81B20DBB9EA001C49114403EB450087
:10500000194A02EB4012916003EB4501164A02EB8C
:1050100041129268002111607DB903EB4502124BE9
:1050200003EB42135960124ADA6030BC70471149F1
:1050300001EBC501CCF80810E6E753B96A1ED200AF
:105040000D49114403EB4503074A02EB4313596032
:10505000EBE7691E094A02EBC10203EB4501024B73
:1050600003EB41135A60E0E7DC2B00208400105072
:1050700000011050800010500C001050080010501B
:1050800008B5038B3F3323F03F03C27E022A08D0CA
:1050900008490A68C26013440B60074A934202D869
:1050A00008BD5B00F4E7054B054A52210548FFF7B0
:1050B00093FC00BFE8320020FF0F1050E4F0001016
:1050C0007CF9001028F1001070B500F07F054FEA60
:1050D000450C0CEBD0130C4C04EB4314FFF772FFA0
:1050E00005B970BD218B2046FFF7CAFFE27EE36859
:1050F00083F0A04383F4801343EA826343F00043C8
:1051000062681360EDE700BFDC2B002008B500F0FB
:105110007F035B0003EBD010024B03EB401000F069
:1051200077F908BDDC2B002008B520B901210E203D
:10513000FCF7EEFB08BD034B034A40F2971103480E
:10514000FFF74AFC9CF100106CF9001028F10010E8
:1051500008B528B9002211468020FFF7D7FF08BD07
:10516000034B044A40F2A1110348FFF735FC00BF8E
:105170009CF100105CF9001028F10010024B4FF474
:105180008032DA64704700BF0020115070B548BB10
:10519000064600F01DF9174C0C23A367FF221649A1
:1051A0000E20FCF7F7FB40252A460021134804F0A7
:1051B00033FA002229461046FFF786FF00222946CF
:1051C0008020FFF781FF09F08BF9012525644FF05E
:1051D0000053E3640A4BC4F890303046FFF7CEFF2B
:1051E000284670BD074B084A40F263110748FFF795
:1051F000F3FB00BF00001150F1030020DC2B002066
:1052000010D001009CF1001090F9001028F100105E
:10521000044B197021B1044B4FF40032C3F89020B5
:10522000704700BF60390020002011500B7813F048
:105230007F0F02D14B78052B00D070474B88DBB233
:10524000014A1360F9E700BF00001150CA7802F06C
:105250000302012A09D008B50B468988C1F30A0167
:105260009878FFF731FF012008BD0020704700004B
:1052700038B50846144601F07F035B0003EBD113F9
:10528000064D05EB431501222146FFF79BFE214603
:105290002846FFF7F5FE012038BD00BFDC2B0020BB
:1052A00038B50C468D7889881B48FFF72FFD012201
:1052B000A1882846FFF786FE05F07F00420002EB3A
:1052C000D512164B03EB4213DB68A3B1E909A4889E
:1052D00001EB4001114A02EB41121483D17E83F0AD
:1052E000A04383F4801343EA816343F00043526890
:1052F0001360012038BD40F2092209490948FFF72F
:1053000005FD4FF0E023D3F8F03D13F0010F00D07E
:1053100000BE0020EEE700BFA8F10010DC2B00204B
:1053200044F900106CE7001008B509F0D9F808BD81
:1053300010B530B9084611461A46FFF7E7FE0120BE
:1053400010BD034B034A4FF406710348FFF744FBBB
:105350009CF1001034F9001028F1001008B511F08C
:105360007F0304D1CA090ED10220084A90665B006F
:1053700003EBD1134FF400620021054800EB43100A
:1053800009F0C2F808BD0120EFE700BF002011506E
:10539000DC2B002008B511F07F0300D108BD5B00B5
:1053A00003EBD113044800EB43100022C2706FF4EA
:1053B000006109F0A9F8F1E7DC2B002004E011F806
:1053C000012B00F8012B1A46531E002AF7D1704713
:1053D00008B54FF080530A4A136002F580521360FB
:1053E000084B9B6813F0805FFAD04FF48052002185
:1053F000054804F011F9054B09225A6708BD00BFA2
:105400000020024000000240000010500000115037
:1054100070B504460D461646837EABB9A6820023BE
:10542000E3820123A3762561204609F051F820B1DB
:105430000B4B4FF40032C3F89020204609F06CF873
:1054400050B10123237770BD81780648FFF75EFCD9
:10545000204609F035F8E1E7204609F03DF8F2E78B
:1054600000201150B0F200100368EFF3108272B602
:10547000D3E8CFCF0121BCF1000FF9D1C3E84C1F15
:10548000BCF1000FF4D1BFF35F8F42607047002082
:105490007047000038B50546002408E0D21A1B4BBF
:1054A00003EB4213DB68284698470134E4B2184BFB
:1054B0001B782246991CA14215DBA342EED9154B5D
:1054C0001B6813EB4413EDD140F225221249134817
:1054D000FFF71CFC4FF0E023D3F8F03D13F0010F71
:1054E00013D000BE11E00E4C54220021204604F0DF
:1054F00093F84FF0FF336360A360E36023612022E1
:10550000FF2104F1140004F087F838BD90FA001070
:105510005F390020881C00205CFA00106CE7001046
:105520004420002008B5FFF7B5FF00F0BDFF08BD1F
:1055300070B505460C461646486900F0BFFF636922
:10554000324601212846984770BD00002DE9F04FF2
:1055500083B08246481EC0B2FCF70CF820B18346E7
:1055600043780193022B11D040F2D632644965484A
:10557000FFF7CCFB4FF0E023D3F8F03D13F0010F21
:1055800000D000BE002003B0BDE8F08FC279C2F3A6
:1055900040105D4B197860F304111970C2F380124A
:1055A000C9B262F3451119700BF10908BBF802305A
:1055B0009B4480E098F8033098F80020904482E003
:1055C00040F2F1324E494F48FFF7A0FB4FF0E02385
:1055D000D3F8F03D13F0010F00D000BE0020D2E759
:1055E000F31A4A4A02EB4319D9F810302A464146C9
:1055F00050469847082801D985421ED20134E4B2AA
:10560000434B1B7826469A1CA2424FDBA342E7D9A4
:10561000404B1B6813EB4419E6D140F2FA3238498B
:105620003848FFF773FB4FF0E023D3F8F03D13F059
:10563000010F00D000BE0020A5E73B464F46814643
:10564000012B11D000218B4229D998F802200A445D
:10565000D2B22D4810440079FF2810D12A480244C4
:1056600014710131C9B2EEE73A692B498A4204D07C
:105670002A498A42E6D1019BE4E7019BF8E740F220
:1056800019421F491F48FFF741FB4FF0E023D3F8B1
:10569000F03D13F0010F00D000BE002073E7234659
:1056A0004A4641461E4802F0F7FEC844184B1B7894
:1056B00002339E4212DCD84520D298F801300B2BE1
:1056C0003FF478AF012398F80120042A7FF478AFE3
:1056D000ABEB0805ADB200241F4691E74FF485629D
:1056E00007490848FFF712FB4FF0E023D3F8F03DDD
:1056F00013F0010F00D000BE002044E7012042E774
:1057000030FA00106CE700104420002090FA0010DE
:105710005F390020881C0020F97700108980001074
:1057200058200020704770470020704700207047C5
:105730000020704738B505460C464B881A0AD8B287
:10574000531E0E2B64D8DFE803F0082D4E63635917
:105750002D636363636363632200FBF707FF024605
:1057600028B112232146284600F048FE51E040F2BD
:105770003A422C492C48FFF7C9FA4FF0E023D3F8FE
:10578000F03D13F0010F00D000BE002041E0FFF714
:10579000CBFF024600283DD043882146284600F032
:1057A0002DFE36E0022A09D0FFF7C2FF024698B369
:1057B00053882146284600F021FE2AE0FBF7DAFE56
:1057C00002460028F4D140F2614216491648FFF71C
:1057D0009DFA4FF0E023D3F8F03D13F0010F00D015
:1057E00000BE002015E0A188FBF7C8FE0246A8B164
:1057F00003782146284600F001FE0AE0FFF796FFF5
:10580000024668B103782146284600F0F7FD00E023
:10581000002038BD0020FCE70020FAE70020F8E770
:105820000020F6E718FA00106CE700107047704788
:1058300070477047014B9878704700BF44200020A4
:10584000034B5878C0B2003818BF0120704700BF22
:1058500044200020024B1878C0F38000704700BF3E
:1058600044200020024B1878FF3818BF01207047F1
:1058700088120020F8B506460D46FFF7F3FF0746ED
:10588000002854D105B354220021374803F0C4FE48
:10589000364B00221A70364C2046FCF717FA354B6F
:1058A0001C60354C2046FCF75BFA143C204603F0A4
:1058B00060F8324B1C60324B23B13248AFF30080AA
:1058C000314B1860002417E04FF4E9722F4930483B
:1058D000FFF71CFA4FF0E023D3F8F03D13F0010F6F
:1058E00025D000BE23E0D21A2A4B03EB42135B689B
:1058F0007BB198470134E4B2224B1B782246991CB5
:10590000A14216DBA342EED91F4B1B6813EB4413D5
:10591000EDD14FF4F8721D491D48FFF7F7F94FF02C
:10592000E023D3F8F03D13F0010F00D000BE38465D
:10593000F8BD194B1E7029463046FFF727FC074675
:1059400018B13046FFF7F0FBF1E74FF4FC720F4956
:105950000F48FFF7DBF94FF0E023D3F8F03D13F0E9
:10596000010FE4D000BEE2E74420002061390020AE
:105970003C20002098200020801200209C20002045
:10598000000000005F390020881C002080FA001011
:105990006CE7001090FA00108812002070B51A4BC6
:1059A0001E788B7813F0700F0ED10C46174B997838
:1059B000204602F001FD0546B0B121463046FFF712
:1059C00045FC0546284670BD40F20B52104911486F
:1059D000FFF79CF94FF0E023D3F8F03D13F0010FEF
:1059E00000D000BE0025EDE740F20C5208490948FE
:1059F000FFF78CF94FF0E023D3F8F03D13F0010FDF
:105A0000E0D000BEDEE700BF881200204420002066
:105A1000E8F900106CE700102DE9F84F80460C46BD
:105A200016461F46DDF82890DDF82CA0002526E05C
:105A300040F2E7421F492048FFF768F94FF0E023A2
:105A4000D3F8F03D13F0010F00D000BE4FF0000B73
:105A50005846BDE8F88F4FF49D6216491648FFF787
:105A600055F94FF0E023D3F8F03D13F0010FEFD0DC
:105A700000BEEDE78AF8003023781C440135AE42C1
:105A800014DD6378052BD3D1E17801F00301B9422D
:105A9000CED121464046FFF781FF83460028DAD069
:105AA000A378DA09E6D189F80030E5E74FF0010B79
:105AB000CEE700BFF8F900106CE7001008B501F060
:105AC0007F00400000EBD1103030044B1844044BF1
:105AD0001968043002F02AFC08BD00BF44200020F1
