:020000041000EA
:10000000002008205D0100101301001015010010F0
:100010001101001011010010110100101101001058
:100020001101001011010010110100101701001042
:100030001101001011010010190100101B01001026
:100040001D0100101D0100101D0100101D010010F8
:100050001D0100101D0100101D0100101D010010E8
:100060001D0100101D0100101D0100101D010010D8
:100070001D0100101D0100101D0100101D010010C8
:100080001D0100101D0100101D0100101D010010B8
:100090001D0100101D0100101D0100101D010010A8
:1000A0001D0100101D0100101D0100101D01001098
:1000B0001D0100101D0100101D0100101D01001088
:1000C0001D0100101D0100101D0100101D01001078
:1000D0001D0100101D0100101D0100101D01001068
:1000E0001D0100101D0100101D0100101D01001058
:1000F0001D0100101D0100101D0100101D01001048
:100100001D0100101D0100101D0100101D01001037
:1001100000BE00BE00BE00BE00BE00BEEFF3058004
:10012000103800BEF2EB8871507901107879011017
:10013000A801001090A31AE7D3DEFFFF42012110AF
:10014000FF010000489F0100793512AB4FF000001D
:100150002049086006C881F3088810474FF05040D6
:10016000006810B14FF00000F2E70FA40ECC002998
:1001700002D000F015F8F9E71749184A002000E00E
:1001800001C19142FCD1002080F30A8814498847BC
:10019000144988471449884700BEFDE701C901C2D8
:1001A0009A42FBD3704700BF7879011010010020FC
:1001B0001828002080A0011000000820000008205E
:1001C00080A001100010082000100820000000008E
:1001D0007047000008ED00E018280020FC490020CE
:1001E000BD4D00102D030010814D0010F8B500BF6B
:1001F000064B0749C91A891048BF0131491003D07D
:10020000044B0BB101481847704700BF1828002065
:10021000182800200000000008B5054B1BB1054957
:100220000548AFF30080BDE80840FFF7E1BF00BF1D
:1002300000000000804300201041011008B502F0CA
:10024000E5FC29B14FF47A72002313F005FF08BDD5
:10025000024BA3FB00308009F9E700BFD34D6210C9
:1002600080B507E0254A136801331360244B1B78DF
:10027000002B3CD1FFF7E2FF224B1B68C01AB0F500
:100280007A7FEFD3FFF7DAFF1E4B18601E4C1F4E2C
:10029000226831681E4804F011FF184D29681D4876
:1002A00004F00CFF00232B601B4901220A701B4D38
:1002B000D5ED007AF8EE676A1948D0ED007AB8EE0D
:1002C000677AC6EE877A174AC2ED007AD4ED007AD3
:1002D000F8EE677A144AC2ED007A2A680768B2FB22
:1002E000F7F232602B60036023600B70BAE700F016
:1002F00077F9034B00221A70BCE700BFE4380020F6
:10030000F7490020E838002070430020A43800207E
:10031000104101102C410110F6490020D831002075
:10032000DC310020383900207443002000B583B050
:1003300008F02FFD00F080F900F032F92B4B1B88FC
:10034000ADF8043001A9002008F094F904F082FE11
:10035000FFF774FF264B1860264808F0BFFD21E028
:10036000FFF76CFF224D2860234C2168234804F0DE
:10037000A5FE2968224804F0A1FE00F0C9FC002374
:1003800023601CE0FFF75AFF1E4B18601E4B1878C5
:1003900080F00100187000F05AF919E0164A13684D
:1003A0000133136000214FF0FF3006F01BF8FFF718
:1003B00045FF0F4B1B68C01AB0F57A7FD0D2FFF70C
:1003C0003DFF104B1B68C01A104B1B689842D9D8D0
:1003D000FFF734FF0E4B1B689842DFD0FFF72EFF6C
:1003E0000B4B186000F070FCD8E700BFDC61011017
:1003F000E849002061020010E04900204C41011052
:100400006C410110A8380020FB490020CC210020BD
:10041000E449002038B500F0BFF80A4C226864684F
:10042000824274F1000C06D3501C44F10001054BCC
:100430001860596038BD00252946024A1060556091
:10044000F8E700BF28280020F8B50446084613F056
:10045000EFFD42A3D3E9002302F072FE03F000F99E
:10046000DFF800C1384F1CEB000247EB010182EAC4
:100470005102364E364D05FB02F306FB0133A2FB5B
:1004800006210B44110F41EA03114A4083EA137E0F
:100490003049314800FB02F301FB0E33A2FB012E71
:1004A0007344236013EB0C0347F1000283EA520309
:1004B00005FB03FE06FB02EEA3FB063296441A0F71
:1004C00042EA0E125A408EEA1E7E00FB02F301FB46
:1004D0000E33A2FB012E7344636013EB0C0347F150
:1004E000000283EA520305FB03FE06FB02EEA3FBB8
:1004F000063296441A0F42EA0E125A408EEA1E7EC7
:1005000000FB02F301FB0E33A2FB012E7344A36038
:1005100013EB0C0347F1000783EA570303FB05F5D0
:1005200006FB0755A3FB063635441A0F42EA0512AF
:10053000534085EA157503FB00F001FB0500A3FBA2
:1005400001310844E060F8BDB979379EF505977927
:10055000EDD9A962B3358CC8A5D024CB000000002A
:1005600080842E41157C4A7F10B50446FFF752FF68
:1005700003F05BF901462046FFF766FF10BD00005F
:1005800008B50248FFF7F0FF08BD00BFCC290020E6
:1005900008B5FFF7F5FF08BD002070470000000018
:1005A00000B585B04FF4E36003F07AFA00220A4BFD
:1005B000CDE902230022094BCDE9002304A3D3E9AE
:1005C000002301F051F805B05DF804FBAFF30080A3
:1005D000000000000070E7400000104000003040C4
:1005E00008B502F013FB0D4B186059600C4B1B78DB
:1005F00093B90C4B9B6A1B1A0B4A13600B490A6890
:100600001A440A600A490A6801320A60094A1268F3
:10061000934201D9074A136008BD00BFB8290020E2
:10062000F649002000000B4034390020D83100206A
:10063000DC3100207043002008B5192001F0A6FB32
:1006400019234FF0010242EC4430002008BD192369
:1006500040EC40307047000008B502F0D7FA29B1ED
:100660004FF47A72002313F0F7FC08BD024BA3FB92
:1006700000308009F9E700BFD34D621038B5054658
:10068000FFF7EAFF044604E000214FF0FF3005F0D9
:10069000A9FEFFF7E1FF001BA842F5D338BD704764
:1006A00030B591B00446002007F004F908B911B044
:1006B00030BD002007F018F90028F8D04022694624
:1006C000204607F01DF902466946204607F08EF9DC
:1006D000204607F02FF9002008F065FB3220FFF7D5
:1006E000CDFF012008F05FFB3220FFF7C7FF00209D
:1006F00008F059FBDBE7000008B5487902280FD164
:100700004B78012B46D191F803C0BCF1010F16D0F4
:10071000BCF1020F37D1CB88022B21D000203AE068
:10072000B0221D491D4804F0C9FC4FF0E023D3F866
:10073000F03D13F0010F00D000BE00202BE0CB886D
:10074000012B01D0002026E0887892F90020144B7C
:100750001A5489785A56134804F0B0FC01201AE064
:100760008878B2F90020104B23F81020897833F9EB
:100770001120002A05DB12120C4804F09FFC012016
:1007800009E0FF32F7E762460146094804F096FCAB
:10079000002000E0002008BDFC6101109041011024
:1007A00078430020A8410110EC490020C441011009
:1007B000E441011008B5487904280CD14B78012B8D
:1007C00027D191F803C0BCF1010F1BD1CB88042BBA
:1007D00010D000201EE072220F49104804F06EFC79
:1007E0004FF0E023D3F8F03D13F0010F00D000BE2E
:1007F00000200FE011680A4B19600A4804F05EFC03
:10080000012007E062460146074804F057FC00203B
:1008100000E0002008BD00BFE06101109041011020
:10082000D0210020384201105842011070B58AB022
:100830000C46497904290CD10546E278012A17D0E3
:10084000022A5AD06378354804F038FC00200AB0F8
:1008500070BD44223249334804F030FC4FF0E023AD
:10086000D3F8F03D13F0010F00D000BE0020EEE7FA
:100870006378012B11D0022BE4D100260396049655
:100880000596069607960896ADF824600221ADF805
:100890000C10254804F012FC26E0244E3168244850
:1008A00004F00CFC33680393042303AA2146284672
:1008B00006F02EFFCBE71F4B53F8262006EB460130
:1008C0000AAB03EB810141F81A2C41F8162C0023E6
:1008D00021F8123C21F8103C00931346314616488B
:1008E00004F0ECFB0136F6B2012EE4D91A2303AA78
:1008F0002146284606F00CFFA9E76378012BA1D119
:1009000001268DF80C6031460C4804F0D7FB3346C5
:1009100003AA2146284606F0FBFE98E71043011083
:100920004462011090410110C4420110D021002006
:10093000A442011064620110E0420110F84201106B
:1009400070B584B00C464979022911D10546E27888
:10095000012A1CD0022A04D16378022B29D0012B52
:100960003DD06378294804F0A9FB002004B070BD95
:100970008A222749274804F0A1FB4FF0E023D3F84F
:10098000F03D13F0010F00D000BE0020EEE76378C9
:10099000012BDFD1A178204B5A568DF808201F4833
:1009A00004F08CFB012302AA2146284606F0B0FE83
:1009B000DCE71B4B02AE93E8030086E8030001234B
:1009C000009300236FF03102A178164804F076FB03
:1009D000082332462146284606F09AFEC6E7A1784B
:1009E000114B33F91130ADF808301A46002B0ADBF1
:1009F00012120E4804F062FB022302AA2146284686
:100A000006F086FEB2E703F1FF02F1E7C8430110EA
:100A10002062011090410110784300205C430110D6
:100A20006C62011078430110EC490020A8430110CA
:100A300008B50A464979042908D002290AD0537812
:100A4000D278064804F03AFB002008BD1146FFF7B3
:100A5000EDFEFAE71146FFF773FFF6E71C440110BD
:100A600008B58C46497902290AD004290CD09CF893
:100A700001309CF80320064804F020FB002008BD4C
:100A80006146FFF739FEFAE76146FFF793FEF6E7A6
:100A9000604401108B88DBB24A88D2B2012B01D0AE
:100AA00001207047002AFBD1024B4FF47A721A6082
:100AB000F6E700BFCC2100208A88D2B24B88DBB297
:100AC000012A0AD0094A0021116023B1013B084ADA
:100AD000D25C084B1A70012070471BB9034B0022EF
:100AE0001A60F8E7044A19211160EBE7D4490020A5
:100AF00060620110F9490020CC21002038B50C4675
:100B0000264D0A462946002006F01AFC244B1860A0
:100B100000232449AC4635E0604630F9042B07EE4B
:100B2000902AF8EEE77A9FED207A67EE877A1F4ADF
:100B300002EB8302C2ED007ABCF9022007EE902A94
:100B4000F8EEE77A67EE877A194A02EB8302C2ED84
:100B5000007A184A02EB8302D2ED007AFEEEE87AC0
:100B60008C4617EE902A2CF8042B134A02EB830EC6
:100B7000DEED007AFEEEE87A17EE902A4A80013325
:100B8000614684462F2BC7DD22460649002006F029
:100B9000EFFB0120094B187038BD00BFC443002093
:100BA000D4490020E437002000000038E431002060
:100BB00064330020E434002064360020F74900202C
:100BC0000120704770B588B004460D461D4B5BB1DF
:100BD00010210DEB010008F0EAF86E08B0EB550F9C
:100BE00000D80646002524E0174B049303F1883310
:100BF00005930820F1E7154BEE460FCB8DE80F006B
:100C000005F120036B4413F8103C4FEA8C021341AA
:100C100003F00F03CCEB4502013220336B4413F891
:100C2000203C24F812300CF1010CBCF1010FE2D988
:100C30000135AE4202D94FF0000CF6E7700008B063
:100C400070BD00BFAF8D001001234567A4440110A3
:100C500000487047586401100048704778620110DE
:100C600010B570B103281AD0062825D8134A52F8B7
:100C70002040204612F0EAF8202800D92020002346
:100C800017E00E4B1B681A880D4B5A800120431C3D
:100C90005B009BB243F440730948038010BD2021E0
:100CA0000848FFF78FFFF2E7E15C0133044A22F8BE
:100CB00013109842F8D8EAE70020EFE7D42100208B
:100CC000042F0020062F002000B583B017E001A9F3
:100CD000002007F0C5F99DF804308DF800309DF82C
:100CE00005308DF801309DF806308DF802309DF802
:100CF00007308DF803306946002007F0F7FA00212D
:100D0000084607F099F90028E1D103B05DF804FB2B
:100D100010B5074C237803F07F03064A9370032332
:100D20000021084607F0BAF923780133237010BD7B
:100D3000F8490020F02100202DE9F8430446056819
:100D4000D5E92689D5E9280102F0FAF906460F46C9
:100D50006368186802F076FA32463B4602F0C8F93A
:100D6000D5E9082302F0C4F902460B46404649463D
:100D700002F0E6F902F08AFABDE8F883000000000C
:100D8000D0B5044610461946C4E908011AA3D3E9B0
:100D9000002302F0C3FA20B117A3D3E90023C4E96A
:100DA000082317A3D3E90023D4E9080102F0F2FADB
:100DB00020B113A3D3E90023C4E90823D4E90867C9
:100DC00032463B4600200A4902F0E0F9C4E90A0134
:100DD00032463B460020064902F09EF902460B4689
:100DE0000020044902F0D2F9C4E90C01D0BD00BFD3
:100DF0000000F03F0000F0BF2D431CEBE2361A3F2D
:100E00002B8716D9CEF7EF3F2DE9D0430446904605
:100E10009946DDE9066700220023C0E90623C0E900
:100E20000023C0E90223C0E90489C0E90E2301219F
:100E300080F848103046394602F05EFA48B9C4E9F5
:100E4000066742464B463046394602F09FF9C4E9F0
:100E500010010022034B2046FFF792FF2046BDE819
:100E6000D08300BF0000E03F38B5054600240DE008
:100E700055F8240002F0E6F9D5E9262302F060F9DE
:100E800002F004FA05EB840398660134062CEFD9CE
:100E900038BD10B504460068A168091A08B102F00F
:100EA00007FE204610BD2DE9F041064614461D46BA
:100EB000876BD0F83C803846414602F07BFA2246E8
:100EC0002B4602F03FFA30B1781E48F1FF3102F0B4
:100ED00071FA04460D46002200232046294602F0FE
:100EE0001DFA98B92046294602F06AFB02460B46D5
:100EF000C6E90A2302F05EFA02460B46204629465E
:100F000002F00AF9C6E90C01BDE8F08100240025D1
:100F1000E8E70000000000002DE9D0430446D0E9D6
:100F20002623D0E92A0102F00BF906460F460022DB
:100F3000374B02F005F9C4E90A012DA3D3E90023D8
:100F40003046394602F0FCF880468946C4E90C89EF
:100F50000022304B3046394602F0F2F8C4E90E0167
:100F600025A3D3E900233046394602F0E9F8C4E965
:100F700010010022284B3046394602F0E1F8C4E95E
:100F800012011FA3D3E900233046394602F0D8F8F6
:100F9000C4E914010022214B3046394602F0D0F852
:100FA000C4E9160118A3D3E900233046394602F0FC
:100FB000C7F8C4E9180142464B4604F52C70FFF708
:100FC00072FFD4E9102304F58160FFF76CFFD4E9C8
:100FD000142304F59660FFF766FFD4E9182304F59F
:100FE000C160FFF760FFBDE8D08300BFAFF30080B2
:100FF000000000000065B140000000000010AD409E
:10100000000000000079B0400000000000B6A840D9
:101010000000854000209C4000608C4000C0A4403F
:1010200070B5064614461D46C0E92A4508A3D3E913
:1010300000232046294602F071F910B104A5D5E934
:101040000045C6E92A453046FFF766FF70BD00BF80
:101050002D431CEBE2361A3F036851B103EBC1018B
:1010600092ED007B01E0A3EC027B9942FBD1416051
:1010700070471946FBE7D2E9002301E0E0E80223CC
:101080008142FBD17047D0B582B0044600260027CC
:10109000CDE900676A4641690069FFF7ECFFC4E9E2
:1010A0000067C4E9026702B0D0BD08B50022002382
:1010B000C0E90023C0E90223C0E91623C0E91823D0
:1010C0001030FFF7E0FF08BD10B5044600F51270C0
:1010D000FFF7EBFF04F52C70FFF7D5FF04F53C702C
:1010E00000F09CFC04F54E7000F06AFD04F5687099
:1010F000FFF7DBFF04F58160FFF7C5FF04F58960AA
:10110000FFF7D3FF04F59660FFF7BDFF04F59E607F
:1011100000F084FC04F5A76000F052FD04F5B46013
:10112000FFF7C3FF04F5C160FFF7ADFF04F5C96029
:1011300000F046FD04F5D66000F042FD00220023D9
:10114000C4E98E23C4E9902310BD30B484B00023D9
:1011500001930293039304680194426802928368A6
:1011600003930D6805604D6845608D6885600C606F
:101170004A608B6004B030BC704730B585B00C4617
:101180000023019302930393FFF7DFFF01AD214694
:101190002846FFF7DAFF2846FFF77BFE05B030BD93
:1011A00038B504460D46D1E90023C0E90023D1E952
:1011B0000223C0E902234FF0000210311030FFF784
:1011C000DCFFD5E90823C4E90823D5E90A23C4E9EB
:1011D0000A23D5E90C23C4E90C23D5E90E23C4E97D
:1011E0000E23204638BD38B504460D46D1E900230C
:1011F000C0E90023D1E90223C0E9022310311030F5
:10120000FFF7CEFFD5E91423C4E91423D5E916234B
:10121000C4E91623D5E91823C4E91823204638BDAC
:1012200008B5B1F1805F03D2C80002F039FC08BDF7
:10123000B1F1005F01D307F073FE07F061FE38B52E
:1012400004460D4641B10022FFF7EAFF20606060CE
:1012500000EBC500A06038BD0020F7E770B5B1F124
:10126000805F0FD204460D4616460023036043609C
:101270008360FFF7E4FF324629462046FFF7ECFE85
:10128000204670BD014807F073FE00BFC84501103D
:1012900030B589B011469FED227B80ED007B80ED5B
:1012A000027B00220261426182619FED1F6B80ED33
:1012B000086B80ED0A6B80ED0C7B9FED1D7B80ED54
:1012C0000E7B51EA030222D004468163C3630022ED
:1012D0000023CDE9042301AD07AB04AA2846FFF79C
:1012E000BDFF4FF00002294604F11000FFF745FF53
:1012F0002846FFF7CEFDDDE90C0102F0AEF802460C
:101300000B462046FFF7CFFD204609B030BD0A4B03
:101310000A4A15210A4803F037FD00BFAFF30080E9
:1013200000000000000000000000000000000000BD
:101330000002000000000000FC4501100C460110F6
:101340005445011010B582B0044600220023CDE9B7
:1013500000234FF4007200231030FFF799FF20465E
:10136000FFF7A3FE00220023C4E91423204602B0A5
:1013700010BD2DE9F04192B004460D46164600F12D
:10138000100700220023CDE900234FF40072002350
:101390003846FFF77DFF2046FFF787FE0DF108086E
:1013A000F317009601932A46EB174046FFF770FFAC
:1013B00041463846FFF7F4FE06A8FFF76AFDDDE96F
:1013C0001823C4E91423204612B0BDE8F0810000C0
:1013D0002DE9F04F2DED048BA3B0054600F1680315
:1013E00000F184049C4209D018460433A34206D07D
:1013F00001681A689142F8DA1846F6E71846036859
:1014000021931F9521AB20931FAC0022684B2046EF
:10141000FFF792FC80465AA3D3E900232046FFF74A
:101420008BFC06460022634B2046FFF785FC834673
:1014300055A3D3E900232046FFF77EFC8246002215
:101440005D4B2046FFF778FC029051A3D3E90023BF
:101450002046FFF771FC81460022584B2046FFF7DB
:101460006BFC03904CA3D3E900232046FFF764FCF8
:10147000074604AC9FED4A9B8DED009B0022414640
:101480002046FFF776FF214605F51270FFF7ABFE09
:101490000DF130084046FFF7FCFC9FED438B8DEDCE
:1014A000008B3246F3172046FFF7F2FE214605F582
:1014B0002C70FFF775FE08AE3046FFF7EAFC8DEDA5
:1014C000009B002259462046FFF753FF214605F5B1
:1014D0006870FFF788FE4046FFF7DBFC8DED008B60
:1014E00052464FEAEA732046FFF7D2FE214605F541
:1014F0008160FFF755FE3046FFF7CBFC8DED009B7A
:10150000002202992046FFF734FF214605F5896045
:10151000FFF769FE4046FFF7BCFC8DED008B4A46A5
:101520004FEAE9732046FFF7B3FE214605F59660C2
:10153000FFF736FE3046FFF7ACFC8DED009B002236
:1015400003992046FFF715FF214605F5B460FFF724
:101550004AFE4046FFF79DFC8DED008B3A46FB1797
:101560002046FFF795FE214605F5C160FFF718FEFE
:101570003046FFF78EFC23B0BDEC048BBDE8F08F46
:10158000000000000065B140000000000010AD4008
:10159000000000000079B0400000000000B6A84044
:1015A000000000000000000000000000000000003B
:1015B0000000854000209C4000608C4000C0A4409A
:1015C0002DE9D043044616461F46C0E92467D0E9FA
:1015D00022894046494601F0A1FE08B146464F46E1
:1015E000C4E9246700221E4B3046394601F096FEBE
:1015F00070BBC4E9246718A3D3E9002330463946F9
:1016000001F0C4FDC4E9260132463B4600201449DE
:1016100001F0BCFDC4E93A0132463B4604F5C9601D
:1016200000F03AFBD4E9242304F5D66000F034FB43
:101630002046FFF719FCD4E92A232046FFF7F0FCE7
:101640002046FFF7C5FE2046FFF73EFDBDE8D083EC
:101650000026034FCDE700BF000000004010DD4032
:101660000000F03F000000002DE9F04F2DED048B4D
:1016700087B00446CDE904230546C14E0FCE0FC501
:1016800096E8070085E8070000260027C4E90867F8
:101690000022BC4BC4E90A239DA3D3E90023C4E97B
:1016A0000C230022B84BC4E90E239BA3D3E90023EB
:1016B000C4E910230022B54BC4E9122398A3D3E94F
:1016C0000023C4E914230022B14BC4E9162396A3D6
:1016D000D3E90023C4E918239FED958B84ED228B79
:1016E00084ED248B94A3D3E90023C4E92623DDE908
:1016F0001623C4E928234FF0000ADFF8A0B2C4E99A
:101700002AABC4E92C67C4E92E67C4E93067C4E991
:101710003267002384F8D030C4E936AB88A3D3E91C
:101720000023C4E9382388A3D3E90023C4E93A237A
:10173000C4E93CAB04F1F80318460393CDE900ABD0
:1017400053EC182BFFF760FB04F5A479CDE900AB4F
:1017500053EC182B4846FFF757FB04F5CC78CDE93E
:1017600000AB53EC182B4046FFF74EFB04F5F47525
:10177000CDE900AB53EC182B2846FFF745FBC4E935
:101780008E67C4E9906704F51270FFF7DBFD9FEDEB
:10179000709B8DED009B4FF40072002304F52C70BC
:1017A000FFF776FD0FF2B01BDBE900AB8DED008B90
:1017B00052465B4604F53C7000F0C6F90026754FB2
:1017C0008DED008B32463B4604F54E7000F08CFAEE
:1017D00004F56870FFF7B6FD8DED009B4FF40072C5
:1017E000002304F58160FFF753FD04F58960FFF7DE
:1017F000A9FD8DED009B4FF40072002304F5966067
:10180000FFF746FD8DED008B52465B4604F59E606A
:1018100000F09AF98DED008B32463B4604F5A76047
:1018200000F062FA04F5B460FFF78CFD8DED009BCB
:101830004FF40072002304F5C160FFF729FD04F5A1
:10184000C96B8DED008B32463B46584600F04CFA92
:1018500004F5D66A8DED008B32463B46504600F0CB
:1018600043FADDE91423C4E90823DDE90423204613
:10187000FFF7A6FE0026484F32463B46584600F08A
:10188000AFF932463B46504600F0AAF934A3D3E9FB
:101890000023D4E9440101F02FFD50B930A1D1E972
:1018A0000001C4E94401D4E9422301F06FFCC4E91A
:1018B0004E012DA3D3E90023D4E9580101F01CFD0A
:1018C00050B929A1D1E90001C4E95801D4E956234E
:1018D00001F05CFCC4E9620125A3D3E90023D4E94B
:1018E0006C0101F009FD50B921A1D1E90001C4E961
:1018F0006C01D4E96A2301F049FCC4E976011EA316
:10190000D3E90023D4E9800101F0F6FC48E000BFF0
:10191000000000000065B140000000000010AD4074
:10192000000000000079B0400000000000B6A840B0
:10193000000000008088E540DDE7753579B5F73FA8
:10194000FCA9F1D24D62603FCE05A6F24E38873F2A
:101950000000000000000000000000004088D540AA
:101960009A9999999999B93F333333333333C33FB4
:10197000B81E85EB51B8BE3F0AD7A3703D0AC73FDA
:101980006C6401100000854000209C4000608C4089
:1019900000C0A44000002440000034400000F03F9C
:1019A00050B91CA1D1E90001C4E98001D4E97E232A
:1019B00001F0ECFBC4E98A010022134BC4E9522375
:1019C0000026124FC4E966670022114BC4E97A234E
:1019D00032463B460398FFF7D3F932463B4648462A
:1019E000FFF7CEF932463B464046FFF7C9F932468B
:1019F0003B462846FFF7C4F9204607B0BDEC048BF0
:101A0000BDE8F08FAFF300800000D03F0000E03F62
:101A10000000E83F0AD7A3703D0AC73F0022002319
:101A2000C0E90023C0E91023C0E902237047000089
:101A3000D0B5044616461F46D0E9080101F05CFC0B
:101A400050BB002200233046394601F0A3FC20B3EE
:101A500032463B46D4E90A0101F088FC18B3C4E9D8
:101A600008671AA3D3E900233046394601F068FB22
:101A7000D4E9062301F064FB01F0D6FB01F014FF6A
:101A800012F0D6FA02460B46C4E90E2300200A499A
:101A900001F042FBC4E90C01D0BD084B084A2321E8
:101AA000084803F071F9084B054A2421054803F062
:101AB0006BF900BFAFF300800000F03F74460110E7
:101AC00088460110B446011020470110182D4454D7
:101AD000FB2119C0D0B5044616461F46002200233C
:101AE0003046394601F056FCD8B1C4E904673246A5
:101AF0003B4600200E4901F049FBC4E906010022E3
:101B00000C4B3046394601F01BFB0022084B01F01C
:101B100003FBC4E90A01D4E908232046FFF788FF44
:101B2000D0BD054B054A1621054803F02DF900BF2D
:101B30000000F03F0000E03F404701105447011013
:101B4000B446011000000000D0B5044616461F46FA
:101B50009FED137B80ED007B80ED027B12A3D3E928
:101B60000023C0E9042312A3D3E90023C0E906231C
:101B700080ED087B10A3D3E90023C0E90A2380EDA0
:101B80000C7B80ED0E7B80ED107BDDE90423FFF7FD
:101B9000A1FF32463B462046FFF74AFF2046D0BD14
:101BA0000000000000000000000000008088E54008
:101BB00077F151C7F8C6F73E000000008088D54095
:101BC00000220023C0E90023C0E90223C0E910235A
:101BD000C0E91223C0E90C23C0E90E2370470000BE
:101BE000D0B5044616461F46D0E9080101F084FB33
:101BF000002833D1002200233046394601F0CAFBC9
:101C000068B332463B46D4E90A0101F0AFFB60B34A
:101C1000C4E908671EA3D3E900233046394601F022
:101C20008FFAD4E9062301F08BFA01F0FDFA01F0F6
:101C30003BFE12F0FDF902460B46C4E918230022D0
:101C40000D4B01F055FA00220C4B01F079FAC4E972
:101C50001401024601F10043C4E91623D0BD084B2C
:101C6000084A4E21084803F08FF8084B054A4F21D7
:101C7000054803F089F800BF0000F03F0000E03F96
:101C80007446011080470110B4460110204701102E
:101C9000182D4454FB2119C0D0B5044616461F46E2
:101CA000C0E9046700200D4901F070FAC4E906019B
:101CB00000220B4B3046394601F042FA0022074B16
:101CC00001F02AFAC4E90A01D4E908232046FFF703
:101CD00087FF2046FFF774FFD0BD00BF0000F03F34
:101CE0000000E03F00000000D0B5044616461F4645
:101CF0009FED157B80ED007B80ED027B80ED047B0A
:101D000080ED067B80ED087B0022114BC0E90A23A1
:101D100080ED0C7B80ED0E7B80ED107B80ED127BE7
:101D200080ED147B80ED167B80ED187BDDE90423CC
:101D3000FFF7B2FF32463B462046FFF751FF2046F1
:101D4000FFF73EFF2046D0BD00000000000000006D
:101D50000000F0BF0C4B03EB800253F8203083F0FF
:101D6000400303F0C00302F5805CCCF80030C000F3
:101D700000F1804000F52030416002F540524FF400
:101D800080731360704700BF0480034008B54FF0B4
:101D9000000242EC440042EC40000521FFF7DAFF6C
:101DA00008BD00000FB400B583B0049C074803F0E1
:101DB00055F93CB105A90191204603F05FF90448AB
:101DC00003F04CF9012002F08BFF00BFAC4701107B
:101DD000A4430110EFF3108072B6064BD3E8CF1F77
:101DE00001220029FAD1C3E8412F0029F6D1BFF31F
:101DF0005F8F70479B3000200023034AC2E88F3F6B
:101E000080F31088704700BF9B30002070B50546F6
:101E10000C461646FFF7DEFFE208A95C04F0070C4B
:101E2000012303FA0CF3194205D1DBB20B43AB5487
:101E3000FFF7E2FF70BD21463046FFF7B3FFF8B56C
:101E400006460D4614461F46FFF7C4FF00E0013466
:101E5000BC420ED84FEAD40C16F80C1004F007035D
:101E600001229A401142F2D1D2B20A4306F80C2064
:101E700001E04FF0FF34FFF7BFFF002C01DB2046ED
:101E8000F8BD002DFBD00698FFF78CFF054A1078AF
:101E9000431CDBB21370172B02D9134610221A70A1
:101EA000704700BFF321002000B583B00146054B09
:101EB00000931F2318220448FFF7C1FF03B05DF809
:101EC00004FB00BFBC470110B43800204FF0E022F3
:101ED000936843F00053936070470000002305E0CF
:101EE000044A1A440021C2E88F1F01331F2BF7D97F
:101EF000704700BF90300020064B9B68103043F8BD
:101F00002010BFF35F8F00230349C1E88F3F82F3A6
:101F10001088704700ED00E09930002000487047BD
:101F200000E400E008B5FFF7F9FF002304E04FF0FC
:101F3000803240F8042B01330C2BF8D908BD000087
:101F400008B50388DA0A1C2A06D15B050BD45B1599
:101F5000023300EB430008BD064B074A40F215115F
:101F6000064802F011FF03F5FF1303F5FF531F337B
:101F7000EDE700BFD8470110B0640110F047011031
:101F800008B5091A01F2FC7240F6FE739A4208D8AD
:101F9000081F11F0010F04D1C0F34A0040F4604063
:101FA00008BD034B034A40F20711034802F0ECFE60
:101FB00038480110A4640110F04701104209064B93
:101FC00053F8223000F01F000122824003EA020091
:101FD000003818BF0120704700E100E03AB1064B1D
:101FE00000F1600243F8221043F8201070472030BF
:101FF000014B43F82010704700E100E008B50A46A5
:1020000000F01F03012199404009FFF7E7FF08BDD9
:10201000024B9B68103053F82000704700ED00E041
:1020200070B505460C46EFF3108672B60F4BD3E839
:10203000CF1F01220029FAD1C3E8412F0029F6D190
:10204000BFF35F8FFFF7E4FF094B984201D0A04236
:1020500005D1324621462846FFF74EFF70BD054B9D
:10206000054AE721054802F08FFE00BF99300020A5
:102070001D01001068480110D8640110F0470110DC
:102080002DE9F04F87B000911546EFF3108A72B634
:102090007C4BD3E8CF1F01220029FAD1C3E8412F9E
:1020A0000029F6D1BFF35F8F774B93F90040002CE6
:1020B00044DB804604EB4407744B03EB870797F936
:1020C0000610714A1170724A926800F1100152F8BC
:1020D0002190A9EB03022F2A3ED96E4B994534D1AA
:1020E0004FF42143ADF80C304FEA440904EB4400AF
:1020F000664E06EB800068490230FFF741FFADF8FD
:102100000E004BF60153ADF81030FF238DF812305E
:102110008DF81350009B0593A14406EB890306AA92
:1021200012E9070083E8070047F0010952464946D3
:102130004046FFF7E1FE07B0BDE8F08F574B584A25
:1021400040F27311574802F01FFE574B544A4FF4A8
:10215000BD71544802F018FE29F0010BABEB0303EC
:10216000524AA2FB0312D20802EB4202B3EB820FE7
:102170000FD15B460026DA79AA4212D993F90620DC
:10218000002A0DDB02EB42021E46404B03EB8203AA
:10219000F1E7474B424A40F28B11424802F0F4FD0E
:1021A0001E46A6B344F60103ADF80C304FF48F433E
:1021B000ADF80E3096F906B0BBF1000F1ADA4BF607
:1021C0000150ADF810008DF812B08DF81350009B3F
:1021D00005933946301DFFF7D3FEB080B47104EB90
:1021E00044042A4B03EB840306AA12E9070083E8A0
:1021F00007009BE7301DFFF7A3FE014604EB4402F6
:10220000224B03EB8203181DFFF7BAFED9E74FF408
:102210002143ADF80C306300019304EB4406DFF872
:102220006C9009EB86061C49B01CFFF7A9FEADF8BF
:102230000E005946301DFFF7A3FEADF810004AF618
:10224000AA235A464946521A524153431B0D8DF850
:1022500012308DF81350009A0592019B234409EB2C
:10226000830906AB13E9070089E8070044F6010378
:10227000ABF800304FF48F43ABF8023047F0010960
:1022800054E700BF99300020FA490020F4210020D3
:1022900000ED00E01D01001024220020A0480110E4
:1022A000C0640110F0470110C8480110ABAAAAAAE7
:1022B000F048011038B540F00104324BE31A2F2BDF
:1022C00031D8EFF30581C9B2002933D0EFF3108E76
:1022D00072B62D4BD3E8CF5F0122002DFAD1C3E8AF
:1022E000452F002DF6D1BFF35F8F4AF6AA23024691
:1022F000244D521B524153431B0D4FFA83FC234B79
:102300009B6853F82130A3421BD00023032B32D803
:1023100003EB43011B4A02EB810292F9062062455E
:1023200020D00133F2E71A4B1A4A4FF41D711A48B4
:1023300002F02AFD194B174A40F27721164802F0A5
:1023400023FD124B9B68164A43F82120154B1A783F
:10235000827183F800C000230B4AC2E88F3F8EF3DE
:10236000108838BD074A02EB8101FF248C714BF6BF
:1023700001538B80EAE70C4B064A4FF42271064862
:1023800002F002FDF42100209930002000ED00E071
:102390007449011088640110F04701109C49011034
:1023A0001D010010FA490020A8490110014B0B44FF
:1023B000036070479030002010B50446FFF766FDBB
:1023C00001462046FFF7F2FFFF232371BFF35F8F23
:1023D00010BD10B50446FFF759FD01462046FFF732
:1023E000E5FFFF23237100236371BFF35F8F10BDEF
:1023F00010B50D4C09E00D4B0D4A1A210D4802F0A5
:10240000C3FC2046FFF7D8FF08340B4B9C4209D28F
:102410002368002BF5D0012BEDD12046FFF7D9FF23
:102420000834F2E710BD00BF08280020B0490110B1
:1024300018650110D049011018280020024B0B44E8
:102440000360BFF35F8F70479030002010B50446E3
:102450000120FFF729FD01462046FFF7EFFF10BDE1
:102460000246EFF30583DBB2103B990804D0034822
:1024700003F00303136070470148F9E700800B4045
:1024800000000B4010B4846AA2EB040C0B1D50F842
:1024900023301B1B9C4504D3046A01238B401C4240
:1024A00002D1043140F821205DF8044B704741EA25
:1024B000004070470D4B1A68EFF3108172B6D2E8F6
:1024C000CFCF0120BCF1000FF9D1C2E84C0FBCF115
:1024D000000FF4D1BFF35F8F1A680023C2E88F3F6B
:1024E00081F3108840BF002000217047C0430020C6
:1024F0002DE9F04F85B003A8FFF7B2FF954B984246
:1025000014BF00230123039901EB8303924A52F87D
:1025100023402378994206D1054601228A4000F5DE
:1025200041535A602CE18D4B8D4A92218D4802F027
:102530002BFCD4F8149006EB46074FEAC70A09EBC8
:10254000C707D7F808B0D7F80C80284600F034FB4E
:10255000B0EB0B0061EB0803002BC0F21A81B8F15D
:10256000000F64DB3B691A4600937F4B9A4230D0E0
:10257000798889B2B4F90800FFF799FF7969009B5F
:102580009847009001910099019A51EA02034ED0B8
:102590001346002A29DABBEB010268EB0308BA6094
:1025A000C7F80C8039F90A70002FC0F2F280D4F815
:1025B00014E007EB47030EEBC3039968DB68511A7D
:1025C00068EB0303002BC0F2E480A4462CF8087FDC
:1025D00017E07A69136900921046984738B3009A59
:1025E0001368009353680193CDE7284600F0E4FA9E
:1025F000009B1A18019B43EB0108D0E79C463EF96B
:102600000B70002F0EDBBCF9003003EB43034FEAE5
:10261000C30B0EEBC3039868D968101A68EB01016D
:102620000029EBDA29F80A70ACF80060B1E039F95A
:102630000A3023812369EFF3108272B6D3E8CF0FFB
:1026400001210028FAD1C3E8401F0028F6D1BFF3CA
:102650005F8FB4F9023029F80A30668021690023BF
:10266000C1E88F3F82F3108893E02369EFF3108273
:1026700072B6D3E8CF0F01210028FAD1C3E8401F7A
:102680000028F6D1BFF35F8FB4F804800FFA88F802
:102690004FF6FF73A38021690023C1E88F3F82F3C7
:1026A00010881AE01F4630F90A60002E0FDBB7F9D8
:1026B000003003EB43034FEAC30A00EBC3039968FE
:1026C000DA68BCEB01016EEB0202002AEADAA7F835
:1026D000008030F9098020F80960B8F1000F5DDB57
:1026E000606908EB48034FEAC30900EBC303D3F862
:1026F00008C0D3F80CE004F10807B4F90860D4E787
:102700000023A37104F1080CB4F9083010E04FF075
:10271000FF384FF0FF39C0E90289B4F90800984248
:1027200005D0ACF80020B4F90800C8532381134643
:10273000B3F1FF3F35D0616903EB4302D70001EBF2
:10274000C20031F93220468816F4004FDFD18446AA
:10275000EDE700BF00800B4098430020684A01105D
:1027600044650110944A0110F1240010284600F03D
:1027700023FA3F1A66EB0106012F76F1000628DAEC
:10278000039A01239340EB63B4F90860002EBFF66F
:10279000D0AEA38813F4004F3FF467AFA379002BAA
:1027A000AED1B4F90830002B13DB626903EB4303AD
:1027B00002EBC3039F68DE68B6F1FF3F08BFB7F1C5
:1027C000FF3FD3D03A46334603992846FFF75AFED7
:1027D000CCE740BF05B0BDE8F08F00BFF8B50446B8
:1027E0000D4611460A4B984210D000262E44012770
:1027F00007FA05F525623046FFF712FC39463046E8
:10280000FFF7FCFB04F501542560F8BD0426EDE755
:1028100000800B40F8B504460E4617461D46C160C1
:10282000FFF734FB164B034423612770ABB263817F
:102830004FF05042127862704FF6FF722281A280F0
:10284000013B63804FF0000C08E00CF1FF300CEB13
:102850004C0E636923F83E000CF1010CAC45F4D337
:10286000084B9E4214BF0023012307EB8303064A53
:1028700042F82340054A39463046FFF7AFFFF8BD1E
:102880009030002000800B4098430020F12400107D
:1028900008B5054B1B690BB1034808BD034B044A3F
:1028A0006521044802F070FA3C220020D44A01104D
:1028B0002C650110944A0110F8B504469E46006943
:1028C000EFF3108172B6D0E8CF6F0125002EFAD158
:1028D000C0E8465F002EF6D1BFF35F8FB4F9025017
:1028E000666905EB4500C70006EBC000002D03DB61
:1028F00036F907C0A4F802C04FF0000C2369C3E802
:102900008FCF81F31088654533DB06990161079904
:1029100041618260C0F80CE0418889B20131C1F3A5
:102920000E0101B9012141802846FFF7C0FD23694E
:10293000EFF3108272B6D3E8CFCF0121BCF1000FC4
:10294000F9D1C3E84C1FBCF1000FF4D1BFF35F8F86
:10295000A388F353A58021690023C1E88F3F82F348
:102960001088E368217801228A4003F501535A60F8
:10297000F8BD4FF0FF30FBE770B582B00646154654
:102980001C469DF8203033B900F040F9854264EBD5
:10299000010100290ADB079B0193069B00932A464D
:1029A00023463046FFF788FF02B070BD0020FBE7EA
:1029B000F0B585B005460C4616461F46FFF768FF82
:1029C0009DF828300293019700962A462346FFF788
:1029D000D3FF05B0F0BD03464089B0EB214F31DD98
:1029E00010B50A14586902EB420200EBC2001A69E2
:1029F000EFF3108C72B6D2E8CF4F5FF0010E002CCF
:102A0000F9D1C2E844EF002CF5D1BFF35F8F4288C3
:102A100092B289B28A420FD0002019690022C1E81F
:102A20008F2F8CF3108830B1DA681B780121994020
:102A300002F50153596010BD42F40042428001206A
:102A40009871EAE70020704710B50446FFF720FFB1
:102A50002146FFF7C0FF10BD40787047F0B583B046
:102A600005460C46EFF30583DBB293B1384B5B6A46
:102A70008B4209D3364A926A824208D28B4201D0F5
:102A8000012002E0002000E0002003B0F0BD0120A2
:102A9000FBE7FFF7FDFEC7680678384600F08CF8C4
:102AA0002A1A64EB0101043657F826301B1A9A42A1
:102AB00071F1000112DB20BF254B5B6A9C4209D8F3
:102AC000234A926AAA4207D29C4201D00120DCE745
:102AD0000020DAE70020D8E70120D6E700230093A2
:102AE0001C4A28462146FFF763FF002818DD184BD3
:102AF0005B6A9C4205D8164A926AAA4202D29C425C
:102B000000D120BFFFF7A0FF114B5B6A9C421BD88E
:102B10000F4A926AAA4219D29C4213D00120B4E70C
:102B20000B4B5B6A9C4209D8094A926AAA4207D2B7
:102B30009C4201D00120A8E70020A6E70020A4E7DE
:102B40000120A2E70020A0E700209EE701209CE7EB
:102B500000000B40B52400100048704700000B40F7
:102B600010B50A4B1B6923B10A210948FFF71EFC67
:102B700010BDFFF7F1FF0446032100F00BF810230E
:102B8000032221460148FFF745FEEDE73C220020E5
:102B9000C043002010B5054A054C064BA04214BFA7
:102BA0001846581CFFF732F910BD00BFF84A011053
:102BB00000800B40B83800200246436A906A1946EC
:102BC000536A9942FAD17047416A00E0416A9942DA
:102BD000FCD300E0416A994202D1816A9142F9D363
:102BE000704770B5064614461D46FFF7E5FF02190B
:102BF00041EB0503824273EB010102D24FF0FF3239
:102C000013463046FFF7E0FF70BD000008B50248EC
:102C1000FFF7D2FF08BD00BF00000B4008B5024619
:102C20000B460248FFF7DDFF08BD00BF00000B4068
:102C300070B51646049D00EB400C4FEA8C0C0CF16D
:102C4000804C0CF5803CDCF80420AA4201D2CCF880
:102C50000450A0F1040E5FFA8EFEBEF1010F28D9D8
:102C60000CF540524FF4006414601E4A52F82020C4
:102C700042B11C4C6469B4FBF2F4013404EB44042B
:102C8000033CFDD2DCF8002082EA461202F0E002AA
:102C90000CF580542260BEF1010F16D90CF50052DC
:102CA0004FF400611160CCF804500E4A42F8203015
:102CB00070BD0129D4D10CF5405203241460DCF816
:102CC000082012F0010FFAD0DCE7DCF800204A40BF
:102CD00002F003022260DCF8084001228A4014421C
:102CE000F9D0DBE7BC38002010B582B04FF4803457
:102CF0000094FFF79DFF02B010BD0000014B53F898
:102D000020007047BC38002070B5049C344DB5FBE2
:102D1000F1FC344D1544344EB54237D8B2FBFCF5C6
:102D2000A5F1100EBEF5987F36D803F1FF3EBEF137
:102D3000060F37D804F1FF3EBEF1060F32D8BCEBC8
:102D4000121F35D8240344EA03440368002B35DB03
:102D5000264B984242D00E2301229A40244B1A60FF
:102D600003F580531A60234B9B6832EA0303FAD1C0
:102D70000160856000F5405204322123136003682E
:102D8000002BFCDAC4600823136070BD1A4B1B4A89
:102D900011211B4801F0F8FF1A4B184A1921184855
:102DA00001F0F2FF184B154A1C21154801F0ECFF09
:102DB000164B124A2321124801F0E6FF036803F084
:102DC0003F038B42C4D18368C3F30B03AB42BFD133
:102DD000C36803F4EE23A342BAD1D6E70F23BBE7BF
:102DE000001BB70080E84BD380F8A9320080054073
:102DF00000200240000002401C4B011068650110D9
:102E00006C4B0110B44B0110D04B01101C4C011045
:102E1000054A00EB400302EB8303596000EB4000DE
:102E200080000123135070470080104008B5002334
:102E3000DB8A002242E800F212F4800F02D1102156
:102E4000984708BD04219847FBE70000034BD3F8DF
:102E50002838002BFAD0BFF35F8F704700000E4078
:102E6000002207E0054B13449B00BFF35F8F002156
:102E700019600132072AF5D9704700BF0382031099
:102E800008B5FFF7EDFF08BD074B4FF42A621A6043
:102E90004FF48D72DA6003F50053044A1A60024B56
:102EA0005B68002BFBDA70470080044000B0FA003A
:102EB00010B5044602E054F8043B9847014B9C428D
:102EC000F9D310BDF84001107047000008B5024862
:102ED000FFF7EEFF08BD00BFB840011008B502487B
:102EE000FFF7E6FF08BD00BFE4400110064B074AAC
:102EF0001A6003F58053064A1A60064B9A68044B21
:102F00009343FAD1704700BF002002407F3BEFEFB0
:102F1000F6FFF30300000240054BDB6CB3F5004FF6
:102F200000D07047034B4FF48022DA64F9E700BF0A
:102F300000001150002011504FF0E022D2F8881DFF
:102F4000034B0B43C2F8883D10EE3004704700BFBE
:102F500003033000054B6FF060421A60044B9B681E
:102F6000DB4333F06043F9D1704700BF00300240CB
:102F70000000024008B545F25320FFF757FF034613
:102F80000420984708BD08B545F25320FFF74EFFCF
:102F900003460120984708BD08B5FEF79FFF08BD0E
:102FA00038B5054CA168054D4FF4887228460FF0DE
:102FB000D7FEA56038BD00BF00ED00E00000002096
:102FC00038B50420FFF79AFE064BA3FB0035AD0C85
:102FD000002404E02946E0B2FFF71AFF0134052C73
:102FE000F8DD38BD83DE1B4330B583B0264B0022AD
:102FF000C3F88420FFF748FF244B0122DA63224BF9
:103000005B6C012BFBD1214B03221A631E4B9B6B84
:10301000012BFBD10224009405231D4A01211D48E8
:10302000FFF772FE052500952B461B4A01211B4820
:10303000FFF76AFE1A4B002221460420FFF754FED8
:10304000184C2346002201212846FFF74DFE164D5D
:103050002B46002211460820FFF746FE2B46002291
:1030600011460920FFF740FE2346002211460620A4
:10307000FFF73AFE2346002211460720FFF734FEF1
:10308000FFF79EFF03B030BD00000140003001405B
:10309000002F685900000540008C864700800540DD
:1030A000001BB70080D1F008006CDC0286B003B4CE
:1030B00051FC0804CDE9020151FC0904CDE90401E9
:1030C00051EC0A04CDE9060103BCF047BDE800500D
:1030D0004EEC00C4BDE800504EEC01C4BDE8005009
:1030E0004EEC02C400BD000000B5FFF7DFFF02E0B8
:1030F00010FE30F4F8D441EC100443EC112400EE3F
:10310000010410EE010480EE200451EC100470471D
:1031100000B5FFF7CBFF02E010FE30F4F8D441EC2D
:10312000100443EC112400EE010410EE210480EEA3
:10313000200451EC3004704700B5FFF7B7FF02E000
:1031400010FE30F4F8D410B541EC100443EC112417
:1031500051EC040453EC0524A0FB024C5FF0000E7C
:10316000E0FB03CEE1FB02CE4CEC20440024E1FB6B
:1031700003E444EC30E480EE200451EC5004BDE85C
:103180001040704700B5FFF791FF02E010FE30F4E9
:10319000F8D441EC100443EC112451EC2104A0FBC1
:1031A00001126FEA820252FB100052FB12F252FB34
:1031B0001000A0EBD07C53EC04245CFB13F153EC27
:1031C0001524A1FB022001FB030053EC4424A2EBD5
:1031D000000050FB1CF24FEA111312EB017043EB9D
:1031E000E27140EA515020EA915020F0070053EC80
:1031F0007524A0FB023C53EC752400FB03CC01FBBF
:1032000002CC53EC0424ACEB824C40EA5C70A0F19D
:10321000010041EC400480EE200451EC7004704742
:1032200000B5FFF743FF02E010FE30F4F8D441ECA4
:10323000100480EE220410EEB204704700B5FFF7D0
:1032400035FF02E010FE30F4F8D440EC700400EEDC
:10325000010410EE210480EE200451EC300470478C
:1032600000B5FFF723FF02E010FE30F4F8D440EC85
:10327000600400EE010410EE210480EE200451EC05
:103280003004704700B5FFF711FF02E010FE30F484
:10329000F8D441EC800400EE010410EE010480EE4D
:1032A000400410EE1304704700B5FFF7FFFE02E084
:1032B00010FE30F4F8D441EC800400EE010410EE6E
:1032C000010480EE400410EE3304704700B5FFF7B0
:1032D000EDFE02E010FE30F4F8D441EC100443ECB3
:1032E000112400EE010410EE3004C0F300707047AA
:1032F00000B5FFF7DBFE02E010FE30F4F8D441EC3D
:10330000100443EC112400EE010410EE3004C0F36D
:103310008070704700B5FFF7C9FE02E010FE30F480
:10332000F8D443EC102441EC110400EE010410EE3B
:1033300030F48CBF01200020704700BF00B5FFF7BC
:10334000B5FE02E010FE30F4F8D443EC102441EC5A
:10335000110400EE010410EE30F42CBF0120002017
:10336000704700BF00B5FFF7A1FE02E010FE30F489
:10337000F8D441EC100443EC112400EE010410EEEB
:1033800030F42CBF01200020704700BF00B5FFF7CC
:103390008DFE02E010FE30F4F8D441EC100443EC52
:1033A000112400EE010410EE30F48CBF0120002047
:1033B000704700BF0022002950DA404261EB410112
:1033C000C9B1B1FA81F30B3B17D4D3F1200C30FA19
:1033D0000CFC9840994051EA0C011A44524202F206
:1033E000324201EB025141F0004140F2FE739A4239
:1033F00038BF704721E011467EE003F1210310FA47
:1034000003FCA3F1010301FA03FCC3F1200320FA3A
:1034100003F021FA03F140EA0C00A3EB020202F2EE
:10342000324214D050F1000041EB025141F0004112
:1034300040F2FE739A4238BF70474FF00001A8BFB8
:10344000C7F6F0714FF00000704700217047EBD3D2
:1034500050F1000020F00100E6E70022B9B1B1FA16
:1034600081F30B3B16D4D3F1200C30FA0CFC9840BE
:10347000994051EA0C011A44524202F2324201EBE5
:10348000025140F2FE739A4238BF704720E0114665
:1034900000F066B803F1210310FA03FCA3F1010365
:1034A00001FA03FCC3F1200320FA03F021FA03F12F
:1034B00040EA0C00A3EB020202F2324212D050F1B9
:1034C000000041EB025140F2FE739A4238BF704750
:1034D0004FF00001A8BFC7F6F0714FF00000704731
:1034E00000217047EDD350F1000020F00100E8E723
:1034F000002880F235804042B0FA80F30B3B11D4B3
:10350000984001EB0302524202F2124200EB0251D8
:1035100041F000414FF0000040F2FE739A4238BF84
:10352000704713E0C3F1000330FA03FCC3F120023B
:103530009040A3EB010202F212420CEB025141F067
:10354000004140F2FE739A4238BF70474FF000418D
:10355000A8BFCFF6F0714FF0000070470021704710
:1035600060B3B0FA80F30B3B0FD4984001EB030239
:10357000524202F2124200EB02514FF0000040F2C0
:10358000FE739A4238BF704710E05B4230FA03FC8A
:10359000C3F120029040A3EB010202F212420CEBB5
:1035A000025140F2FE739A4238BF70474FF000015B
:1035B000A8BFC7F6F0714FF00000704700217047B8
:1035C0000022A2F232425FEA215CACF10103A1EBDE
:1035D00003515B0513F5800F32D212EB535210D416
:1035E0000B2A36DA9140D2F1200330FA03F3194363
:1035F0009040BCF1000FA8BF7047404261EB410111
:10360000704720320EDD01FA02F3D2F12002D140E0
:10361000D0401843BCF1000FA8BF7047404261EB97
:1036200041017047524282F3050231FA02F0002153
:10363000BCF1000FA8BF7047404261EB41017047E9
:1036400002D000200021704750EA013118BF4FF02E
:10365000000C6FF0004101EBDC716FEAEC70704719
:103660000022A2F232420B15A3F10103A1EB035198
:1036700026D440F2FE7C63451CD2D21809D40C2A11
:1036800019DA9140D2F1200330FA03F39040194344
:103690007047203207DD01FA02F3D2F12002D14057
:1036A000D04018437047524282F3050231FA02F0CB
:1036B000002170470AD86FF000006FF000017047DA
:1036C00013F1020F02D150EA0132F4D1002000219F
:1036D00070470022002980F2A980404261EB41013D
:1036E000B1B3B1FA81F3083B16D4994010FA03FC48
:1036F000C3F1200320FA03F040EA0100A2EB030229
:10370000C2F195021CEB0C0C40EBC25040F00040A3
:1037100020D0FE2A16D2704703F1210311FA03FCD0
:103720005CEA000CC3F1210321FA03F0A3EB0202CF
:1037300002F1B50240EBC25040F000400AD0FE2A30
:1037400038BF70474FF00040A8BFCFF68070704779
:1037500011460AE028BF20F00100FE2A38BF70475A
:10376000F0E7002880F233804042B0FA80F3083B53
:103770000CD4984001EB0302C2F1950200EBC25059
:1037800040F00040FE2A38BF704713E003F12103E8
:1037900010FA03FCC3F1210320FA03F0A3EB0102AA
:1037A00002F1950240EBC25040F0004008D0FE2AE2
:1037B00038BF70474FF00040A8BF40F0FF4070474F
:1037C00028BF20F00100FE2A38BF7047F2E720B37F
:1037D000B0FA80F3083B0AD4984001EB0302C2F12F
:1037E000950200EBC250FE2A38BF704711E003F18A
:1037F000210310FA03FCC3F1210320FA03F0A3EB29
:10380000010202F1950240EBC25007D0FE2A38BFF8
:103810007047ACBF4FF0FF400020704728BF20F03A
:103820000100FE2A38BF7047F3E7002289B3B1FADE
:1038300081F3083B14D4994010FA03FCC3F1200330
:1038400020FA03F040EA0100A2EB0302C2F1950264
:103850001CEB0C0C40EBC2501ED0FE2A14D2704759
:1038600003F1210311FA03FC5CEA000CC3F121030C
:1038700021FA03F0A3EB020202F1B50240EBC250C1
:103880000AD0FE2A38BF7047ACBF4FF0FF4000207F
:1038900070471146FFF79BBF28BF20F00100FE2AAA
:1038A00038BF7047F0E70000C11545D4852932DAEA
:1038B000012262F3DF507E392AD400FA01F041F68A
:1038C0009553C5F6554380FB03012BA292EC034AA6
:1038D000820D61F39A2200EE102ABBEEC00A60EE60
:1038E000000AC1F3444220EE042A26A320EE201A47
:1038F00053F8222000EEA42A891501EE052A02EBD6
:10390000C15200EE102A00EE020A10EE100A7047B3
:103910004942C840D3E747F21822C4F2B12290428C
:10392000C6D3B0F1FF4F02D950F48000704740F287
:103930000000C7F68070704711F17B0F0CDA01228E
:1039400062F3DF50823105D54942C84040F10000A2
:103950004042B4E78840FBE74AF64F42CCF2AE2241
:103960009042ECD910F5000F02D950F48000704756
:103970004FF00000704700BF1872313FF0FD753EF8
:103980004758633D0000803F87CD823FC3AA853FF3
:103990000F98883FC2958B3F3AA48E3FD3C3913F87
:1039A000F0F4943FF037983F3A8D9B3F32F59E3FBD
:1039B0004370A23FD7FEA53F5BA1A93F3F58AD3F53
:1039C000F623B13FF304B53FAFFBB83FA408BD3FBA
:1039D0004D2CC13F2A67C53FBEB9C93F8C24CE3F9D
:1039E0001EA8D23FFD44D73FB8FBDB3FDFCCE03F12
:1039F00007B9E53FC7C0EA3FBAE4EF3F7D25F53F91
:103A0000B383FA3F08B528B103460B44034A9342F7
:103A100000D808BD0248FEF7C5F900BF0000082025
:103A2000384C011070B50546084E304610F024FBA6
:103A300028460DF0C9FE0446304610F011FB294619
:103A40002046FFF7DFFF204670BD00BF082800209A
:103A500070B504460D46094E304610F00DFB294660
:103A600020460EF005FA0446304610F0F9FA2946D1
:103A70002046FFF7C7FF204670BD00BF0828002082
:103A800038B50446054D284610F0F6FA20460DF0EC
:103A9000A3FE284610F0E4FA38BD00BF0828002035
:103AA00008B5FFF7BFFF08BD08B5FFF7E9FF08BD80
:103AB00008B5FFF7E5FF08BD9A4200D28854704769
:103AC000704720B108B50A684968904708BD70473B
:103AD0000146002008E000EB8000531C0B601378C7
:103AE00003EB4003A3F130000A681378303BDBB2EC
:103AF000092BF0D970472DE9F04F83B005460E46EB
:103B000093461F46DDF830A00D9CDDF838900F9BE2
:103B100013F0030F19D1A046019208E002F1010B46
:103B20003B4631462020A84708F101085A46C845BF
:103B3000F4D3DDF804B008E0013C02F101083B4693
:103B400031461AF80400A8474246002CF4D10F9BD6
:103B500013F0020F09D1104603B0BDE8F08F541CDA
:103B60003B4631462020A8472246A2EB0B034B459B
:103B7000F5D3F0E72DE9F04385B099460C9D0D9CF7
:103B80009DF83880DDF840E0119F129E16F0020F7C
:103B900021D17FB116F0010F0CD0B8F1000F02D186
:103BA00016F00C0F06D0013F04E04FF0300C05F882
:103BB00004C00134744501D21F2CF6D916F0010F50
:103BC00009D0BC4207D21F2C05D84FF0300C05F8A5
:103BD00004C00134F2E716F0100F14D016F4806F11
:103BE00004D11CB1744522D0BC4220D00F9B102BB5
:103BF00033D00F9B022B3DD01F2C0ED84FF0300C32
:103C000005F804C001341F2C07D8B8F1000F39D0D3
:103C10004FF02D0C05F804C001340396029701946F
:103C200000954B46FFF767FF05B0BDE8F083B4F1A0
:103C3000010C1DD00F9B102B0ED064460F9B102B38
:103C4000D7D116F0200FD4D01F2CD2D84FF0580C5B
:103C500005F804C00134CFE7023C16F0200FEDD187
:103C60001F2CEBD84FF0780C05F804C00134C3E7E3
:103C70006446BBE71F2CD0D84FF0620C05F804C097
:103C80000134B9E716F0040F05D04FF02B0C05F8FE
:103C900004C00134C1E716F0080FBED04FF0200C6D
:103CA00005F804C00134B8E7F0B591B0169C189D32
:103CB0001B9E0CB926F0100616F4806E1DD064B35E
:103CC0004FF0000E19E016F0200F24D04127BC441D
:103CD0005FFA8CFCACF10A0C5FFA8CFC0EF1010768
:103CE0000EF1400EEE440EF820CCB4FBF5FCAC42D5
:103CF00014D31F2F12D8BE466446B4FBF5FC05FB57
:103D00001C4C5FFA8CFCBCF1090FDCD80CF1300CB8
:103D10005FFA8CFCE2E76127D9E7274606961A9CF2
:103D20000594199C049403959DF85C4002940197B6
:103D300008AC0094FFF71EFF11B0F0BD2DE9F04F65
:103D400095B009900A910B929846DDF878B0DDF8AD
:103D50007C90229D239F269E5BEA090201D126F0DA
:103D6000100616F4806424D05BEA09022FD00024E8
:103D70001FE016F0200F28D041231344DBB20A3B8A
:103D8000DBB204F1010A04F150020DEB020404F865
:103D9000203C2A463B465846494610F05DF9AB4563
:103DA00079EB070915D3BAF11F0F12D85446834691
:103DB00089462A463B465846494610F04DF9D2B24C
:103DC000092AD6D83032D3B2DBE76123D5E74FF0EA
:103DD000000A0696259B0593249B049303959DF862
:103DE00080300293CDF804A00CAB009343460B9AAD
:103DF0000A990998FFF7BEFE15B0BDE8F08F0000E4
:103E00002DE9F04F93B004460D4617461E46DDE9F6
:103E10001CAB52465B4650465946FFF75BFA0028FA
:103E200040F0F3804FF0FF32AD4B50465946FFF75C
:103E3000B1FA002840F0E9804FF0FF326FF48013B0
:103E400050465946FFF76AFA002840F0DE8000220B
:103E5000002350465946FFF761FA002840F0E680FB
:103E6000CDE906AB209B13F480630F9301D10623A9
:103E70001E93DDE9062310461946CDE90A01079B8A
:103E800052EA030100F0DC80C3F30A50C3F31303CA
:103E9000904643F07F5949F44019A0F2FF30FFF7F4
:103EA000D1F97DA3D3E90023FFF74AF97CA3D3E935
:103EB0000023FFF71DF9CDE908010022894B404698
:103EC0004946FFF729F978A3D3E90023FFF738F92A
:103ED00002460B46DDE90801FFF70AF9FFF7D6F9BC
:103EE0000890FFF7AFF98046894671A3D3E9002314
:103EF000FFF726F900227C4BFFF7FAF8FFF7C6F927
:103F00000A906DA3D3E9002340464946FFF718F90C
:103F1000804689460A98FFF795F969A3D3E90023FB
:103F2000FFF70EF902460B4640464946FFF7F4F804
:103F30008046894602460B46FFF702F9CDE90C019F
:103F40000A9B03F2FF3300210022CDE90A121B0570
:103F50000B9300230A9342464B4640464946FFF7DF
:103F6000C7F8CDE9100142464B4600204FF0804192
:103F7000FFF7D2F88046894600225C4BDDE90C0150
:103F8000FFF704F900225A4BFFF7B2F802460B463E
:103F9000DDE90C01FFF7FAF80022564BFFF7A8F80D
:103FA00002460B46DDE90C01FFF7F0F802460B462E
:103FB00040464946FFF79CF802460B46DDE91001F2
:103FC000FFF7E4F800224C4BFFF792F8DDE90A23F3
:103FD000FFF7B6F880468946CDE90A89DDE9062370
:103FE000FFF7D8F950B1089B013B08930022404BE2
:103FF00040464946FFF7CAF8CDE90A01089B6333FA
:10400000C62B46D84FF004081EE0209B04931F9B4C
:1040100003931E9B0293CDE900AB33463A462946F3
:10402000204600F0FDF813B0BDE8F08F9FED267B31
:104030008DED067BCDF818A00BF10043079311E737
:10404000002308934FF00408209B13F4006F5FD007
:10405000DDE90A1213460B4313D01DA3D3E9002355
:10406000DDE90601FFF782F9002800F0B4801AA309
:10407000D3E90023DDE90601FFF750F9002800F03D
:10408000AA801E9A089B9A4238DDD31A013B1E93E0
:1040900036E04FF00508D7E7FB799F501344D33F34
:1040A000B3C8608B288AC63F61436F63A787D23F3E
:1040B00071A379094F930A401655B5BBB16B024005
:1040C000EF39FAFE422EE63F00000000000000003B
:1040D0002D431CEBE2361A3F0000000080842E4185
:1040E000FFFFEF7F0000F83F0000E03F00002C40A2
:1040F00000002440000018400000F03F00231E9301
:10410000209B43F4806320934FF00008CDF820807B
:104110001F9B984569D2A3EB0809209B13F002036B
:104120000C9304D0B8F1000F01D04FF00009089BA8
:104130003BB1DDE90A23DDE90601FFF727F8CDE908
:1041400006010022002350465946FFF7E7F80028F1
:104150004ED1209B23F400630493CDF80C901E9B5A
:1041600002939DED067B8DED007B33463A46294652
:10417000204600F055F8B8F1000F3FF454AF209BF3
:1041800013F0200F3CD04FF0450C00F101093346ED
:10419000024629466046A047089981EAE172A2EBEF
:1041A000E1720523059308F1FF3304930023039381
:1041B0000A230293CB0F0193009233464A462946C5
:1041C0002046FFF771FD0C9B002B3FF42CAF0246FD
:1041D000DDF87C901EE01E9B002B99D00F9B002BDE
:1041E00096D01E9B013B1E9392E74FF0000994E787
:1041F000DDE90601024601F10043CDE90623A8E707
:104200004FF0650CC1E702F1010833462946202032
:10421000A0474246D31B4B45F5D3104603E700BFEA
:104220002DE9F04F2DED028B95B007900A91924643
:104230009B46DDE92089229D42464B464046494641
:10424000FFF748F8002835D14FF0FF326FF48013A4
:1042500040464946FFF762F800283AD14FF0FF3256
:10426000B14B40464946FFF795F8002840D1AAA334
:10427000D3E9002340464946FFF78CF800284DD18A
:10428000A7A3D3E9002340464946FFF747F8002893
:1042900044D10022002340464946FFF73FF800285A
:1042A0004AD100230B93249B13F4806F00F0B58058
:1042B000002454E0249B0393239B02930323019344
:1042C0009A4B00935B4652460A990798FFF713FCF6
:1042D0001BE1249B0393239B029304230193944BA0
:1042E00000935B4652460A990798FFF704FC0CE1DD
:1042F000249B13F0040F0ED08E4B042224990391BB
:1043000023990291019200935B4652460A990798BD
:10431000FFF7F1FBF9E0884B0322EFE7249B0493BE
:10432000239B03930295CDE900895B4652460A9987
:104330000798FFF765FDE8E042464B460020002164
:10434000FEF7EAFE8046894601230B93ABE704F1B2
:1043500050036B44302203F8202C013D01341F2C04
:1043600001D8092DF3D840464946FEF78FFF06468F
:10437000FEF768FF02460B4640464946FEF7CCFE74
:104380006E4B03EBC50393ED008B53EC182BFEF73C
:10439000D7FE02460B46CDE90823FEF789FF074604
:1043A000FEF762FF02460B46DDE90801FEF7B4FEA8
:1043B00002460B46CDE908230022614BFEF7EAFFD7
:1043C00068B301373846FEF74FFF02460B4651EC03
:1043D000180BFEF7B7FF08B1013600276DBB30465A
:1043E000FEF730FF02460B4640464946FEF794FE74
:1043F000074688460022524BFEF790FF00284CD11A
:1044000000224F4B38464146FEF7C4FF002844D1F6
:1044100016F0010F41D001363FE0062548E70022A3
:10442000474BDDE90801FEF779FF0028D6D117B127
:1044300017F0010FD2D00137D0E71F2C17D8013D5C
:10444000404BA3FB0723DB08194603EB8303A7EBD1
:104450004303621C303304F150000DEB000404F8F8
:10446000203C092F02D90F461446E6E714461F2CBC
:104470000AD86B1E45B104F150026A44302102F89B
:10448000201C1D460134F2E71F2C06D804F150030E
:104490006B442E2203F8202C01341F2C17D82A4AF3
:1044A00082FB0632F317C3EBA2031A4603EB830326
:1044B000A6EB4303611C303304F150000DEB000404
:1044C00004F8203C16460AB10C46E6E70C46249B4D
:1044D00003F00303012B39D01F2C09D80B9B002BB1
:1044E00051D004F150036B442D2203F8202C0134E9
:1044F000249B0393239B029301940CAB00935B4694
:1045000052460A990798FFF7F6FA15B0BDEC028BF0
:10451000BDE8F08FAFF300800000000065CDCD4115
:104520000000000065CDCDC1FFFFEF7F984C01106A
:104530009C4C01108C4C0110944C0110D86501105A
:104540000000E03FCDCCCCCC67666666239BB3B160
:104550000B9B1BB9249B13F00C0F12D0239B013B28
:104560002393194606E004F150036B44302203F80C
:10457000202C01348C42AFD21F2CF4D9ACE7239904
:10458000F8E72399F6E7249B13F0040F07D004F112
:1045900050036B442B2203F8202C0134A8E7249B02
:1045A00013F0080FA4D004F150036B44202203F849
:1045B000202C01349CE700BF2DE9F04F8FB08046DE
:1045C00017460D938946002900F04F83002508E027
:1045D0006C1C3B462A464946C0470D9B01330D9350
:1045E00025460D9B1878002800F042832528EFD13E
:1045F00001330D9300261FE046F0010601320D92B3
:10460000012318E046F0020601320D92012312E068
:1046100046F0040601320D9201230CE046F0080634
:1046200001320D92012306E046F0100601320D9290
:10463000012300E000234BB30D9A1378203B102B8D
:10464000F8D801A151F823F01D460010354600109E
:10465000354600102946001035460010354600103A
:10466000354600103546001035460010354600101E
:104670003546001011460010354600100546001062
:104680003546001035460010F94500100A930D9B81
:104690001A78A2F13003DBB2092B18D92A2A1BD0D1
:1046A0000A9B0B930D9B1A782E2A25D00D9A13780E
:1046B000683B122B5CD8DFE803F0495BAC5B3B5BEB
:1046C0005B5B5B5B5B5B575B5B5B5B5BB1000DA844
:1046D000FFF7FEF90B90E5E7189B1A1D18921B686F
:1046E000002B04DB0B930D9B01330D93DAE746F0AF
:1046F00002065B420B93F6E746F480665A1C0D9265
:104700005A78A2F13003DBB2092B0CD92A2ACDD179
:10471000189B1A1D18921C6824EAE4730A930D9BD7
:1047200001330D93C2E70DA8FFF7D2F90A90BDE758
:1047300046F48071531C0D9353786C2B01D00E46B8
:1047400016E046F4407602320D9211E046F0800108
:10475000531C0D935378682B01D00E4608E046F0A9
:10476000C00602320D9203E046F4807601320D92CB
:104770000D9B1878672856D82528C0F06C82A0F1C8
:104780002503422B00F26782DFE813F05A0265022C
:1047900065026502650265026502650265026502E1
:1047A00065026502650265026502650265026502D1
:1047B00065026502650265026502650265026502C1
:1047C000650265026502650265026502880168018D
:1047D000880165026502650265026502650265027F
:1047E0006502650265026502650265026502650291
:1047F0006502710065026502650265026502650277
:104800006502650265027100AF01710088016801EF
:10481000880146F4007601320D92A9E746F48076CD
:1048200001320D92A4E7782800F215826928C0F0C1
:104830001282A0F16902D2B20123934049F24102EF
:10484000134214D113F0800F40F0DF8113F4806F16
:1048500000F00182189B1A1D1892D3F800A00A9B41
:10486000002B40F090814FF0FF32534674E16F28E7
:104870003DD005D858283CD0622803D1022304E05B
:10488000782838D026F010060A23582835D0692811
:1048900003D0642801D026F00C0616F4806F01D0F6
:1048A00026F0010669282BD0642829D016F4007F51
:1048B00040F0968016F4807F40F0AE8016F0400FF6
:1048C00000F0BF80189A111D1891127805960B9967
:1048D00004910A99039102930023019300923B46AD
:1048E0002A4649464046FFF7DFF9054629E00823F6
:1048F000CBE71023C9E71023C7E746F02006C6E739
:1049000016F4007F21D116F4807F42D116F0400FBB
:1049100058D0189A111D1891127882EAE271A1EB11
:10492000E27105960B9804900A9803900293D20FB7
:10493000019200913B462A4649464046FFF7B4F9AA
:1049400005460D9B01330D934BE6189A073222F072
:10495000070202F1080118915168126808460029FF
:1049600013DB08960B9C07940A9C0694049300237F
:104970000593C90F0291009201903B462A46494691
:104980004046FFF7DBF90546DBE7524261EB4100A9
:10499000E7E7189A111D1891126882EAE271A1EBFB
:1049A000E27105960B9804900A9803900293D20F37
:1049B000019200913B462A4649464046FFF774F96A
:1049C0000546BEE716F0800F05D0189A111D189104
:1049D000B2F90020A1E7189A111D189112689CE7FE
:1049E000189A073222F0070202F10801189108967E
:1049F0000B9907910A990691002104930591029160
:104A0000D2E90023CDE900233B462A4649464046E9
:104A1000FFF794F9054694E7189A111D1891059629
:104A20000B9904910A99039102930023019313684F
:104A300000933B462A4649464046FFF735F905466E
:104A40007FE716F0800F04D0189A111D1891128874
:104A50003CE7189A111D1891126837E746281AD0BA
:104A6000189B073323F0070303F1080218920496FA
:104A70000B9A03920A9A0292D3E90023CDE900230C
:104A80003B462A4649464046FFF7CAFB05460D9B72
:104A900001330D93A5E546F02006E1E7672801D034
:104AA000472801D146F40066452801D0472801D1A6
:104AB00046F02006189B073323F0070303F1080292
:104AC000189204960B9A03920A9A0292D3E9002351
:104AD000CDE900233B462A4649464046FFF790F978
:104AE00005460D9B01330D937BE516F002061CD0A5
:104AF00001241898031D189305F1010A3B462A4624
:104B000049460078C047AEB90D9B01330D93554619
:104B100067E5551C3B4649462020C04723462A46A8
:104B20005C1C9A45F5D81546E3E70123DDF82CA077
:104B30002A46F5E75246DDF82CA006E0561C3B4617
:104B400049462020C0472C463246651CA245F5D870
:104B50009246D9E701330A46197811B1511E002A4D
:104B6000F8D1A3EB0A0316F4806B03D00A9A9342A0
:104B700028BF134616F0020407D00C940A9E2A465A
:104B80005D469B4623E00A9A6FE6CDF830B02A4690
:104B900025460B9C07E002F1010B3B4649462020CD
:104BA000C04733465A465E1C9C42F4D8DDF830B00C
:104BB0002C4633460C940A9E5D469B4607E01E46F3
:104BC0000AF1010A541C3B464946C04722469AF85E
:104BD000000020B1002DF3D0731E002EEFD10C9CED
:104BE00015465B461CB90D9B01330D93F9E40B9EF2
:104BF00006E0551C3B4649462020C04723462A462E
:104C00005C1C9E42F5D81546EDE746F02106189B40
:104C10001A1D18921B680596082204920A9A03929C
:104C2000102202920022019200933B462A464946F6
:104C30004046FFF739F805460D9B01330D93D0E44C
:104C40006C1C3B462A4649462520C0470D9B013334
:104C50000D932546C5E46C1C3B462A464946C04791
:104C60000D9B01330D932546BBE4DFF82080ADE4B6
:104C7000BD4208D37A1E3B4649460020C04728461D
:104C80000FB0BDE8F08F2A46F5E700BFC13A00102B
:104C90000EB400B584B0014605AA52F8043B039255
:104CA00000924FF0FF320448FFF786FC04B05DF835
:104CB00004EB03B0704700BFB93A001000B585B0EF
:104CC00002900391009313464FF0FF3202A903486C
:104CD000FFF772FC05B05DF804FB00BFC33A00109B
:104CE00000BEFDE70346094A126842B1074A106850
:104CF0000344074A934206D8044A13607047034AA4
:104D000004491160F2E74FF0FF307047603C00202B
:104D100000000820FC490020002070474FF0FF30C1
:104D20007047000008B538B908461146044BD3E96E
:104D3000002300F035F908BD4FF0FF30FBE700BF5E
:104D400060650110431E012B09D810B508461446B2
:104D500001230022214600F0DDF8204610BD4FF06F
:104D6000FF3070474FF0FF3070474FF0FF30704713
:104D70004FF0FF30704702288CBF002001207047A1
:104D800008B5FFF7ADFF000000B583B08C461946AB
:104D90005AB11446064B01940093634602460548F7
:104DA00000F08CF90120FFF79BFF034B1C46F2E754
:104DB000A44C0110B44C01108C41011010B5EFF35C
:104DC0000583DBB203B100BEFEF780F8044C02E0BD
:104DD00054F8043B9847034B9C42F9D310BD00BFE5
:104DE000F84001101041011008B5034608461B6841
:104DF0001146984708BD0000F8B507460D4616460F
:104E0000437D13B1002420460CE003681146284678
:104E100098472EE03B7D10E03B68022115489847FB
:104E2000601C0134B44214DA002CF3DD2B1913F8A2
:104E3000013C0D2B14BF002301232A5D0A2AF0D167
:104E4000002BEED1A042E7DA3B68211A28449847AC
:104E5000E2E7B04203DA3B68311A28449847002E53
:104E600007DD354415F8013C0D2B14BF0023012349
:104E70003B75F8BD2866011038B50368BBB105461F
:104E80000B4B1C6806E0294651F8042B2046FFF71F
:104E9000B3FF24694CB12368002BFAD0054B1B6883
:104EA000002BF0D0A342F4D1EDE700232B6038BDF6
:104EB000303900205C3C002038B505460C460B68B4
:104EC000802B05D023685A1C22601C44257138BDF4
:104ED0000846FFF7D1FFF5E708B5FDF797FE074A4B
:104EE000821841F10003002B03DB05480FF0D4F8D2
:104EF00008BD4FF0FF326FF00043F6E740420F006D
:104F00001028002008B502480FF0AAF808BD00BF1D
:104F1000102800202DE9F04383B006460D46904648
:104F20001C46FFF7D9FF8146B5F1FF3F04D044B1DD
:104F3000174F184B1C6807E030460DF087FF0546F9
:104F4000F5E7154FF5E72469BCB12368002BFAD0CB
:104F5000124B1B680BB1A342F5D12A4631462046BD
:104F6000B847B8F1000FEED00A238DF807300122C0
:104F70000DF107012046B847E5E7B9F1000F03D16D
:104F8000284603B0BDE8F083FFF7BCFFF8E700BF99
:104F9000F94D001030390020E94D00105C3C002034
:104FA0002DE9F84307460E4691469846144B1C6877
:104FB00007E0A36823B131463846984700281CDC37
:104FC000246934B10F4D2D68002DF2D0A542F7D1E0
:104FD000EFE70D4B5B6A984508D80B4A926A4A4541
:104FE00009D2984502D06FF0010006E001200021AF
:104FF000FDF714FEDAE76FF00100BDE8F88300BFAB
:10500000303900205C3C002000000B40094A136846
:1050100002E003F110021B6943B113688342F8D127
:1050200031B90369136000230361704701B1106057
:10503000704700BF3039002010B5054B1C6800E0F8
:10504000246924B16368002BFAD09847F8E710BDB3
:105050003039002008B500F06DF808BD38B50546B8
:105060000DF0F4FE044601231A4601462846FFF7D8
:1050700051FFFFF7E1FF204638BD0000F0B5A3B0B7
:1050800004460E46FFF728FF05460023019301AFB3
:105090003346224639460848FFF710FE0446384694
:1050A000FFF7EAFEFFF7C8FF15B9204623B0F0BDB1
:1050B000FFF728FFF9E700BFB94E00100FB400B5A5
:1050C00083B004A951F8040B0191FFF7D7FF03B097
:1050D0005DF804EB04B07047024B1860024B196096
:1050E000704700BFAC380020B038002008B5FDF78D
:1050F0008DFD0E4A821841F10003002B11DB0C4894
:105100000EF0CAFF60B100214FF0FF3001F06AF9E4
:10511000002002F00FFC0028F5D105480EF0A0FF9A
:1051200008BD4FF0FF326FF00043E8E740420F0048
:10513000D849002010B54FF050431C68FDF7A8FB7C
:10514000FDF78AFCA0420DD10E4B1B7800F062FDEA
:1051500070B10D4B1B688BB101210C48FFF756FF56
:10516000012010BD0A4B0B4AC1210B48FFF70CFE72
:105170000A4B084ACC210848FFF706FE0248FDF713
:105180001BF9E9E774790110D84900205422002066
:10519000E44C011038660110EC4C01103C4D01103C
:1051A00008B5002002F086FB08BD000038B50446B3
:1051B0000D46FFF7F5FF90B3002002F095FB88B392
:1051C000FDF724FD1A4A821841F10003002B16DB7B
:1051D00018480EF061FF40B3FFF7E2FF18B100205E
:1051E00002F082FB80B900214FF0FF3001F0FAF8A5
:1051F0006FF002040F480EF033FF204638BD4FF029
:10520000FF326FF00043E3E72A462146002002F018
:1052100077FB04460028EDD16FF00204EAE76FF057
:105220000204EAE76FF00204E7E76FF00204E4E744
:1052300040420F00D8490020F8B507460D46FDF75B
:10524000E5FC2E4A821841F10003002B04DB2C48B8
:105250000EF022FF28B9F8BD4FF0FF326FF0004387
:10526000F5E7FFF79DFF002845D1264B00200021E0
:10527000C3E9000122480EF0F3FEECE700214FF0F5
:10528000FF3001F0AFF8002002F054FBFFF788FF79
:105290000028EFD0002002F0CBFBF8B1AC42E9DAF5
:1052A0002E1B002002F0C4FB864200DC30460028A2
:1052B000E4D002463919002002F098FB064600218E
:1052C0004FF0FF3001F08EF8002002F033FB344441
:1052D000FDF79CFC0B4BC3E90001DFE7FDF796FCF3
:1052E000084A13685268084E9B1942F10002834233
:1052F0008A41D3D2BEE70024D0E700BF40420F006E
:10530000D8490020B029002020A1070000B58BB0AB
:1053100045F24730FDF78AFD03460122092101A825
:105320009847042801D100230EE00A4B0A4A29219C
:105330000A48FFF729FDC3F10F0228326A4412F828
:10534000241C074AD1540133072BF4DD0BB05DF860
:1053500004FB00BF604D011048660110684D01104C
:10536000B84300200346024A03CA186059607047D8
:10537000B843002030B400F07F05C3094FEA450C64
:105380000CEBD01C244C04EB4C1C8CF8020083F07A
:1053900001008CF8010000208CF80300ACF8181014
:1053A0008CF81B20DBB9EA001C49114403EB4500D3
:1053B000194A02EB4012916003EB4501164A02EBD9
:1053C00041129268002111607DB903EB4502124B36
:1053D00003EB42135960124ADA6030BC704711493E
:1053E00001EBC501CCF80810E6E753B96A1ED200FC
:1053F0000D49114403EB4503074A02EB431359607F
:10540000EBE7691E094A02EBC10203EB4501024BBF
:1054100003EB41135A60E0E7643C00208400105025
:1054200000011050800010500C0010500800105067
:1054300008B5038B3F3323F03F03C27E022A08D016
:1054400008490A68C26013440B60074A934202D8B5
:1054500008BD5B00F4E7054B054A52210548FFF7FC
:1054600093FC00BF7C430020FF0F1050B84D01108B
:10547000AC660110FC4D011070B500F07F054FEADD
:10548000450C0CEBD0130C4C04EB4314FFF772FFEC
:1054900005B970BD218B2046FFF7CAFFE27EE368A5
:1054A00083F0A04383F4801343EA826343F0004314
:1054B00062681360EDE700BF643C002008B500F0AF
:1054C0007F035B0003EBD010024B03EB401000F0B6
:1054D00077F908BD643C002008B520B901210E20F1
:1054E000FCF78CFD08BD034B034A40F297110348BB
:1054F000FFF74AFC704E01109C660110FC4D011034
:1055000008B528B9002211468020FFF7D7FF08BD53
:10551000034B044A40F2A1110348FFF735FC00BFDA
:10552000704E01108C660110FC4D0110024B4FF4BF
:105530008032DA64704700BF0020115070B548BB5C
:10554000064600F01DF9174C0C23A367FF221649ED
:105550000E20FCF795FD40252A46002113480DF04A
:10556000EBF8002229461046FFF786FF0022294665
:105570008020FFF781FF0EF05FFD012525644FF0CD
:105580000053E3640A4BC4F890303046FFF7CEFF77
:10559000284670BD074B084A40F263110748FFF7E1
:1055A000F3FB00BF00001150F1030020643C002019
:1055B00010D00100704E0110C0660110FC4D0110AA
:1055C000044B197021B1044B4FF40032C3F8902002
:1055D000704700BFF4490020002011500B7813F0F1
:1055E0007F0F02D14B78052B00D070474B88DBB280
:1055F000014A1360F9E700BF00001150CA7802F0B9
:105600000302012A09D008B50B468988C1F30A01B3
:105610009878FFF731FF012008BD00207047000097
:1056200038B50846144601F07F035B0003EBD11345
:10563000064D05EB431501222146FFF79BFE21464F
:105640002846FFF7F5FE012038BD00BF643C00206E
:1056500038B50C468D7889881B48FFF72FFD01224D
:10566000A1882846FFF786FE05F07F00420002EB86
:10567000D512164B03EB4213DB68A3B1E909A488EA
:1056800001EB4001114A02EB41121483D17E83F0F9
:10569000A04383F4801343EA816343F000435268DC
:1056A0001360012038BD40F2092209490948FFF77B
:1056B00005FD4FF0E023D3F8F03D13F0010F00D0CB
:1056C00000BE0020EEE700BF7C4E0110643C0020CD
:1056D000746601109041011008B50EF0ADFC08BDD4
:1056E00010B530B9084611461A46FFF7E7FE01200B
:1056F00010BD034B034A4FF406710348FFF744FB08
:10570000704E011064660110FC4D011008B511F0D7
:105710007F0304D1CA090ED10220084A90665B00BB
:1057200003EBD1134FF400620021054800EB431056
:105730000EF0AEFC08BD0120EFE700BF00201150C5
:10574000643C002008B511F07F0300D108BD5B0068
:1057500003EBD113044800EB43100022C2706FF436
:1057600000610EF095FCF1E7643C002004E011F8C4
:10577000012B00F8012B1A46531E002AF7D170475F
:1057800008B54FF080530A4A136002F58052136047
:10579000084B9B6813F0805FFAD04FF480520021D1
:1057A00005480CF0C9FF054B09225A6708BD00BF28
:1057B0000020024000000240000010500000115084
:1057C00070B504460D461646837EABB9A68200230B
:1057D000E3820123A376256120460EF055FC20B11B
:1057E0000B4B4FF40032C3F8902020460EF048FCDB
:1057F00050B10123237770BD81780648FFF75EFC26
:1058000020460EF0F9FBE1E720460EF00DFCF2E732
:1058100000201150844F01100368EFF3108272B61C
:10582000D3E8CFCF0121BCF1000FF9D1C3E84C1F61
:10583000BCF1000FF4D1BFF35F8F426070470020CE
:105840007047000038B50546002408E0D21A1B4B0B
:1058500003EB4213DB68284698470134E4B2184B47
:105860001B782246991CA14215DBA342EED9154BA9
:105870001B6813EB4413EDD140F225221249134863
:10588000FFF71CFC4FF0E023D3F8F03D13F0010FBD
:1058900013D000BE11E00E4C5422002120460CF023
:1058A0004BFF4FF0FF336360A360E360236120226E
:1058B000FF2104F114000CF03FFF38BDC067011058
:1058C000F3490020002D00208C6701109041011049
:1058D000BC30002008B5FFF7B5FF00F0BDFF08BDE4
:1058E00070B505460C461646486900F0BFFF63696F
:1058F000324601212846984770BD00002DE9F04F3F
:1059000083B08246481EC0B2FBF7A6F920B1834699
:1059100043780193022B11D040F2D6326449654896
:10592000FFF7CCFB4FF0E023D3F8F03D13F0010F6D
:1059300000D000BE002003B0BDE8F08FC279C2F3F2
:1059400040105D4B197860F304111970C2F3801296
:10595000C9B262F3451119700BF10908BBF80230A6
:105960009B4480E098F8033098F80020904482E04F
:1059700040F2F1324E494F48FFF7A0FB4FF0E023D1
:10598000D3F8F03D13F0010F00D000BE0020D2E7A5
:10599000F31A4A4A02EB4319D9F810302A46414615
:1059A00050469847082801D985421ED20134E4B2F6
:1059B000434B1B7826469A1CA2424FDBA342E7D9F1
:1059C000404B1B6813EB4419E6D140F2FA323849D8
:1059D0003848FFF773FB4FF0E023D3F8F03D13F0A6
:1059E000010F00D000BE0020A5E73B464F46814690
:1059F000012B11D000218B4229D998F802200A44AA
:105A0000D2B22D4810440079FF2810D12A48024410
:105A100014710131C9B2EEE73A692B498A4204D0C8
:105A20002A498A42E6D1019BE4E7019BF8E740F26C
:105A300019421F491F48FFF741FB4FF0E023D3F8FD
:105A4000F03D13F0010F00D000BE002073E72346A5
:105A50004A4641461E4802F0F7FEC844184B1B78E0
:105A600002339E4212DCD84520D298F801300B2B2D
:105A70003FF478AF012398F80120042A7FF478AF2F
:105A8000ABEB0805ADB200241F4691E74FF48562E9
:105A900007490848FFF712FB4FF0E023D3F8F03D29
:105AA00013F0010F00D000BE002044E7012042E7C0
:105AB0006067011090410110BC300020C0670110E8
:105AC000F3490020002D0020A97B0010398400102C
:105AD000D03000207047704700207047002070478A
