:020000041000EA
:10000000002008205D0100101301001015010010F0
:100010001101001011010010110100101101001058
:100020001101001011010010110100101701001042
:100030001101001011010010190100101B01001026
:100040001D0100101D0100101D0100101D010010F8
:100050001D0100101D0100101D0100101D010010E8
:100060001D0100101D0100101D0100101D010010D8
:100070001D0100101D0100101D0100101D010010C8
:100080001D0100101D0100101D0100101D010010B8
:100090001D0100101D0100101D0100101D010010A8
:1000A0001D0100101D0100101D0100101D01001098
:1000B0001D0100101D0100101D0100101D01001088
:1000C0001D0100101D0100101D0100101D01001078
:1000D0001D0100101D0100101D0100101D01001068
:1000E0001D0100101D0100101D0100101D01001058
:1000F0001D0100101D0100101D0100101D01001048
:100100001D0100101D0100101D0100101D01001037
:1001100000BE00BE00BE00BE00BE00BEEFF3058004
:10012000103800BEF2EB8871D08A0010F88A0010F7
:10013000A801001090A31AE7D3DEFFFF42012110AF
:10014000FF01000060970000793512AB4FF000000E
:100150002049086006C881F3088810474FF05040D6
:10016000006810B14FF00000F2E70FA40ECC002998
:1001700002D000F015F8F9E71749184A002000E00E
:1001800001C19142FCD1002080F30A8814498847BC
:10019000144988471449884700BEFDE701C901C2D8
:1001A0009A42FBD3704700BFF88A0010100100206C
:1001B000B00E0020989800100000082000000820D1
:1001C000989800100010082000100820000000007F
:1001D0007047000008ED00E0B00E0020302A00203B
:1001E000A53300102D03001069330010F8B500BFCF
:1001F000064B0749C91A891048BF0131491003D07D
:10020000044B0BB101481847704700BFB00E0020E7
:10021000B00E00200000000008B5054B1BB10549D9
:100220000548AFF30080BDE80840FFF7E1BF00BF1D
:1002300000000000B42300200077001008B501F092
:10024000EDFB29B14FF47A72002307F019FA08BDCB
:10025000024BA3FB00308009F9E700BFD34D6210C9
:1002600080B507E0254A136801331360244B1B78DF
:10027000002B3CD1FFF7E2FF224B1B68C01AB0F500
:100280007A7FEFD3FFF7DAFF1E4B18601E4C1F4E2C
:10029000226831681E4803F0CFF9184D29681D48BF
:1002A00003F0CAF900232B601B4901220A701B4D81
:1002B000D5ED007AF8EE676A1948D0ED007AB8EE0D
:1002C000677AC6EE877A174AC2ED007AD4ED007AD3
:1002D000F8EE677A144AC2ED007A2A680768B2FB22
:1002E000F7F232602B60036023600B70BAE700F016
:1002F00093F8034B00221A70BCE700BF24190020BA
:100300002A2A002028190020A4230020E418002015
:10031000007700101C770010292A002018150020F3
:100320001C15002078190020A823002000B583B0F8
:1003300006F0EDFF00F0B8F800F06CF82B4B1B88CE
:10034000ADF8043001A9002006F052FC03F040F99A
:10035000FFF774FF264B1860264807F07DF821E070
:10036000FFF76CFF224D2860234C2168234803F0DF
:1003700063F92968224803F05FF900F001FC0023CB
:1003800023601CE0FFF75AFF1E4B18601E4B1878C5
:1003900080F00100187000F092F819E0164A136816
:1003A0000133136000214FF0FF3004F0D9FAFFF75A
:1003B00045FF0F4B1B68C01AB0F57A7FD0D2FFF70C
:1003C0003DFF104B1B68C01A104B1B689842D9D8D0
:1003D000FFF734FF0E4B1B689842DFD0FFF72EFF6C
:1003E0000B4B186000F0A8FBD8E700BF7483001027
:1003F0001C2A002061020010142A00203C77001003
:100400005C770010E81800202E2A0020E00D002064
:10041000182A002070470000184B986A0023184AD9
:100420001060536010E0174A02EB83021168164A0D
:1004300002EB83021160154A02EB83021168144A31
:1004400002EB8302116001332F2BECDD114B1B7883
:1004500093B90A4B9B6A1B1A0F4A13600F490A682B
:100460001A440A600E490A6801320A600D4A12688D
:10047000934201D90B4A1360704700BF00000B4044
:100480003810002024150020A4160020E4150020B8
:1004900064170020292A0020741900201815002054
:1004A0001C150020A423002008B5192000F098FB9B
:1004B00019234FF0010242EC4430002008BD1923FB
:1004C00040EC40307047000008B501F0A7FA29B1B0
:1004D0004FF47A72002307F0D3F808BD024BA3FB58
:1004E00000308009F9E700BFD34D621038B50546EA
:1004F000FFF7EAFF044604E000214FF0FF3004F06C
:100500002FFAFFF7E1FF001BA842F5D338BD704773
:1005100030B591B00446002005F08AFC08B911B04E
:1005200030BD002005F09EFC0028F8D0402269462E
:10053000204605F0A3FC02466946204605F014FD5E
:10054000204605F0B5FC002006F0EBFE3220FFF758
:10055000CDFF012006F0E5FE3220FFF7C7FF0020A7
:1005600006F0DFFEDBE7000008B5487902280FD16E
:100570004B78012B46D191F803C0BCF1010F16D086
:10058000BCF1020F37D1CB88022B21D000203AE0FA
:10059000B0221D491D4803F04FF84FF0E023D3F877
:1005A000F03D13F0010F00D000BE00202BE0CB88FF
:1005B000012B01D0002026E0887892F90020144B0E
:1005C0001A5489785A56134803F036F801201AE075
:1005D0008878B2F90020104B23F81020897833F97D
:1005E0001120002A05DB12120C4803F025F8012027
:1005F00009E0FF32F7E762460146094803F01CF8BC
:10060000002000E0002008BD9483001080770010D7
:10061000AC23002098770010202A0020B477001027
:10062000D477001008B5487904280CD14B78012BF9
:1006300027D191F803C0BCF1010F1BD1CB88042B4B
:1006400010D000201EE072220F49104802F0F4FF83
:100650004FF0E023D3F8F03D13F0010F00D000BEBF
:1006600000200FE011680A4B19600A4802F0E4FF0D
:10067000012007E062460146074802F0DDFF002046
:1006800000E0002008BD00BF7883001080770010D4
:10069000E40D0020287800104878001070B58AB06A
:1006A0000C46497904290CD10546E278012A17D075
:1006B000022A5AD06378354802F0BEFF00200AB003
:1006C00070BD44223249334802F0B6FF4FF0E023B8
:1006D000D3F8F03D13F0010F00D000BE0020EEE78C
:1006E0006378012B11D0022BE4D1002603960496E7
:1006F0000596069607960896ADF824600221ADF897
:100700000C10254802F098FF26E0244E316824485A
:1007100002F092FF33680393042303AA214628467C
:1007200005F0B4FACBE71F4B53F8262006EB460141
:100730000AAB03EB810141F81A2C41F8162C002377
:1007400021F8123C21F8103C00931346314616481C
:1007500002F072FF0136F6B2012EE4D91A2303AA81
:100760002146284605F092FAA9E76378012BA1D12A
:1007700001268DF80C6031460C4802F05DFF3346CF
:1007800003AA2146284605F081FA98E7007900106F
:10079000DC83001080770010B4780010E40D002096
:1007A00094780010FC830010D0780010E8780010D6
:1007B00070B584B00C464979022911D10546E2781A
:1007C000012A1CD0022A04D16378022B29D0012BE4
:1007D0003DD06378294802F02FFF002004B070BD9F
:1007E0008A222749274802F027FF4FF0E023D3F859
:1007F000F03D13F0010F00D000BE0020EEE763785B
:10080000012BDFD1A178204B5A568DF808201F48C4
:1008100002F012FF012302AA2146284605F036FA0B
:10082000DCE71B4B02AE93E8030086E803000123DC
:10083000009300236FF03102A178164802F0FCFE0D
:10084000082332462146284605F020FAC6E7A1785B
:10085000114B33F91130ADF808301A46002B0ADB82
:1008600012120E4802F0E8FE022302AA2146284690
:1008700005F00CFAB2E703F1FF02F1E7B8790010D6
:10088000B883001080770010AC2300204C79001052
:100890000484001068790010202A00209879001044
:1008A00008B50A464979042908D002290AD05378A4
:1008B000D278064802F0C0FE002008BD1146FFF7BE
:1008C000EDFEFAE71146FFF773FFF6E70C7A00102A
:1008D00008B58C46497902290AD004290CD09CF825
:1008E00001309CF80320064802F0A6FE002008BD57
:1008F0006146FFF739FEFAE76146FFF793FEF6E738
:10090000507A00108B88DBB24A88D2B2012B01D01A
:1009100001207047002AFBD1024B4FF47A721A6013
:10092000F6E700BFE00D00208A88D2B24B88DBB228
:10093000012A0AD0094A0021116023B1013B084A6B
:10094000D25C084B1A70012070471BB9034B002280
:100950001A60F8E7044A19211160EBE7082A002021
:10096000F88300102C2A0020E00D002038B50C463A
:10097000264D0A462946002004F0A0FF244B1860AB
:1009800000232449AC4635E0604630F9042B07EEDD
:10099000902AF8EEE77A9FED207A67EE877A1F4A71
:1009A00002EB8302C2ED007ABCF9022007EE902A26
:1009B000F8EEE77A67EE877A194A02EB8302C2ED16
:1009C000007A184A02EB8302D2ED007AFEEEE87A52
:1009D0008C4617EE902A2CF8042B134A02EB830E58
:1009E000DEED007AFEEEE87A17EE902A4A800133B7
:1009F000614684462F2BC7DD22460649002004F0BD
:100A000075FF0120094B187038BD00BFF823002086
:100A1000082A002024180020000000382415002097
:100A2000E4150020A4160020641700202A2A0020C4
:100A30000120704770B588B004460D461D4B5BB170
:100A400010210DEB010006F070FC6E08B0EB550FA5
:100A500000D80646002524E0174B049303F18833A1
:100A600005930820F1E7154BEE460FCB8DE80F00FC
:100A700005F120036B4413F8103C4FEA8C0213413C
:100A800003F00F03CCEB4502013220336B4413F823
:100A9000203C24F812300CF1010CBCF1010FE2D91A
:100AA0000135AE4202D94FF0000CF6E7700008B0F5
:100AB00070BD00BF2B73001001234567947A0010AE
:100AC00000487047F08500100048704710840010FF
:100AD00010B570B103281AD0062825D8134A52F849
:100AE0002040204606F08EFD202800D9202000233B
:100AF00017E00E4B1B681A880D4B5A800120431CCF
:100B00005B009BB243F440730948038010BD202171
:100B10000848FFF78FFFF2E7E15C0133044A22F84F
:100B200013109842F8D8EAE70020EFE7E80D00201C
:100B3000441200204612002000B583B017E001A93E
:100B4000002005F04BFD9DF804308DF800309DF835
:100B500005308DF801309DF806308DF802309DF893
:100B600007308DF803306946002005F07DFE002136
:100B7000084605F01FFD0028E1D103B05DF804FB35
:100B800010B5074C237803F07F03064A93700323C4
:100B90000021084605F040FD23780133237010BD85
:100BA0002B2A0020040E00200C4B03EB800253F88C
:100BB000203083F0400303F0C00302F5805CCCF8E2
:100BC0000030C00000F1804000F52030416002F5A7
:100BD00040524FF480731360704700BF048003409D
:100BE00008B54FF0000242EC440042EC4000052101
:100BF000FFF7DAFF08BD00000FB400B583B0049C16
:100C0000074802F0E9FC3CB105A90191204602F039
:100C1000F3FC044802F0E0FC012002F0A3FB00BF5B
:100C2000EC7A001094790010EFF3108072B6064B46
:100C3000D3E8CF1F01220029FAD1C3E8412F0029B0
:100C4000F6D1BFF35F8F7047DB1300200023034A08
:100C5000C2E88F3F80F31088704700BFDB1300208D
:100C600070B505460C461646FFF7DEFFE208A95CA4
:100C700004F0070C012303FA0CF3194205D1DBB28F
:100C80000B43AB54FFF7E2FF70BD21463046FFF740
:100C9000B3FFF8B506460D4614461F46FFF7C4FFDE
:100CA00000E00134BC420ED84FEAD40C16F80C1008
:100CB00004F0070301229A401142F2D1D2B20A4352
:100CC00006F80C2001E04FF0FF34FFF7BFFF002CC7
:100CD00001DB2046F8BD002DFBD00698FFF78CFF06
:100CE000054A1078431CDBB21370172B02D9134648
:100CF00010221A70704700BF070E002000B583B0A5
:100D00000146054B00931F2318220448FFF7C1FF3B
:100D100003B05DF804FB00BFFC7A0010F41800205B
:100D20004FF0E022936843F0005393607047000057
:100D3000002305E0044A1A440021C2E88F1F013352
:100D40001F2BF7D9704700BFD0130020064B9B68BC
:100D5000103043F82010BFF35F8F00230349C1E830
:100D60008F3F82F31088704700ED00E0D913002018
:100D70000048704700E400E008B5FFF7F9FF0023E2
:100D800004E04FF0803240F8042B01330C2BF8D9EB
:100D900008BD000008B50388DA0A1C2A06D15B05E5
:100DA0000BD45B15023300EB430008BD064B074A2A
:100DB00040F21511064802F0DBFA03F5FF1303F5C4
:100DC000FF531F33EDE700BF187B00102C86001087
:100DD000307B001008B5091A01F2FC7240F6FE7370
:100DE0009A4208D8081F11F0010F04D1C0F34A003D
:100DF00040F4604008BD034B034A40F2071103482A
:100E000002F0B6FA787B001020860010307B0010CC
:100E10004209064B53F8223000F01F0001228240A5
:100E200003EA0200003818BF0120704700E100E02B
:100E30003AB1064B00F1600243F8221043F820104B
:100E400070472030014B43F82010704700E100E06C
:100E500008B50A4600F01F03012199404009FFF739
:100E6000E7FF08BD024B9B68103053F82000704725
:100E700000ED00E070B505460C46EFF3108672B643
:100E80000F4BD3E8CF1F01220029FAD1C3E8412F2D
:100E90000029F6D1BFF35F8FFFF7E4FF094B9842BB
:100EA00001D0A04205D1324621462846FFF74EFF29
:100EB00070BD054B054AE721054802F059FA00BF0D
:100EC000D91300201D010010A87B001054860010CB
:100ED000307B00102DE9F04F87B000911546EFF3FD
:100EE000108A72B67C4BD3E8CF1F01220029FAD1B9
:100EF000C3E8412F0029F6D1BFF35F8F774B93F9F9
:100F00000040002C44DB804604EB4407744B03EBA9
:100F1000870797F90610714A1170724A926800F1BA
:100F2000100152F82190A9EB03022F2A3ED96E4BF3
:100F3000994534D14FF42143ADF80C304FEA4409C0
:100F400004EB4400664E06EB800068490230FFF770
:100F500041FFADF80E004BF60153ADF81030FF2302
:100F60008DF812308DF81350009B0593A14406EBC9
:100F7000890306AA12E9070083E8070047F0010980
:100F8000524649464046FFF7E1FE07B0BDE8F08F04
:100F9000574B584A40F27311574802F0E9F9574B42
:100FA000544A4FF4BD71544802F0E2F929F0010BA4
:100FB000ABEB0303524AA2FB0312D20802EB42023C
:100FC000B3EB820F0FD15B460026DA79AA4212D921
:100FD00093F90620002A0DDB02EB42021E46404B2D
:100FE00003EB8203F1E7474B424A40F28B11424840
:100FF00002F0BEF91E46A6B344F60103ADF80C306C
:101000004FF48F43ADF80E3096F906B0BBF1000FE8
:101010001ADA4BF60150ADF810008DF812B08DF8C9
:101020001350009B05933946301DFFF7D3FEB08067
:10103000B47104EB44042A4B03EB840306AA12E9BF
:10104000070083E807009BE7301DFFF7A3FE01467A
:1010500004EB4402224B03EB8203181DFFF7BAFE98
:10106000D9E74FF42143ADF80C306300019304EB52
:101070004406DFF86C9009EB86061C49B01CFFF7AC
:10108000A9FEADF80E005946301DFFF7A3FEADF8DE
:1010900010004AF6AA235A464946521A524153436F
:1010A0001B0D8DF812308DF81350009A0592019B9C
:1010B000234409EB830906AB13E9070089E807001D
:1010C00044F60103ABF800304FF48F43ABF8023025
:1010D00047F0010954E700BFD91300202D2A002052
:1010E000080E002000ED00E01D010010380E002069
:1010F000E07B00103C860010307B0010087C001064
:10110000ABAAAAAA307C001038B540F00104324BDB
:10111000E31A2F2B31D8EFF30581C9B2002933D060
:10112000EFF3108E72B62D4BD3E8CF5F0122002D66
:10113000FAD1C3E8452F002DF6D1BFF35F8F4AF6F1
:10114000AA230246244D521B524153431B0D4FFA12
:1011500083FC234B9B6853F82130A3421BD0002310
:10116000032B32D803EB43011B4A02EB810292F9B5
:101170000620624520D00133F2E71A4B1A4A4FF499
:101180001D711A4802F0F4F8194B174A40F2772102
:10119000164802F0EDF8124B9B68164A43F82120DE
:1011A000154B1A78827183F800C000230B4AC2E8FD
:1011B0008F3F8EF3108838BD074A02EB8101FF2470
:1011C0008C714BF601538B80EAE70C4B064A4FF4C7
:1011D0002271064802F0CCF8080E0020D913002036
:1011E00000ED00E0B47C001004860010307B00109D
:1011F000DC7C00101D0100102D2A0020E87C00106E
:10120000014B0B4403607047D013002010B5044617
:10121000FFF766FD01462046FFF7F2FFFF2323712B
:10122000BFF35F8F10BD10B50446FFF759FD0146AF
:101230002046FFF7E5FFFF23237100236371BFF30F
:101240005F8F10BD10B50D4C09E00D4B0D4A1A21F2
:101250000D4802F08DF82046FFF7D8FF08340B4BFD
:101260009C4209D22368002BF5D0012BEDD12046FA
:10127000FFF7D9FF0834F2E710BD00BFA00E002031
:10128000F07C001094860010107D0010B00E00203D
:10129000024B0B440360BFF35F8F7047D0130020F5
:1012A00010B504460120FFF729FD01462046FFF74F
:1012B000EFFF10BD0246EFF30583DBB2103B990848
:1012C00004D0034803F00303136070470148F9E7B3
:1012D00000800B4000000B4010B4846AA2EB040CA9
:1012E0000B1D50F823301B1B9C4504D3046A0123BB
:1012F0008B401C4202D1043140F821205DF8044BA0
:10130000704741EA004070470D4B1A68EFF31081B7
:1013100072B6D2E8CFCF0120BCF1000FF9D1C2E8FC
:101320004C0FBCF1000FF4D1BFF35F8F1A6800239C
:10133000C2E88F3F81F3108840BF00200021704732
:10134000F42300202DE9F04F85B003A8FFF7B2FF8A
:10135000954B984214BF00230123039901EB8303AB
:10136000924A52F823402378994206D10546012239
:101370008A4000F541535A602CE18D4B8D4A9221F1
:101380008D4801F0F5FFD4F8149006EB46074FEABC
:10139000C70A09EBC707D7F808B0D7F80C8028466A
:1013A00000F034FBB0EB0B0061EB0803002BC0F244
:1013B0001A81B8F1000F64DB3B691A4600937F4B3A
:1013C0009A4230D0798889B2B4F90800FFF799FFC2
:1013D0007969009B9847009001910099019A51EA20
:1013E00002034ED01346002A29DABBEB010268EB58
:1013F0000308BA60C7F80C8039F90A70002FC0F2F0
:10140000F280D4F814E007EB47030EEBC3039968AE
:10141000DB68511A68EB0303002BC0F2E480A4469A
:101420002CF8087F17E07A691369009210469847F4
:1014300038B3009A1368009353680193CDE72846A8
:1014400000F0E4FA009B1A18019B43EB0108D0E777
:101450009C463EF90B70002F0EDBBCF9003003EB0D
:1014600043034FEAC30B0EEBC3039868D968101A05
:1014700068EB01010029EBDA29F80A70ACF800608A
:10148000B1E039F90A3023812369EFF3108272B693
:10149000D3E8CF0F01210028FAD1C3E8401F00286C
:1014A000F6D1BFF35F8FB4F9023029F80A306680B5
:1014B00021690023C1E88F3F82F3108893E02369FC
:1014C000EFF3108272B6D3E8CF0F01210028FAD1D2
:1014D000C3E8401F0028F6D1BFF35F8FB4F8048043
:1014E0000FFA88F84FF6FF73A38021690023C1E843
:1014F0008F3F82F310881AE01F4630F90A60002EF1
:101500000FDBB7F9003003EB43034FEAC30A00EBEC
:10151000C3039968DA68BCEB01016EEB0202002A92
:10152000EADAA7F8008030F9098020F80960B8F1FC
:10153000000F5DDB606908EB48034FEAC30900EB6D
:10154000C303D3F808C0D3F80CE004F10807B4F9DA
:101550000860D4E70023A37104F1080CB4F9083043
:1015600010E04FF0FF384FF0FF39C0E90289B4F9BD
:101570000800984205D0ACF80020B4F90800C85320
:1015800023811346B3F1FF3F35D0616903EB43027A
:10159000D70001EBC20031F93220468816F4004F23
:1015A000DFD18446EDE700BF00800B40CC23002054
:1015B000A87D0010C0860010D47D001045130010D7
:1015C000284600F023FA3F1A66EB0106012F76F158
:1015D000000628DA039A01239340EB63B4F908600C
:1015E000002EBFF6D0AEA38813F4004F3FF467AFD0
:1015F000A379002BAED1B4F90830002B13DB62695C
:1016000003EB430302EBC3039F68DE68B6F1FF3FC1
:1016100008BFB7F1FF3FD3D03A4633460399284677
:10162000FFF75AFECCE740BF05B0BDE8F08F00BF22
:10163000F8B504460D4611460A4B984210D00026D4
:101640002E44012707FA05F525623046FFF712FC04
:1016500039463046FFF7FCFB04F501542560F8BD20
:101660000426EDE700800B40F8B504460E46174609
:101670001D46C160FFF734FB164B034423612770FE
:10168000ABB263814FF05042127862704FF6FF7236
:101690002281A280013B63804FF0000C08E00CF136
:1016A000FF300CEB4C0E636923F83E000CF1010C8B
:1016B000AC45F4D3084B9E4214BF0023012307EB33
:1016C0008303064A42F82340054A39463046FFF76D
:1016D000AFFFF8BDD013002000800B40CC230020CA
:1016E0004513001008B5054B1B690BB1034808BD35
:1016F000034B044A6521044801F03AFE500E0020D5
:10170000147E0010A8860010D47D0010F8B50446A1
:101710009E460069EFF3108172B6D0E8CF6F0125C5
:10172000002EFAD1C0E8465F002EF6D1BFF35F8FDE
:10173000B4F90250666905EB4500C70006EBC0002E
:10174000002D03DB36F907C0A4F802C04FF0000CEF
:101750002369C3E88FCF81F31088654533DB069991
:101760000161079941618260C0F80CE0418889B24B
:101770000131C1F30E0101B9012141802846FFF773
:10178000C0FD2369EFF3108272B6D3E8CFCF0121F9
:10179000BCF1000FF9D1C3E84C1FBCF1000FF4D12C
:1017A000BFF35F8FA388F353A58021690023C1E8AD
:1017B0008F3F82F31088E368217801228A4003F585
:1017C00001535A60F8BD4FF0FF30FBE770B582B0AF
:1017D000064615461C469DF8203033B900F01EF928
:1017E000854264EB010100290ADB079B0193069BFC
:1017F00000932A4623463046FFF788FF02B070BDAB
:101800000020FBE7F0B585B005460C4616461F469E
:10181000FFF768FF9DF828300293019700962A464B
:101820002346FFF7D3FF05B0F0BD03464089B0EB78
:10183000214F31DD10B50A14586902EB420200EB6A
:10184000C2001A69EFF3108C72B6D2E8CF4F5FF086
:10185000010E002CF9D1C2E844EF002CF5D1BFF302
:101860005F8F428892B289B28A420FD000201969F4
:101870000022C1E88F2F8CF3108830B1DA681B7812
:101880000121994002F50153596010BD42F4004214
:10189000428001209871EAE70020704710B50446A5
:1018A000FFF720FF2146FFF7C0FF10BD40787047CB
:1018B000F0B583B005460C46EFF30583DBB293B178
:1018C000384B5B6A8B4209D3364A926A824208D20D
:1018D0008B4201D0012002E0002000E0002003B094
:1018E000F0BD0120FBE7FFF7FDFEC768067838462C
:1018F00000F08CF82A1A64EB0101043657F8263000
:101900001B1A9A4271F1000112DB20BF254B5B6A62
:101910009C4209D8234A926AAA4207D29C4201D02B
:101920000120DCE70020DAE70020D8E70120D6E735
:10193000002300931C4A28462146FFF763FF002836
:1019400018DD184B5B6A9C4205D8164A926AAA4277
:1019500002D29C4200D120BFFFF7A0FF114B5B6A6F
:101960009C421BD80F4A926AAA4219D29C4213D0B9
:101970000120B4E70B4B5B6A9C4209D8094A926A82
:10198000AA4207D29C4201D00120A8E70020A6E786
:101990000020A4E70120A2E70020A0E700209EE7A6
:1019A00001209CE700000B4009130010004870471D
:1019B00000000B4010B50A4B1B6923B10A210948EE
:1019C000FFF71EFC10BDFFF7F1FF0446032100F0F6
:1019D0000BF81023032221460148FFF745FEEDE7EF
:1019E000500E0020F423002010B5054A054C064B8C
:1019F000A04214BF1846581CFFF732F910BD00BFB3
:101A0000387E001000800B40F81800200246436A20
:101A1000906A1946536A9942FAD1704708B502484C
:101A2000FFF7F4FF08BD00BF00000B4070B516467D
:101A3000049D00EB400C4FEA8C0C0CF1804C0CF533
:101A4000803CDCF80420AA4201D2CCF80450A0F17A
:101A5000040E5FFA8EFEBEF1010F28D90CF540523C
:101A60004FF4006414601E4A52F8202042B11C4C0E
:101A70006469B4FBF2F4013404EB4404033CFDD28A
:101A8000DCF8002082EA461202F0E0020CF58054F5
:101A90002260BEF1010F16D90CF500524FF400611F
:101AA0001160CCF804500E4A42F8203070BD012974
:101AB000D4D10CF5405203241460DCF8082012F055
:101AC000010FFAD0DCE7DCF800204A4002F0030204
:101AD0002260DCF8084001228A401442F9D0DBE79A
:101AE000FC18002010B582B04FF480340094FFF74A
:101AF0009DFF02B010BD0000014B53F8200070475D
:101B0000FC18002070B5049C344DB5FBF1FC344D3D
:101B10001544344EB54237D8B2FBFCF5A5F1100E92
:101B2000BEF5987F36D803F1FF3EBEF1060F37D8D9
:101B300004F1FF3EBEF1060F32D8BCEB121F35D8C0
:101B4000240344EA03440368002B35DB264B984208
:101B500042D00E2301229A40244B1A6003F5805391
:101B60001A60234B9B6832EA0303FAD10160856057
:101B700000F540520432212313600368002BFCDA85
:101B8000C4600823136070BD1A4B1B4A11211B4807
:101B900001F0EEFB1A4B184A1921184801F0E8FB36
:101BA000184B154A1C21154801F0E2FB164B124A4E
:101BB0002321124801F0DCFB036803F03F038B4252
:101BC000C4D18368C3F30B03AB42BFD1C36803F432
:101BD000EE23A342BAD1D6E70F23BBE7001BB70021
:101BE00080E84BD380F8A9320080054000200240F5
:101BF000000002405C7E0010D8860010AC7E001011
:101C0000F47E0010107F00105C7F0010054A00EB8E
:101C1000400302EB8303596000EB40008000012386
:101C2000135070470080104008B50023DB8A002263
:101C300042E800F212F4800F02D11021984708BD4B
:101C400004219847FBE70000034BD3F82838002B0A
:101C5000FAD0BFF35F8F704700000E40002207E00C
:101C6000054B13449B00BFF35F8F002119600132C5
:101C7000072AF5D9704700BF0382031008B5FFF7A4
:101C8000EDFF08BD074B4FF42A621A604FF48D72C6
:101C9000DA6003F50053044A1A60024B5B68002BBC
:101CA000FBDA70470080044000B0FA0010B504462B
:101CB00002E054F8043B9847014B9C42F9D310BD15
:101CC000F87600107047000008B50248FFF7EEFFF5
:101CD00008BD00BFB876001008B50248FFF7E6FF60
:101CE00008BD00BFE4760010064B074A1A6003F5F2
:101CF0008053064A1A60064B9A68044B9343FAD104
:101D0000704700BF002002407F3BEFEFF6FFF30378
:101D100000000240054BDB6CB3F5004F00D070476C
:101D2000034B4FF48022DA64F9E700BF0000115042
:101D3000002011504FF0E022D2F8881D034B0B43D6
:101D4000C2F8883D10EE3004704700BF0303300036
:101D5000054B6FF060421A60044B9B68DB4333F025
:101D60006043F9D1704700BF0030024000000240DC
:101D700008B545F25320FFF757FF03460420984764
:101D800008BD08B545F25320FFF74EFF034601207A
:101D9000984708BD08B5FEF7CBFF08BD38B5054C20
:101DA000A168054D4FF48872284605F0B5FBA56083
:101DB00038BD00BF00ED00E00000002038B5042071
:101DC000FFF79AFE064BA3FB0035AD0C002404E0A0
:101DD0002946E0B2FFF71AFF0134052CF8DD38BDC3
:101DE00083DE1B4330B583B0264B0022C3F884202A
:101DF000FFF748FF244B0122DA63224B5B6C012B77
:101E0000FBD1214B03221A631E4B9B6B012BFBD191
:101E10000224009405231D4A01211D48FFF772FE8C
:101E2000052500952B461B4A01211B48FFF76AFE3A
:101E30001A4B002221460420FFF754FE184C23467B
:101E4000002201212846FFF74DFE164D2B460022A9
:101E500011460820FFF746FE2B46002211460920B6
:101E6000FFF740FE2346002211460620FFF73AFE08
:101E70002346002211460720FFF734FEFFF79EFF9E
:101E800003B030BD0000014000300140002F685910
:101E900000000540008C864700800540001BB7000D
:101EA00080D1F008006CDC0286B003B451FC080459
:101EB000CDE9020151FC0904CDE9040151EC0A0409
:101EC000CDE9060103BCF047BDE800504EEC00C46C
:101ED000BDE800504EEC01C4BDE800504EEC02C419
:101EE00000BD000000B5FFF7DFFF02E010FE30F498
:101EF000F8D441EC100443EC112400EE010410EE80
:101F0000010480EE200451EC1004704700B5FFF787
:101F1000CBFF02E010FE30F4F8D441EC100443ECA7
:101F2000112400EE010410EE210480EE200451EC97
:101F30003004704700B5FFF7B7FF02E010FE30F441
:101F4000F8D410B541EC100443EC112451EC040416
:101F500053EC0524A0FB024C5FF0000EE0FB03CE27
:101F6000E1FB02CE4CEC20440024E1FB03E444EC12
:101F700030E480EE200451EC5004BDE8104070477E
:101F800000B5FFF791FF02E010FE30F4F8D441EC09
:101F9000100443EC112451EC2104A0FB01126FEA60
:101FA000820252FB100052FB12F252FB1000A0EB17
:101FB000D07C53EC04245CFB13F153EC1524A1FBFF
:101FC000022001FB030053EC4424A2EB000050FB71
:101FD0001CF24FEA111312EB017043EBE27140EA7D
:101FE000515020EA915020F0070053EC7524A0FBDB
:101FF000023C53EC752400FB03CC01FB02CC53ECF8
:102000000424ACEB824C40EA5C70A0F1010041EC8E
:10201000400480EE200451EC7004704700B5FFF7D7
:1020200043FF02E010FE30F4F8D440EC700400EE00
:10203000010410EE210480EE200451EC30047047BE
:1020400000B5FFF731FF02E010FE30F4F8D440ECA9
:10205000600400EE010410EE210480EE200451EC37
:102060003004704700B5FFF71FFF02E010FE30F4A8
:10207000F8D441EC800400EE010410EE010480EE7F
:10208000400410EE1304704700B5FFF70DFF02E0A7
:1020900010FE30F4F8D441EC800400EE010410EEA0
:1020A000010480EE400410EE3304704700B5FFF7E2
:1020B000FBFE02E010FE30F4F8D441EC100443ECD7
:1020C000112400EE010410EE3004C0F300707047DC
:1020D00000B5FFF7E9FE02E010FE30F4F8D443EC5F
:1020E000102441EC110400EE010410EE30F48CBF1A
:1020F00001200020704700BF00B5FFF7D5FE02E0C9
:1021000010FE30F4F8D443EC102441EC110400EE3E
:10211000010410EE30F42CBF01200020704700BFF6
:1021200000B5FFF7C1FE02E010FE30F4F8D441EC38
:10213000100443EC112400EE010410EE30F42CBF27
:1021400001200020704700BF00B5FFF7ADFE02E0A0
:1021500010FE30F4F8D441EC100443EC112400EEEE
:10216000010410EE30F48CBF01200020704700BF46
:10217000704720B108B50A684968904708BD7047A4
:102180000146002008E000EB8000531C0B60137830
:1021900003EB4003A3F130000A681378303BDBB255
:1021A000092BF0D970472DE9F04F83B005460E4654
:1021B00093461F46DDF830A00D9CDDF838900F9B4C
:1021C00013F0030F19D1A046019208E002F1010BB0
:1021D0003B4631462020A84708F101085A46C84529
:1021E000F4D3DDF804B008E0013C02F101083B46FD
:1021F00031461AF80400A8474246002CF4D10F9B40
:1022000013F0020F09D1104603B0BDE8F08F541C43
:102210003B4631462020A8472246A2EB0B034B4504
:10222000F5D3F0E72DE9F04385B099460C9D0D9C60
:102230009DF83880DDF840E0119F129E16F0020FE5
:1022400021D17FB116F0010F0CD0B8F1000F02D1EF
:1022500016F00C0F06D0013F04E04FF0300C05F8EB
:1022600004C00134744501D21F2CF6D916F0010FB9
:1022700009D0BC4207D21F2C05D84FF0300C05F80E
:1022800004C00134F2E716F0100F14D016F4806F7A
:1022900004D11CB1744522D0BC4220D00F9B102B1E
:1022A00033D00F9B022B3DD01F2C0ED84FF0300C9B
:1022B00005F804C001341F2C07D8B8F1000F39D03D
:1022C0004FF02D0C05F804C00134039602970194D9
:1022D00000954B46FFF767FF05B0BDE8F083B4F10A
:1022E000010C1DD00F9B102B0ED064460F9B102BA2
:1022F000D7D116F0200FD4D01F2CD2D84FF0580CC5
:1023000005F804C00134CFE7023C16F0200FEDD1F0
:102310001F2CEBD84FF0780C05F804C00134C3E74C
:102320006446BBE71F2CD0D84FF0620C05F804C000
:102330000134B9E716F0040F05D04FF02B0C05F867
:1023400004C00134C1E716F0080FBED04FF0200CD6
:1023500005F804C00134B8E7F0B591B0169C189D9B
:102360001B9E0CB926F0100616F4806E1DD064B3C7
:102370004FF0000E19E016F0200F24D04127BC4486
:102380005FFA8CFCACF10A0C5FFA8CFC0EF10107D1
:102390000EF1400EEE440EF820CCB4FBF5FCAC423E
:1023A00014D31F2F12D8BE466446B4FBF5FC05FBC0
:1023B0001C4C5FFA8CFCBCF1090FDCD80CF1300C22
:1023C0005FFA8CFCE2E76127D9E7274606961A9C5C
:1023D0000594199C049403959DF85C400294019720
:1023E00008AC0094FFF71EFF11B0F0BD2DE9F04FCF
:1023F00095B009900A910B929846DDF878B0DDF817
:102400007C90229D239F269E5BEA090201D126F043
:10241000100616F4806424D05BEA09022FD0002451
:102420001FE016F0200F28D041231344DBB20A3BF3
:10243000DBB204F1010A04F150020DEB020404F8CE
:10244000203C2A463B465846494605F019F9AB451B
:1024500079EB070915D3BAF11F0F12D854468346FA
:1024600089462A463B465846494605F009F9D2B204
:10247000092AD6D83032D3B2DBE76123D5E74FF053
:10248000000A0696259B0593249B049303959DF8CB
:1024900080300293CDF804A00CAB009343460B9A16
:1024A0000A990998FFF7BEFE15B0BDE8F08F00004D
:1024B0002DE9F04F93B004460D4617461E46DDE960
:1024C0001CAB52465B4650465946FFF7F3FD0028C9
:1024D00040F0F3804FF0FF32AD4B50465946FFF7C6
:1024E00037FE002840F0E9804FF0FF326FF4801390
:1024F00050465946FFF7F0FD002840F0DE800022EC
:10250000002350465946FFF7E7FD002840F0E680DB
:10251000CDE906AB209B13F480630F9301D1062312
:102520001E93DDE9062310461946CDE90A01079BF3
:1025300052EA030100F0DC80C3F30A50C3F3130333
:10254000904643F07F5949F44019A0F2FF30FFF75D
:1025500069FD7DA3D3E90023FFF7F0FC7CA3D3E959
:102560000023FFF7C3FCCDE908010022894B404658
:102570004946FFF7CFFC78A3D3E90023FFF7DEFC41
:1025800002460B46DDE90801FFF7B0FCFFF76EFDE0
:102590000890FFF747FD8046894671A3D3E90023E1
:1025A000FFF7CCFC00227C4BFFF7A0FCFFF75EFDA1
:1025B0000A906DA3D3E9002340464946FFF7BEFCCD
:1025C000804689460A98FFF72DFD69A3D3E90023C9
:1025D000FFF7B4FC02460B4640464946FFF79AFC1B
:1025E0008046894602460B46FFF7A8FCCDE90C0160
:1025F0000A9B03F2FF3300210022CDE90A121B05DA
:102600000B9300230A9342464B4640464946FFF748
:102610006DFCCDE9100142464B4600204FF0804151
:10262000FFF778FC8046894600225C4BDDE90C010F
:10263000FFF7AAFC00225A4BFFF758FC02460B4654
:10264000DDE90C01FFF7A0FC0022564BFFF74EFC22
:1026500002460B46DDE90C01FFF796FC02460B46ED
:1026600040464946FFF742FC02460B46DDE91001B1
:10267000FFF78AFC00224C4BFFF738FCDDE90A2308
:10268000FFF75CFC80468946CDE90A89DDE906232F
:10269000FFF75EFD50B1089B013B08930022404BC1
:1026A00040464946FFF770FCCDE90A01089B6333B9
:1026B000C62B46D84FF004081EE0209B04931F9BB6
:1026C00003931E9B0293CDE900AB33463A4629465D
:1026D000204600F0FDF813B0BDE8F08F9FED267B9B
:1026E0008DED067BCDF818A00BF10043079311E7A1
:1026F000002308934FF00408209B13F4006F5FD071
:10270000DDE90A1213460B4313D01DA3D3E90023BE
:10271000DDE90601FFF708FD002800F0B4801AA3E8
:10272000D3E90023DDE90601FFF7D6FC002800F01D
:10273000AA801E9A089B9A4238DDD31A013B1E9349
:1027400036E04FF00508D7E7FB799F501344D33F9D
:10275000B3C8608B288AC63F61436F63A787D23FA7
:1027600071A379094F930A401655B5BBB16B02406E
:10277000EF39FAFE422EE63F0000000000000000A4
:102780002D431CEBE2361A3F0000000080842E41EE
:10279000FFFFEF7F0000F83F0000E03F00002C400B
:1027A00000002440000018400000F03F00231E936A
:1027B000209B43F4806320934FF00008CDF82080E5
:1027C0001F9B984569D2A3EB0809209B13F00203D5
:1027D0000C9304D0B8F1000F01D04FF00009089B12
:1027E0003BB1DDE90A23DDE90601FFF7CDFBCDE9C9
:1027F00006010022002350465946FFF76DFC0028D1
:102800004ED1209B23F400630493CDF80C901E9BC3
:1028100002939DED067B8DED007B33463A462946BB
:10282000204600F055F8B8F1000F3FF454AF209B5C
:1028300013F0200F3CD04FF0450C00F10109334656
:10284000024629466046A047089981EAE172A2EB58
:10285000E1720523059308F1FF33049300230393EA
:102860000A230293CB0F0193009233464A4629462E
:102870002046FFF771FD0C9B002B3FF42CAF024666
:10288000DDF87C901EE01E9B002B99D00F9B002B47
:1028900096D01E9B013B1E9392E74FF0000994E7F0
:1028A000DDE90601024601F10043CDE90623A8E770
:1028B0004FF0650CC1E702F101083346294620209C
:1028C000A0474246D31B4B45F5D3104603E700BF54
:1028D0002DE9F04F2DED028B95B007900A919246AD
:1028E0009B46DDE92089229D42464B4640464946AB
:1028F000FFF7E0FB002835D14FF0FF326FF4801373
:1029000040464946FFF7E8FB00283AD14FF0FF3236
:10291000B14B40464946FFF71BFC002840D1AAA313
:10292000D3E9002340464946FFF712FC00284DD169
:10293000A7A3D3E9002340464946FFF7CDFB002873
:1029400044D10022002340464946FFF7C5FB00283A
:102950004AD100230B93249B13F4806F00F0B580C1
:10296000002454E0249B0393239B029303230193AD
:102970009A4B00935B4652460A990798FFF713FC5F
:102980001BE1249B0393239B029304230193944B09
:1029900000935B4652460A990798FFF704FC0CE146
:1029A000249B13F0040F0ED08E4B04222499039124
:1029B00023990291019200935B4652460A99079827
:1029C000FFF7F1FBF9E0884B0322EFE7249B049328
:1029D000239B03930295CDE900895B4652460A99F1
:1029E0000798FFF765FDE8E042464B4600200021CE
:1029F000FFF790FA8046894601230B93ABE704F179
:102A000050036B44302203F8202C013D01341F2C6D
:102A100001D8092DF3D840464946FFF727FB064663
:102A2000FFF700FB02460B4640464946FFF772FAA5
:102A30006E4B03EBC50393ED008B53EC182BFFF7A4
:102A40007DFA02460B46CDE90823FFF721FB074636
:102A5000FFF7FAFA02460B46DDE90801FFF75AFADA
:102A600002460B46CDE908230022614BFFF770FBBD
:102A700068B301373846FFF7E7FA02460B4651ECD8
:102A8000180BFFF73DFB08B1013600276DBB304640
:102A9000FFF7C8FA02460B4640464946FFF73AFAA6
:102AA000074688460022524BFFF716FB00284CD100
:102AB00000224F4B38464146FFF74AFB002844D1DD
:102AC00016F0010F41D001363FE0062548E700220D
:102AD000474BDDE90801FFF7FFFA0028D6D117B10F
:102AE00017F0010FD2D00137D0E71F2C17D8013DC6
:102AF000404BA3FB0723DB08194603EB8303A7EB3B
:102B00004303621C303304F150000DEB000404F861
:102B1000203C092F02D90F461446E6E714461F2C25
:102B20000AD86B1E45B104F150026A44302102F804
:102B3000201C1D460134F2E71F2C06D804F1500377
:102B40006B442E2203F8202C01341F2C17D82A4A5C
:102B500082FB0632F317C3EBA2031A4603EB83038F
:102B6000A6EB4303611C303304F150000DEB00046D
:102B700004F8203C16460AB10C46E6E70C46249BB6
:102B800003F00303012B39D01F2C09D80B9B002B1A
:102B900051D004F150036B442D2203F8202C013452
:102BA000249B0393239B029301940CAB00935B46FD
:102BB00052460A990798FFF7F6FA15B0BDEC028B5A
:102BC000BDE8F08FAFF300800000000065CDCD417F
:102BD0000000000065CDCDC1FFFFEF7FC87F001072
:102BE000CC7F0010BC7F0010C47F0010488700100D
:102BF0000000E03FCDCCCCCC67666666239BB3B1CA
:102C00000B9B1BB9249B13F00C0F12D0239B013B91
:102C10002393194606E004F150036B44302203F875
:102C2000202C01348C42AFD21F2CF4D9ACE723996D
:102C3000F8E72399F6E7249B13F0040F07D004F17B
:102C400050036B442B2203F8202C0134A8E7249B6B
:102C500013F0080FA4D004F150036B44202203F8B2
:102C6000202C01349CE700BF2DE9F04F8FB0804647
:102C700017460D938946002900F04F83002508E090
:102C80006C1C3B462A464946C0470D9B01330D93B9
:102C900025460D9B1878002800F042832528EFD1A7
:102CA00001330D9300261FE046F0010601320D921C
:102CB000012318E046F0020601320D92012312E0D2
:102CC00046F0040601320D9201230CE046F008069E
:102CD00001320D92012306E046F0100601320D92FA
:102CE000012300E000234BB30D9A1378203B102BF7
:102CF000F8D801A151F823F0CD2C0010E52C0010DC
:102D0000E52C0010D92C0010E52C0010E52C00104B
:102D1000E52C0010E52C0010E52C0010E52C00102F
:102D2000E52C0010C12C0010E52C0010B52C001073
:102D3000E52C0010E52C0010A92C00100A930D9B27
:102D40001A78A2F13003DBB2092B18D92A2A1BD03A
:102D50000A9B0B930D9B1A782E2A25D00D9A137877
:102D6000683B122B5CD8DFE803F0495BAC5B3B5B54
:102D70005B5B5B5B5B5B575B5B5B5B5BB1000DA8AD
:102D8000FFF7FEF90B90E5E7189B1A1D18921B68D8
:102D9000002B04DB0B930D9B01330D93DAE746F018
:102DA00002065B420B93F6E746F480665A1C0D92CE
:102DB0005A78A2F13003DBB2092B0CD92A2ACDD1E3
:102DC000189B1A1D18921C6824EAE4730A930D9B41
:102DD00001330D93C2E70DA8FFF7D2F90A90BDE7C2
:102DE00046F48071531C0D9353786C2B01D00E4622
:102DF00016E046F4407602320D9211E046F0800172
:102E0000531C0D935378682B01D00E4608E046F012
:102E1000C00602320D9203E046F4807601320D9234
:102E20000D9B1878672856D82528C0F06C82A0F131
:102E30002503422B00F26782DFE813F05A02650295
:102E4000650265026502650265026502650265024A
:102E5000650265026502650265026502650265023A
:102E6000650265026502650265026502650265022A
:102E700065026502650265026502650288016801F6
:102E800088016502650265026502650265026502E8
:102E900065026502650265026502650265026502FA
:102EA00065027100650265026502650265026502E0
:102EB0006502650265027100AF0171008801680159
:102EC000880146F4007601320D92A9E746F4807637
:102ED00001320D92A4E7782800F215826928C0F02B
:102EE0001282A0F16902D2B20123934049F2410259
:102EF000134214D113F0800F40F0DF8113F4806F80
:102F000000F00182189B1A1D1892D3F800A00A9BAA
:102F1000002B40F090814FF0FF32534674E16F2850
:102F20003DD005D858283CD0622803D1022304E0C4
:102F3000782838D026F010060A23582835D069287A
:102F400003D0642801D026F00C0616F4806F01D05F
:102F500026F0010669282BD0642829D016F4007FBA
:102F600040F0968016F4807F40F0AE8016F0400F5F
:102F700000F0BF80189A111D1891127805960B99D0
:102F800004910A99039102930023019300923B4616
:102F90002A4649464046FFF7DFF9054629E008235F
:102FA000CBE71023C9E71023C7E746F02006C6E7A2
:102FB00016F4007F21D116F4807F42D116F0400F25
:102FC00058D0189A111D1891127882EAE271A1EB7B
:102FD000E27105960B9804900A9803900293D20F21
:102FE000019200913B462A4649464046FFF7B4F914
:102FF00005460D9B01330D934BE6189A073222F0DC
:10300000070202F108011891516812680846002968
:1030100013DB08960B9C07940A9C069404930023E8
:103020000593C90F0291009201903B462A464946FA
:103030004046FFF7DBF90546DBE7524261EB410012
:10304000E7E7189A111D1891126882EAE271A1EB64
:10305000E27105960B9804900A9803900293D20FA0
:10306000019200913B462A4649464046FFF774F9D3
:103070000546BEE716F0800F05D0189A111D18916D
:10308000B2F90020A1E7189A111D189112689CE767
:10309000189A073222F0070202F1080118910896E7
:1030A0000B9907910A9906910021049305910291C9
:1030B000D2E90023CDE900233B462A464946404653
:1030C000FFF794F9054694E7189A111D1891059693
:1030D0000B9904910A9903910293002301931368B9
:1030E00000933B462A4649464046FFF735F90546D8
:1030F0007FE716F0800F04D0189A111D18911288DE
:103100003CE7189A111D1891126837E746281AD023
:10311000189B073323F0070303F108021892049663
:103120000B9A03920A9A0292D3E90023CDE9002375
:103130003B462A4649464046FFF7CAFB05460D9BDB
:1031400001330D93A5E546F02006E1E7672801D09D
:10315000472801D146F40066452801D0472801D10F
:1031600046F02006189B073323F0070303F10802FB
:10317000189204960B9A03920A9A0292D3E90023BA
:10318000CDE900233B462A4649464046FFF790F9E1
:1031900005460D9B01330D937BE516F002061CD00E
:1031A00001241898031D189305F1010A3B462A468D
:1031B00049460078C047AEB90D9B01330D93554683
:1031C00067E5551C3B4649462020C04723462A4612
:1031D0005C1C9A45F5D81546E3E70123DDF82CA0E1
:1031E0002A46F5E75246DDF82CA006E0561C3B4681
:1031F00049462020C0472C463246651CA245F5D8DA
:103200009246D9E701330A46197811B1511E002AB6
:10321000F8D1A3EB0A0316F4806B03D00A9A934209
:1032200028BF134616F0020407D00C940A9E2A46C3
:103230005D469B4623E00A9A6FE6CDF830B02A46F9
:1032400025460B9C07E002F1010B3B464946202036
:10325000C04733465A465E1C9C42F4D8DDF830B075
:103260002C4633460C940A9E5D469B4607E01E465C
:103270000AF1010A541C3B464946C04722469AF8C7
:10328000000020B1002DF3D0731E002EEFD10C9C56
:1032900015465B461CB90D9B01330D93F9E40B9E5B
:1032A00006E0551C3B4649462020C04723462A4697
:1032B0005C1C9E42F5D81546EDE746F02106189BAA
:1032C0001A1D18921B680596082204920A9A039206
:1032D000102202920022019200933B462A46494660
:1032E0004046FFF739F805460D9B01330D93D0E4B6
:1032F0006C1C3B462A4649462520C0470D9B01339E
:103300000D932546C5E46C1C3B462A464946C047FA
:103310000D9B01330D932546BBE4DFF82080ADE41F
:10332000BD4208D37A1E3B4649460020C047284686
:103330000FB0BDE8F08F2A46F5E700BF71210010FD
:1033400000B585B002900391009313464FF0FF3211
:1033500002A90348FFF788FC05B05DF804FB00BF35
:103360007321001000BEFDE708B5FFF7FBFF00006A
:1033700000B583B08C4619465AB11446064B0194E9
:10338000009363460246054800F056F90120FFF716
:10339000E9FF034B1C46F2E7D47F0010E47F0010E6
:1033A0007C77001010B5EFF30583DBB203B100BEEC
:1033B000FEF78AFC044C02E054F8043B9847034BA8
:1033C0009C42F9D310BD00BFF876001000770010C2
:1033D00008B5034608461B681146984708BD00001B
:1033E000F8B507460D461646437D13B10024204626
:1033F0000CE003681146284698472EE03B7D10E01C
:103400003B68022115489847601C0134B44214DA25
:10341000002CF3DD2B1913F8013C0D2B14BF0023F6
:1034200001232A5D0A2AF0D1002BEED1A042E7DA6F
:103430003B68211A28449847E2E7B04203DA3B6828
:10344000311A28449847002E07DD354415F8013C11
:103450000D2B14BF002301233B75F8BD9887001086
:1034600038B50368BBB105460B4B1C6806E029461E
:1034700051F8042B2046FFF7B3FF24694CB12368B1
:10348000002BFAD0054B1B68002BF0D0A342F4D1DF
:10349000EDE700232B6038BD70190020981C002038
:1034A00038B505460C460B68802B05D023685A1C9E
:1034B00022601C44257138BD0846FFF7D1FFF5E7AF
:1034C00008B5FEF7ABFA074A821841F10003002B5A
:1034D00003DB054804F0ECF808BD4FF0FF326FF055
:1034E0000043F6E740420F00A80E002008B502484E
:1034F00004F0CAF808BD00BFA80E00202DE9F04373
:1035000083B006460D4690461C46FFF7D9FF81461C
:10351000B5F1FF3F04D044B1174F184B1C6807E0CA
:10352000304604F06FF80546F5E7154FF5E72469D6
:10353000BCB12368002BFAD0124B1B680BB1A3421D
:10354000F5D12A4631462046B847B8F1000FEED0F3
:103550000A238DF8073001220DF107012046B847F4
:10356000E5E7B9F1000F03D1284603B0BDE8F083C9
:10357000FFF7BCFFF8E700BFE1330010701900202F
:10358000D1330010981C0020094A136802E003F1AF
:1035900010021B6943B113688342F8D131B9036942
:1035A000136000230361704701B11060704700BFD2
:1035B0007019002010B5054B1C6800E0246924B187
:1035C0006368002BFAD09847F8E710BD7019002007
:1035D00008B500F06DF808BD38B5054604F012F8DE
:1035E000044601231A4601462846FFF787FFFFF7E6
:1035F000E1FF204638BD0000F0B5A3B004460E46FA
:10360000FFF75EFF05460023019301AF33462246D4
:1036100039460848FFF794FE04463846FFF720FF76
:10362000FFF7C8FF15B9204623B0F0BDFFF75EFFD6
:10363000F9E700BFA13400100FB400B583B004A9AE
:1036400051F8040B0191FFF7D7FF03B05DF804EBCD
:1036500004B07047024B1860024B1960704700BFFE
:10366000EC180020F018002008B5FEF7D7F90E4A34
:10367000821841F10003002B11DB0C4804F018F80C
:1036800060B100214FF0FF3001F06AF9002002F034
:103690000FFC0028F5D1054803F0F6FF08BD4FF0F8
:1036A000FF326FF00043E8E740420F000C2A002091
:1036B00010B54FF050431C68FEF714F8FEF7F6F80B
:1036C000A0420DD10E4B1B7800F062FD70B10D4B86
:1036D0001B688BB101210C48FFF756FF012010BD7C
:1036E0000A4B0B4AC1210B48FFF742FE0A4B084A1E
:1036F000CC210848FFF73CFE0248FDF787FDE9E7CB
:10370000F48A00100C2A0020680E0020148000109B
:10371000A88700101C8000106C80001008B50020E5
:1037200002F086FB08BD000038B504460D46FFF7E1
:10373000F5FF90B3002002F095FB88B3FEF76EF919
:103740001A4A821841F10003002B16DB184803F0D7
:10375000AFFF40B3FFF7E2FF18B1002002F082FB99
:1037600080B900214FF0FF3001F0FAF86FF0020449
:103770000F4803F089FF204638BD4FF0FF326FF04D
:103780000043E3E72A462146002002F077FB044687
:103790000028EDD16FF00204EAE76FF00204EAE7D7
:1037A0006FF00204E7E76FF00204E4E740420F0025
:1037B0000C2A0020F8B507460D46FEF72FF92E4AD1
:1037C000821841F10003002B04DB2C4803F070FF4A
:1037D00028B9F8BD4FF0FF326FF00043F5E7FFF76F
:1037E0009DFF002845D1264B00200021C3E90001A0
:1037F000224803F049FFECE700214FF0FF3001F0D1
:10380000AFF8002002F054FBFFF788FF0028EFD04C
:10381000002002F0CBFBF8B1AC42E9DA2E1B00200D
:1038200002F0C4FB864200DC30460028E4D00246A9
:103830003919002002F098FB064600214FF0FF30B6
:1038400001F08EF8002002F033FB3444FEF7E6F876
:103850000B4BC3E90001DFE7FEF7E0F8084A136805
:103860005268084E9B1942F1000283428A41D3D22A
:10387000BEE70024D0E700BF40420F000C2A002022
:103880003010002020A1070000B58BB045F2473072
:10389000FEF7CAF903460122092101A89847042826
:1038A00001D100230EE00A4B0A4A29210A48FFF7FA
:1038B0005FFDC3F10F0228326A4412F8241C074A44
:1038C000D1540133072BF4DD0BB05DF804FB00BFCE
:1038D00090800010B887001098800010EC23002022
:1038E0000346024A03CA186059607047EC2300205F
:1038F00030B400F07F05C3094FEA450C0CEBD01C37
:10390000244C04EB4C1C8CF8020083F001008CF872
:10391000010000208CF80300ACF818108CF81B2074
:10392000DBB9EA001C49114403EB4500194A02EBDC
:103930004012916003EB4501164A02EB4112926876
:10394000002111607DB903EB4502124B03EB4213DA
:103950005960124ADA6030BC7047114901EBC50169
:10396000CCF80810E6E753B96A1ED2000D4911449D
:1039700003EB4503074A02EB43135960EBE7691E6B
:10398000094A02EBC10203EB4501024B03EB411371
:103990005A60E0E79C1C0020840010500001105089
:1039A000800010500C0010500800105008B5038B18
:1039B0003F3323F03F03C27E022A08D008490A6839
:1039C000C26013440B60074A934202D808BD5B00F3
:1039D000F4E7054B054A52210548FFF7C9FC00BF33
:1039E000B0230020FF0F1050E88000101C8800104A
:1039F0002C81001070B500F07F054FEA450C0CEBF0
:103A0000D0130C4C04EB4314FFF772FF05B970BDE3
:103A1000218B2046FFF7CAFFE27EE36883F0A043D4
:103A200083F4801343EA826343F0004362681360C7
:103A3000EDE700BF9C1C002008B500F07F035B0091
:103A400003EBD010024B03EB401000F077F908BDF8
:103A50009C1C002008B520B901210E20FDF7F8F9C3
:103A600008BD034B034A40F297110348FFF780FC5F
:103A7000A08100100C8800102C81001008B528B916
:103A8000002211468020FFF7D7FF08BD034B044AF0
:103A900040F2A1110348FFF76BFC00BFA0810010AA
:103AA000FC8700102C810010024B4FF48032DA6446
:103AB000704700BF0020115070B548BB064600F0AB
:103AC0001DF9174C0C23A367FF2216490E20FDF7A2
:103AD00001FA40252A460021134803F0CFFC0022BA
:103AE00029461046FFF786FF002229468020FFF76F
:103AF00081FF03F0D5FD012525644FF00053E364F9
:103B00000A4BC4F890303046FFF7CEFF284670BD10
:103B1000074B084A40F263110748FFF729FC00BF32
:103B200000001150990300209C1C002010D00100BF
:103B3000A0810010308800102C810010044B1970F7
:103B400021B1044B4FF40032C3F89020704700BFFE
:103B5000272A0020002011500B7813F07F0F02D18C
:103B60004B78052B00D070474B88DBB2014A1360BD
:103B7000F9E700BF00001150CA7802F00302012AE1
:103B800009D008B50B468988C1F30A019878FFF778
:103B900031FF012008BD00207047000038B50846FD
:103BA000144601F07F035B0003EBD113064D05EBD8
:103BB000431501222146FFF79BFE21462846FFF7C9
:103BC000F5FE012038BD00BF9C1C002038B50C4616
:103BD0008D7889881B48FFF72FFD0122A188284690
:103BE000FFF786FE05F07F00420002EBD512164B70
:103BF00003EB4213DB68A3B1E909A48801EB4001A0
:103C0000114A02EB41121483D17E83F0A04383F466
:103C1000801343EA816343F000435268136001203C
:103C200038BD40F2092209490948FFF705FD4FF068
:103C3000E023D3F8F03D13F0010F00D000BE0020C8
:103C4000EEE700BFAC8100109C1C0020E487001050
:103C50008077001008B503F023FD08BD10B530B91A
:103C6000084611461A46FFF7E7FE012010BD034B38
:103C7000034A4FF406710348FFF77AFBA081001056
:103C8000D48700102C81001008B511F07F0304D1F7
:103C9000CA090ED10220084A90665B0003EBD113DB
:103CA0004FF400620021054800EB431003F0FCFCD8
:103CB00008BD0120EFE700BF002011509C1C002030
:103CC00008B511F07F0300D108BD5B0003EBD113F1
:103CD000044800EB43100022C2706FF4006103F04F
:103CE000E3FCF1E79C1C002004E011F8012B00F834
:103CF000012B1A46531E002AF7D1704708B54FF022
:103D000080530A4A136002F580521360084B9B6887
:103D100013F0805FFAD04FF480520021054803F081
:103D2000ADFB054B09225A6708BD00BF00200240C9
:103D300000000240000010500000115070B5044611
:103D40000D461646837EABB9A6820023E38201238B
:103D5000A3762561204603F09BFC20B10B4B4FF46A
:103D60000032C3F89020204603F096FC50B10123A6
:103D7000237770BD81780648FFF75EFC204603F08C
:103D800073FCE1E7204603F077FCF2E700201150D6
:103D9000B48200100368EFF3108272B6D3E8CFCF7D
:103DA0000121BCF1000FF9D1C3E84C1FBCF1000F99
:103DB000F4D1BFF35F8F426070470020704700006E
:103DC00038B50546002408E0D21A1B4B03EB42131A
:103DD000DB68284698470134E4B2184B1B7822462A
:103DE000991CA14215DBA342EED9154B1B6813EBBE
:103DF0004413EDD140F2252212491348FFF71CFC71
:103E00004FF0E023D3F8F03D13F0010F13D000BEC4
:103E100011E00E4C54220021204603F02FFB4FF0FE
:103E2000FF336360A360E36023612022FF2104F17C
:103E3000140003F023FB38BD30890010262A00202F
:103E400040100020FC88001080770010FC13002038
:103E500008B5FFF7B5FF00F0BDFF08BD70B505461A
:103E60000C461646486900F0BFFF636932460121DF
:103E70002846984770BD00002DE9F04F83B0824678
:103E8000481EC0B2FCF720FE20B183464378019360
:103E9000022B11D040F2D63264496548FFF7CCFBC3
:103EA0004FF0E023D3F8F03D13F0010F00D000BE37
:103EB000002003B0BDE8F08FC279C2F340105D4B23
:103EC000197860F304111970C2F38012C9B262F359
:103ED000451119700BF10908BBF802309B4480E0D2
:103EE00098F8033098F80020904482E040F2F132D4
:103EF0004E494F48FFF7A0FB4FF0E023D3F8F03DC9
:103F000013F0010F00D000BE0020D2E7F31A4A4A96
:103F100002EB4319D9F810302A46414650469847DB
:103F2000082801D985421ED20134E4B2434B1B78E4
:103F300026469A1CA2424FDBA342E7D9404B1B689E
:103F400013EB4419E6D140F2FA3238493848FFF70A
:103F500073FB4FF0E023D3F8F03D13F0010F00D0D6
:103F600000BE0020A5E73B464F468146012B11D0FD
:103F700000218B4229D998F802200A44D2B22D4858
:103F800010440079FF2810D12A48024414710131ED
:103F9000C9B2EEE73A692B498A4204D02A498A42DB
:103FA000E6D1019BE4E7019BF8E740F219421F4983
:103FB0001F48FFF741FB4FF0E023D3F8F03D13F02B
:103FC000010F00D000BE002073E723464A46414659
:103FD0001E4802F0F7FEC844184B1B7802339E427D
:103FE00012DCD84520D298F801300B2B3FF478AF83
:103FF000012398F80120042A7FF478AFABEB080581
:10400000ADB200241F4691E74FF485620749084886
:10401000FFF712FB4FF0E023D3F8F03D13F0010F50
:1040200000D000BE002044E7012042E7D088001005
:1040300080770010FC13002030890010262A002011
:104040004010002025610010B569001010140020F8
:10405000704770470020704700207047002070476D
:1040600038B505460C464B881A0AD8B2531E0E2B9B
:1040700064D8DFE803F0082D4E6363592D63636352
:10408000636363632200FCF71BFD024628B1122321
:104090002146284600F048FE51E040F23A422C49C1
:1040A0002C48FFF7C9FA4FF0E023D3F8F03D13F0A6
:1040B000010F00D000BE002041E0FFF7CBFF024619
:1040C00000283DD043882146284600F02DFE36E0EA
:1040D000022A09D0FFF7C2FF024698B3538821464F
:1040E000284600F021FE2AE0FCF7EEFC02460028FC
:1040F000F4D140F2614216491648FFF79DFA4FF09D
:10410000E023D3F8F03D13F0010F00D000BE0020F3
:1041100015E0A188FCF7DCFC0246A8B10378214633
:10412000284600F001FE0AE0FFF796FF024668B15C
:1041300003782146284600F0F7FD00E0002038BD56
:104140000020FCE70020FAE70020F8E70020F6E76F
:10415000B88800108077001070477047704770472C
:10416000014B9878704700BFFC130020034B587830
:10417000C0B2003818BF0120704700BFFC130020F8
:10418000024B1878C0F38000704700BFFC1300207A
:10419000024B1878FF3818BF012070479C0E002092
:1041A000F8B506460D46FFF7F3FF0746002854D141
:1041B00005B354220021374803F060F9364B002242
:1041C0001A70364C2046FDF721F8354B1C60354CF3
:1041D0002046FDF765F8143C204603F060F8324BAA
:1041E0001C60324B23B13248AFF30080314B186072
:1041F000002417E04FF4E9722F493048FFF71CFA0A
:104200004FF0E023D3F8F03D13F0010F25D000BEAE
:1042100023E0D21A2A4B03EB42135B687BB1984729
:104220000134E4B2224B1B782246991CA14216DBD2
:10423000A342EED91F4B1B6813EB4413EDD14FF48F
:10424000F8721D491D48FFF7F7F94FF0E023D3F846
:10425000F03D13F0010F00D000BE3846F8BD194BF9
:104260001E7029463046FFF727FC074618B1304636
:10427000FFF7F0FBF1E74FF4FC720F490F48FFF72F
:10428000DBF94FF0E023D3F8F03D13F0010FE4D059
:1042900000BEE2E7FC130020282A0020F4130020CF
:1042A00050140020940E0020541400200000000040
:1042B000262A00204010002020890010807700105E
:1042C000308900109C0E002070B51A4B1E788B7838
:1042D00013F0700F0ED10C46174B9978204602F060
:1042E00001FD0546B0B121463046FFF745FC0546C5
:1042F000284670BD40F20B5210491148FFF79CF957
:104300004FF0E023D3F8F03D13F0010F00D000BED2
:104310000025EDE740F20C5208490948FFF78CF9F7
:104320004FF0E023D3F8F03D13F0010FE0D000BED2
:10433000DEE700BF9C0E0020FC13002088880010E0
:10434000807700102DE9F84F80460C4616461F4630
:10435000DDF82890DDF82CA0002526E040F2E742A9
:104360001F492048FFF768F94FF0E023D3F8F03DEC
:1043700013F0010F00D000BE4FF0000B5846BDE80F
:10438000F88F4FF49D6216491648FFF755F94FF024
:10439000E023D3F8F03D13F0010FEFD000BEEDE7BE
:1043A0008AF8003023781C440135AE4214DD63786E
:1043B000052BD3D1E17801F00301B942CED12146DA
:1043C0004046FFF781FF83460028DAD0A378DA0958
:1043D000E6D189F80030E5E74FF0010BCEE700BFEA
:1043E000988800108077001008B501F07F00400029
:1043F00000EBD1103030044B1844044B19680430E2
:1044000002F02AFC08BD00BFFC130020501400205D
:1044100008B501F07F00400000EBD1103030044BB4
:104420001844044B1968043002F03EFC08BD00BF7C
:10443000FC1300205014002070B51F48007801F0D4
:104440007F051E4C04EB450C0CEBD11C9CF8344052
:1044500014F0010F1FD1CE09184C04EB450434446D
:1044600094F834C04CF0010C84F834C03034FFF7B9
:10447000F5FBF8B9227922F001022271227922F0AB
:10448000040222714FF0E023D3F8F03D13F0010F46
:1044900010D000BE0EE040F2395209490948FFF73A
:1044A000CBF84FF0E023D3F8F03D13F0010F00D02C
:1044B00000BE002070BD00BF9C0E0020FC13002039
:1044C000788800108077001038B501F07F05CC099E
:1044D0000A4B1878FFF7D8FB094B03EB450323443D
:1044E00093F8342042F0020283F8342093F8342009
:1044F00042F0010283F8342038BD00BF9C0E00203A
:10450000FC13002038B501F07F05CC090A4B187860
:10451000FFF7D6FB094B03EB4503234493F8342004
:1045200022F0020283F8342093F8342022F00102B2
:1045300083F8342038BD00BF9C0E0020FC130020FF
:1045400001F07F02044B03EB420303EBD11191F81E
:104550003400C0F340007047FC1300202DE9F04107
:1045600082B006460C46002000F03EFC237803F0A3
:104570006003602B21D0402B32D0227802F01F0242
:10458000012A00F00181022A00F04281002A40F055
:10459000C981202B2ED0002B4DD16378092B00F23E
:1045A000E880DFE813F0D300C300E600B300E600C4
:1045B0005200AD00E60061006E004FF43572B24962
:1045C000B248FFF739F84FF0E023D3F8F03D13F08D
:1045D000010F00D000BE0025284602B0BDE8F081E2
:1045E000AB4800F001FC224601213046FFF7E5FB15
:1045F0000546F1E7A388DBB20F2B00F29D81A54AA7
:1046000013441B79A44A1278934206D2A34A116834
:1046100011EB431109D10025DEE7911C9942C0F24C
:104620008D819B1A9E4901EB431122463046FFF7CC
:1046300015FC0546D0E74FF0E023D3F8F03D13F02A
:10464000010F00D000BE0025C6E7204600F0D2FBD7
:104650006188C9B23046FFF711FA8E4A137843F0E9
:10466000020313700125B7E78A4B5B788DF806309B
:1046700001230DF106022146304600F055FB0125CD
:10468000AAE76588EDB2834B5B78AB4232D0814BB1
:104690005B785BB97F4B5D7055B329463046FFF7B9
:1046A000EBFB054690B1FFF757FD23E000213046B4
:1046B000FFF744FA3046FFF7CDFA764F97F80280BD
:1046C0003046FFF77DFB87F80280E3E74FF449723D
:1046D0006D496E48FEF7B0FF4FF0E023D3F8F03D90
:1046E00013F0010F00D000BE6A4B00225A7073E72E
:1046F000FFF733FD2146304600F002FB01256BE752
:1047000021463046FFF7ACFC054665E76388012B80
:1047100001D0002560E75F4A137843F00803137067
:104720002146304600F0ECFA012555E76388012B5D
:1047300001D0002550E7574A137823F0080313707F
:104740002146304600F0DCFA012545E7514B1A7846
:10475000930803F00203C2F340121343ADF806308E
:1047600002230DF106022146304600F0DDFA012554
:1047700032E74FF0E023D3F8F03D13F0010F00F0E3
:10478000DF8000BE002527E7A388DBB20F2B00F2F5
:10479000D980404A13441B793F4A1278934222D26F
:1047A0003E4A116811EB431100F0CE80224630469C
:1047B000FFF754FB054600287FF40EAF237813F073
:1047C000600F7FF409AF63780A3B012B3FF604AF1B
:1047D00000F00AFB63780A2B0ED02146304600F029
:1047E0008FFA0125F8E6911C9942C0F2AF809B1A1E
:1047F0002B4901EB4311D9E700238DF80630012343
:104800000DF106022146304600F08EFA0125E3E65E
:10481000A288D1B202F07F05C2F3C01012F0700F6F
:1048200017D11C4A02EB45020244127D1A48007857
:1048300082421ED21948056805EB421593B3002D3C
:1048400000F08680224629463046FFF707FB0546E2
:10485000C2E640F295320C490C48FEF7EDFE4FF0EF
:10486000E023D3F8F03D13F0010F00D000BE002587
:10487000B2E6851C954204DB121A094D05EB421580
:10488000DCE70025DAE700BFE4880010807700103D
:10489000BB3D0010FC130020262A00204010002001
:1048A000308900106378012B10D0032B0ED07BBB16
:1048B0003046FFF745FEADF8060002230DF1060273
:1048C0002146304600F030FA012585E6628822B99B
:1048D000012B19D03046FFF7F7FD002D3AD02246C4
:1048E00029463046FFF7BAFA002000F07DFA1B4B4C
:1048F00093F8355015F001057FF46EAE2146304631
:1049000000F0FEF9012567E63046FFF7FBFDE4E71E
:104910004FF0E023D3F8F03D13F0010F00D000BEBC
:10492000002559E64FF0E023D3F8F03D13F0010FD6
:1049300012D000BE00254FE600254DE600254BE6CF
:10494000002549E6002547E6002545E6002543E623
:10495000002541E601253FE600253DE6FC13002049
:1049600010B584B0FFF714FC48B904B010BD9DF831
:104970000400FFF76DFA9DF808207F4B9A707F4B7B
:104980001C6804F11400FFF705FA01A9204602F0A3
:104990002EFC6169A3690022C1E88F2F83F3108880
:1049A0000028E2D09DF80530013B072B00F2DA80A9
:1049B00001A252F823F000BF6F490010D94900103E
:1049C000514B0010174B0010314B0010E7490010FD
:1049D0007D4A0010434B00109DF80400FFF738FAA1
:1049E000FFF7BBFBCBE7664B1B78002B36D0644A46
:1049F0001378013BDBB213701378002BBFD15E4BF1
:104A00001A7842F001021A7093F8342022F0010261
:104A100083F8342093F8342022F0040283F8342001
:104A200093F8352022F0010283F8352093F83520E1
:104A300022F0040283F8352002A99DF80400FFF754
:104A40008DFD00289BD100219DF80400FFF71CF983
:104A500080219DF80400FFF717F990E740F26522E6
:104A600048494948FEF7E8FD4FF0E023D3F8F03D10
:104A700013F0010F3FF479AF00BE76E79DF8081000
:104A800001F07F00CC093C4B03EB400303EBD11357
:104A900093F8342022F0010283F8342093F8342074
:104AA00022F0040283F83420A8B1334B03EB400317
:104AB00023441B7D354A1278934214D2344A12683B
:104AC00012EB431317D09C69039B9DF809209DF8B6
:104AD0000400A04753E7039B9DF809209DF80400BC
:104AE00000F096F94BE7901C984204DB9B1A294A88
:104AF00002EB4313E7E74FF4247222492248FEF702
:104B00009BFD4FF0E023D3F8F03D13F0010F3FF48D
:104B10002CAF00BE29E7184B1B7813F0010F3FF4B0
:104B20002EAF154B1878C0F3C000FFF717FB26E730
:104B3000114B1B7813F0010F3FF421AFFFF70FFB70
:104B40001DE7029B002B3FF41AAF0398984716E726
:104B5000094BDB7813F0010F3FF411AF0298FFF718
:104B600078FA0CE74FF0E023D3F8F03D13F0010F93
:104B70003FF405AF00BE02E7FC13002054140020F0
:104B8000282A00201089001080770010262A002093
:104B9000401000203089001008B50C4B187811F037
:104BA000700F02D1FEF7FAFF08BD40F2C552084966
:104BB0000848FEF741FD4FF0E023D3F8F03D13F035
:104BC000010F00D000BE0020EEE700BF9C0E0020C9
:104BD00064880010807700102DE9F041264B1E7884
:104BE0008B7813F0700F28D10C4603F07F08DF0993
:104BF000224B9978204602F075F8054668B31F4BA2
:104C000003EB48033B4493F8342022F0020283F87C
:104C1000342093F8342022F0010283F8342093F8F2
:104C2000342022F0040283F8342021463046FEF777
:104C3000CDFF05462846BDE8F08140F2D452104928
:104C40001048FEF7F9FC4FF0E023D3F8F03D13F0E5
:104C5000010F00D000BE0025ECE740F2D552084914
:104C60000848FEF7E9FC4FF0E023D3F8F03D13F0DD
:104C7000010FDFD000BEDDE79C0E0020FC130020FA
:104C80004C8800108077001008B591F90030002B97
:104C900005DB802100231A46FFF7CEFB08BD00216B
:104CA000F8E70000F8B50746134B9E89DD89741BB1
:104CB000A4B2402C28BF402493F90030002B08DB1D
:104CC0000021AE4213D00D4A23463846FFF7B4FB0D
:104CD000F8BDAE4209D0084B9968402C09D822464D
:104CE000064802F019FC8021EBE78021E9E7002269
:104CF000EAE70020ECE700BF30120020F0110020AE
:104D000008B586460B46074A944608684968ACE8E9
:104D1000030000219160D181918119467046FFF70F
:104D2000B3FF08BD3012002038B505468C46264C2E
:104D3000A64608684968AEE80300A2600021E18148
:104D4000BCF806108B4228BF0B46A381BCF80610A6
:104D500029B303B132B12846FFF7A4FF044680B15E
:104D6000204638BD722219491948FEF765FC4FF0FC
:104D7000E023D3F8F03D13F0010F00D000BE002473
:104D8000EEE7742211491248FEF756FC4FF0E0237B
:104D9000D3F8F03D13F0010FE2D000BEE0E761462A
:104DA0002846FFF771FF04460028D9D1762207492B
:104DB0000748FEF741FC4FF0E023D3F8F03D13F035
:104DC000010FCDD000BECBE730120020A889001023
:104DD00080770010034B00221A605A609A60DA60F4
:104DE0001A61704730120020014B1861704700BFF4
:104DF000301200200146054B1A460068496803C27C
:104E000000229A60DA819A81704700BF3012002038
:104E100038B505461C463D4B1B78DB09B3EBD11F6B
:104E20001CD07CB19D223A493A48FEF705FC4FF070
:104E3000E023D3F8F03D13F0010F00D000BE0024B2
:104E4000204638BD314C2146FEF786FE23691BB152
:104E500022460321284698470124F1E72B4B93F97A
:104E60000030002B07DB294B986800284CD02246E5
:104E7000294902F051FB254AD38913FA84F39BB2E6
:104E8000D381916821449160D288934201D03F2C14
:104E900026D81E4B1B6923B11C4A0221284698477D
:104EA000A0B11A492846FFF7EFFE04460028C7D1F3
:104EB000C52217491748FEF7BFFB4FF0E023D3F890
:104EC000F03D13F0010FBBD000BEB9E7002128462A
:104ED000FEF7DAFE80212846FEF7D6FE0124AFE772
:104EE0002846FFF7DFFE04460028A9D1CD22084955
:104EF0000848FEF7A1FB4FF0E023D3F8F03D13F094
:104F0000010F9DD000BE9BE7002499E730120020DE
:104F10009089001080770010F011002010B54C68C7
:104F200034B3B1F812C0ACF1080CA4442178214488
:104F3000CC8821444FF0000E06E082F800E01960B2
:104F4000012014E00C782144ACEB0104002C0DDDB1
:104F50004C78042CF6D1CC78002CF3D18C78844298
:104F6000EBD00EF1010E5FFA8EFEEBE7002010BDD4
:104F70000020FCE72DE9F0410746884616461D460D
:104F8000002414B10020BDE8F08104EB44002B465E
:104F90003246064901EB40113846FFF7BFFF10B912
:104FA0000134E4B2EDE788F80040ECE7441000205B
:104FB0000023C3B100207047257804EB050CBCF832
:104FC00006E0E644645DA444AEEB0C04002C17DD5F
:104FD0009CF803408C4203D09CF80040A444F3E7C3
:104FE0001370012011E030B503EB430C074C04EBC8
:104FF0004C1CDCF804401CB194F802C08445DBD0A2
:105000000133DBB2002BEFD0002030BD4410002074
:1050100030B4002414B1002030BC704704EB4402CB
:10502000104B03EB42135D6815B90134E4B2F1E7AC
:105030000C4B03EB4213B3F812C0ACF1080CAC44B8
:105040002B4601E01A781344ACEB0302002AECDD96
:105050005A78042AF6D1AA788242F3D10C70012042
:10506000DAE700BF4410002010B400241CB1002077
:105070005DF8044B704704EB4402114B03EB421301
:105080005B6813B90134E4B2F0E794460C4A02EBD2
:105090004C12B2F812C09C441A781344DA881344B4
:1050A00001E01A781344ACEB0302002AEADD5A78D7
:1050B000052AF6D19A788242F3D10C700120D7E705
:1050C0004410002000B590F80CE09E4503D090F805
:1050D00010C09C453FD191F800C0614407E091F8B1
:1050E00001C0BCF1240F1FD091F800C06144A2EBB5
:1050F000010CBCF1000F2EDD91F801C0BCF1040FD2
:1051000029D0BCF1240FEAD191F802C0BCF1010F03
:10511000E5D19E45E3D191F80AC080F821C091F80D
:1051200005C080F820C0DAE791F802C0BCF1020F98
:10513000DAD191F803C0BCF1010FD5D19E4503D05F
:1051400090F810C09C4506D19E45CDD191F804C081
:1051500080F822C0C8E75DF804FB000084461846CA
:10516000BCF80230002B37D0B3EB820F34DC30B503
:10517000BCF80440A4EB030E1FFA8EFEBCF800C07E
:105180008C4524D85508CEEB5202914207DA144AD6
:10519000126822B9124B0A221A60634618E075445D
:1051A000A9420DDD0E4A126852B9634504D00C4B7A
:1051B0000A221A6023460BE0094B1A60234607E0D7
:1051C000074A126822B1013A05490A6000E000234B
:1051D000984228BF184630BD884228BF084670470D
:1051E0002C19002000230BB10020704703EB430172
:1051F000034A02EB41128242F6D00133DBB2F2E7FE
:105200004410002030B583B005460C4688886B46B4
:105210000DF106020DF10701C0B2FFF7ABFE034628
:1052200010B9184603B030BD9DF8073003EB4303B7
:10523000064A02EB4313D96A9DF8062001230A446B
:1052400021462846FFF770FD0346EAE74410002098
:1052500090F82030012B71D170B5044690F82130C0
:10526000002B6DD090F82230002B6BD0C37F002B29
:105270006AD043690BB9002063E0FEF771FF002894
:105280003BD1E37F65691E4603FB05F5FEF768FF2A
:10529000002838D14FF47A73B5FBF3F5ADB26369EA
:1052A00003FB06F6FEF75CFF80BB4FF47A73B6FB98
:1052B000F3F203FB126189B294F821C06A1E12FB5B
:1052C0000CF292B294F8223012FB03F290B21CFB63
:1052D00005F292B213FB02F292B2013515FB0CF506
:1052E000ADB213FB05F39BB265899D4211D301B3A7
:1052F00022836283A383012023E0E27F013A01231A
:105300009340DBB2BEE74FF4FA53C5E74FF4FA53CC
:10531000CDE740F664220D490D48FEF78DF94FF0B8
:10532000E023D3F8F03D13F0010F00D000BE0020C1
:1053300007E020836283A383012002E000207047FE
:10534000002070BD0020FCE70020FAE7BC890010B7
:1053500080770010012070472DE9F04184B00646A7
:105360000C460846FFF73EFF054602AB0DF10F0263
:105370002146207BFFF7D2FD844630B1E26A9DF8DA
:105380000F30D35C2BB94FF0000C604604B0BDE881
:10539000F081227A29463046FBF74AFB84460028F2
:1053A000F3D004F1180704F14408404601F0D8FE98
:1053B00001466389B4F848203846FFF7CFFE074618
:1053C0000246E16D404601F031FF3B46E26D217A35
:1053D0003046FFF731F884460028D6D0E26A9DF8BF
:1053E0000F30D35C0093237A2A4639463046FFF7C4
:1053F000B1FF8446C9E701207047F0B585B0064685
:105400000C46174600238DF80F300846FFF7EAFEDA
:10541000054602AB0DF10F022146207CFFF77EFD11
:1054200008B905B0F0BDE26A9DF80F30D35C009377
:10543000637B2A4639463046FBF798FA0028F0D0BD
:105440003A46A16D04F1300001F024FF08B90020B4
:10545000E7E7E389A26D617B3046FEF7EDFF0028A8
:10546000DFD0E26A9DF80F30D35C0093637B2A465D
:1054700039463046FFF7BFFFD3E700002DE9F04F74
:1054800089B0834600918C88E4B24F8806AB0DF159
:105490001E020DF11F012046FFF76CFD814600281A
:1054A00000F0DA80FFB29DF81F5005EB45027F4BFC
:1054B00003EB421898F80C30A34215D005EB4502D7
:1054C0007A4B03EB42131B7CA3422AD005EB450227
:1054D000764B03EB4213D96A9DF81E208F545A680D
:1054E0005B8A083B1A44C0E0704A002188F80C101F
:1054F00005EB4500400140301044043001F0CFFE80
:1055000000995846FBF7FEF9002800F0C8800022F9
:1055100088F80820A8F81820A8F81A20A8F81C2055
:10552000CCE7624800EB421300221A7405EB4503F6
:105530005B013033184401F0B2FE00995846FBF786
:10554000E1F9002800F0AD8005EB4502574B03EB75
:10555000421300225A73B9E740F249725449554840
:10556000FEF76AF84FF0E023D3F8F03D13F0010F97
:1055700000D000BEB1466FE005EB45034B4A02EB9D
:1055800043131E7201991973BA88C2F30A025A8131
:105590000B46424605990298FFF794FD9DF81F10AF
:1055A00001EB4101414A02EB41115846FFF7D4FE9D
:1055B000002838D181464FE005EB45033B4A02EB1A
:1055C00043125673019B1374BB88C3F30A03D38140
:1055D000926D31465846FEF72FFF002863D00AF13E
:1055E000010A5FFA8AFA069B1A7813440693CA45A1
:1055F0001CD2069FA8EB0703002B17DD7B78052B39
:10560000F1D139465846FFF7E7FA06460028A3D0FD
:10561000BE7831465846FEF775FFF409CCD0FB78CA
:1056200013F0300FA8D0002CD9D1C5E7DDF80880E1
:10563000DDF81090039B9A4502D04FF000090BE073
:1056400000995846FBF770F950B14046FFF700FE4D
:1056500000995846FFF754FB484609B0BDE8F08F63
:105660008146F9E70B78194406910699531A002BE5
:10567000EBDD4B78042BF5D18B78A342F2D1CB78BC
:10568000BB42EFD10B7903934FF0000A0591CDF89F
:10569000088090460194CDF810909946A7E781467E
:1056A000DAE78146D8E78146D6E700BF44100020FC
:1056B000D8890010807700100020704700207047C4
:1056C0000B7803F0E003202B01D00120704770B568
:1056D00082B005460C460B7803F01F03012B0CD05B
:1056E000022B4BD04FF0E023D3F8F03D13F0010F25
:1056F00000D000BE002002B070BD8988C8B20E0A7A
:1057000029D00DF107023146FFF752FC0028F2D0F4
:105710006388190A9DF8073003EB4300224A02EB25
:105720004012927FB2420AD003EB43031E4A02EBBF
:1057300043135A6A21462846FBF7CAF8DBE70129DA
:10574000F2D16278012AEFD1174A02EB4012516A76
:1057500009685161E8E70DF10701FFF759FC0028DE
:10576000C9D09DF8073003EB43030F4A02EB431304
:105770005A6A21462846FFF7A1FFBCE788880DF149
:105780000701C0B2FFF770FC0028B4D09DF80730C5
:1057900003EB4303044A02EB43135A6A21462846AB
:1057A000FFF78AFFA7E700BF4410002000207047E2
:1057B0000020704730B583B005460C460B7813F0D7
:1057C000600316D14B780A2B0DD00B2B0ED0012B7A
:1057D0006DD04FF0E023D3F8F03D13F0010F00D06F
:1057E00000BE002010E0FFF70DFD0DE0FFF746FEC4
:1057F0000AE0202B0AD04FF0E023D3F8F03D13F05D
:10580000010F56D000BE002003B030BD8988C8B259
:10581000237803F01F03012B0BD0022B29D04FF06C
:10582000E023D3F8F03D13F0010F00D000BE0020BC
:10583000EAE7090A0ED00DF10702FFF7B9FB0028CD
:10584000E2D094F90030002B1DDA21462846FBF700
:1058500027F8D9E70DF10701FFF7DAFB0028D3D0CD
:1058600094F90030002B0EDA21462846FFF7A0FFFE
:10587000CAE70DF10701FFF7F7FB0028C4D094F940
:105880000030002B0EDB9DF807300B4A03EB430181
:1058900002EB411191F828304A6A21462846FFF769
:1058A00043FAB1E721462846FFF780FFACE7012025
:1058B000AAE70020A8E700BF4410002078B908B587
:1058C00000EB400C084800EB4C10406848B16346C0
:1058D0005B0130330448184401F0A8FC08BD0020E7
:1058E00070470020FAE700BF4410002080B908B5D7
:1058F00000EB400C084800EB4C10406850B160468B
:1059000040014030044B1844043001F0C3FC08BD92
:10591000002070470020FAE7441000202DE9F043F2
:1059200083B060220021264801F0A8FD002414B1B4
:1059300003B0BDE8F083224E670004EB44035D0131
:105940003544204B6B62402385F828301E4BEB62B8
:1059500004EB44035801403030444FF00108CDF8C7
:10596000008043464FF4C2721849043001F0C7FB6F
:10597000DFF868904846FBF749FCC5F850904FF0B7
:105980000009C5F85490124BEB653B1958013030B3
:10599000CDF8008043464FF4C2720E49304401F006
:1059A000AEFBDFF83C804046FBF730FCC5F83C908E
:1059B000C5F84080084BAB650134E4B2B7E700BFDF
:1059C00044100020301900202015002088190020E4
:1059D0009C200020141B0020202200208019002081
:1059E0000C1B00200020704770B5002404B170BD6E
:1059F000650004EB440358010A4E24220021304480
:105A000001F03CFD2B19580140303044043001F0C6
:105A100046FC254468013030304401F040FC01343C
:105A2000E4B2E3E7441000204B79012B40F0E28020
:105A30002DE9F04104468B79012B40F0DD80CB79D4
:105A4000202B40F0DC800B79012B12D8012B20D0C9
:105A5000CD78002D40F0D5805DB3002D40F0BA80A8
:105A600005EB4505684B03EB4513588A083880B2AF
:105A7000C3E040F22B6265496548FDF7DDFD4FF05C
:105A8000E023D3F8F03D13F0010F00D000BE00205A
:105A9000B3E040F22D625D495D48FDF7CDFD4FF06A
:105AA000E023D3F8F03D13F0010F00D000BE00203A
:105AB000A3E02E4605EB4502534B03EB42135B6814
:105AC00013B10135EDB2C7E74F4A05EB4503580165
:105AD00002EB4313596014544FF49C725A8201F53F
