:020000041000EA
:10000000002008205D0100101301001015010010F0
:100010001101001011010010110100101101001058
:100020001101001011010010110100101701001042
:100030001101001011010010190100101B01001026
:100040001D0100101D0100101D0100101D010010F8
:100050001D0100101D0100101D0100101D010010E8
:100060001D0100101D0100101D0100101D010010D8
:100070001D0100101D0100101D0100101D010010C8
:100080001D0100101D0100101D0100101D010010B8
:100090001D0100101D0100101D0100101D010010A8
:1000A0001D0100101D0100101D0100101D01001098
:1000B0001D0100101D0100101D0100101D01001088
:1000C0001D0100101D0100101D0100101D01001078
:1000D0001D0100101D0100101D0100101D01001068
:1000E0001D0100101D0100101D0100101D01001058
:1000F0001D0100101D0100101D0100101D01001048
:100100001D0100101D0100101D0100101D01001037
:1001100000BE00BE00BE00BE00BE00BEEFF3058004
:10012000103800BEF2EB8871C8B20010F0B20010B7
:10013000A801001090A31AE7D3DEFFFF42012110AF
:10014000FF010000A0C80000793512AB4FF000009D
:100150002049086006C881F3088810474FF05040D6
:10016000006810B14FF00000F2E70FA40ECC002998
:1001700002D000F015F8F9E71749184A002000E00E
:1001800001C19142FCD1002080F30A8814498847BC
:10019000144988471449884700BEFDE701C901C2D8
:1001A0009A42FBD3704700BFF0B20010100100204C
:1001B000F8170020D8C9001000000820000008200F
:1001C000D8C900100010082000100820000000000E
:1001D0007047000008ED00E0F8170020F43400201C
:1001E000315200102D030010F5510010F8B500BF7A
:1001F000064B0749C91A891048BF0131491003D07D
:10020000044B0BB101481847704700BFF817002096
:10021000F81700200000000008B5054B1BB1054988
:100220000548AFF30080BDE80840FFF7E1BF00BF1D
:10023000000000006C2E0020609E001008B502F047
:1002400057FA29B14FF47A72002309F0CDFD08BDA9
:10025000024BA3FB00308009F9E700BFD34D6210C9
:1002600080B507E0254A136801331360244B1B78DF
:10027000002B3CD1FFF7E2FF224B1B68C01AB0F500
:100280007A7FEFD3FFF7DAFF1E4B18601E4C1F4E2C
:10029000226831681E4805F015F9184D29681D4877
:1002A00005F010F900232B601B4901220A701B4D39
:1002B000D5ED007AF8EE676A1948D0ED007AB8EE0D
:1002C000677AC6EE877A174AC2ED007AD4ED007AD3
:1002D000F8EE677A144AC2ED007A2A680768B2FB22
:1002E000F7F232602B60036023600B70BAE700F016
:1002F000ADFA034B00221A70BCE700BFD4230020E4
:10030000ED340020D82300205C2E00209423002010
:10031000609E00107C9E0010EA340020C81F002060
:10032000CC1F002028240020602E002000B583B0C0
:1003300008F00DFF00F0DCFA00F056FA2B4B1B889A
:10034000ADF8043001A9002008F072FB05F086F832
:10035000FFF774FF264B1860264808F09DFF21E048
:10036000FFF76CFF224D2860234C2168234805F0DD
:10037000A9F82968224805F0A5F800F021FF00231C
:1003800023601CE0FFF75AFF1E4B18601E4B1878C5
:1003900080F00100187000F0B6FA19E0164A1368F0
:1003A0000133136000214FF0FF3006F01FFAFFF712
:1003B00045FF0F4B1B68C01AB0F57A7FD0D2FFF70C
:1003C0003DFF104B1B68C01A104B1B689842D9D8D0
:1003D000FFF734FF0E4B1B689842DFD0FFF72EFF6C
:1003E0000B4B186000F094FFD8E700BF70AB001013
:1003F000D834002061020010D03400209C9E0010F0
:10040000BC9E001098230020F1340020D011002061
:10041000D434002007EE901AC368826803EB82038D
:10042000D3ED006A90ED017A26EE876A77EEC67A00
:1004300017EE902A02F0FF42B2F1006F01DADFED11
:10044000097A27EE277AC3ED007A836801330268C0
:1004500093FBF2F102FB1133836076EE877A17EE9D
:10046000900A704700000000D0ED004AD0ED017AFC
:1004700090ED025AD0ED035A34EEA77A77EE456A32
:1004800076EEE56AB6EE006A66EE866AC1ED006A4F
:1004900074EEE76A76EEC56A76EEA56A66EE866A5F
:1004A000C1ED016A77EEE47A77EEC57A77EEA57A48
:1004B00067EE867AC1ED027A37EE057A37EE257A55
:1004C00027EE067A81ED037A704700002DE9F84F98
:1004D0002DED048B044609EE101A92469B46B4EEAD
:1004E000499AF1EE10FA0BD1F0EEC97A9FED987AA5
:1004F000F4EEC77AF1EE10FA04DD9FED969A01E072
:100500009FED949A256995ED008A18EE100A09F07E
:1005100067FC02460B4600208F4902F0A5FE064606
:100520000F4619EE100A09F05BFC32463B4602F01A
:10053000AFFE06460F46D5ED017A68EE277A17EE34
:10054000900A09F04DFC02460B463046394602F04F
:1005500077FE02F011FF01466860E36B1868FFF751
:1005600059FF00221DE0E36C03EB8203D3ED007A18
:10057000616CA36C53F822504B685B1B0D682B44D5
:1005800093FBF5F605FB1633896801EB830393EDC6
:10059000007A636D03EB820367EE877AC3ED007A1E
:1005A0000132032ADFD9626C9368516803EB81033F
:1005B000186053680133116893FBF1F001FB1033AD
:1005C000536000254AE0636B53F82570E36A03EB40
:1005D000850393ED008AA36A53F82520236B53F813
:1005E000251053685B1A11680B4493FBF1F001FB73
:1005F0001033926802EB8303D3ED007A28EE278A4A
:10060000266D06EB8506D7ED008A18EE900A09F0F4
:10061000E7FB02460B4600204F4902F025FE8046CC
:10062000894618EE100A09F0DBFB42464B4602F001
:100630002FFE80468946D7ED017A68EEA77A17EE3D
:10064000900A09F0CDFB02460B464046494602F0AF
:10065000F7FD02F091FE786030600135032DB2D9CC
:10066000F7EE006A9FED3B6A00231AE0D4ED027AB0
:10067000226D02EB830292ED007A67EE877A94EDA9
:10068000037A626D02EB8302D2ED005A27EE257ADF
:1006900077EE877A67EEA67A36EE276AF1EE666A1B
:1006A0000133032BE2D9D4ED037A67EE897A77EE32
:1006B000867A17EE906AA16D206DFFF7D5FE0022B5
:1006C0001DE0A36A53F82210636D03EB8203D3EDA0
:1006D000007AA36D03EB820393ED007A77EE877ABD
:1006E0008B68486803EB8003C3ED007A4B680133E5
:1006F000086893FBF0F500FB15334B600132032AC9
:10070000DFD9E36B31465868FFF784FE0146E36B9F
:100710009868FFF77FFE0146E36BD868FFF77AFE23
:100720000546236C31465868FFF774FE0146236C7A
:100730009868FFF76FFE0146236CD868FFF76AFEE2
:10074000CAF80050CBF80000BDEC048BBDE8F88F70
:100750000050C347000000000000F03F07EE900A81
:10076000BFEE047AF4EEC77AF1EE10FA35D4BEEE9D
:10077000087AF4EEC77AF1EE10FA0ED4B7EE047AE6
:10078000F4EEC77AF1EE10FA29DCB6EE087AF4EE50
:10079000C77AF1EE10FA13DC7047B8EE047A37EE40
:1007A000677A27EE277AF6EE027A37EE677AF7EE67
:1007B000007A37EEC77A77EE677A17EE900A7047BD
:1007C000B0EE047A37EE677A27EE277AF6EE027AF1
:1007D00077EE677A17EE900A7047024870474FF03D
:1007E0007E507047000080BF00B587B00E4B1B687D
:1007F00004930E4B1B6803930D4B1B6802930D4B28
:100800001B6801930C4B1B6800930C4B1B680C4A34
:1008100012680C4909684BF6803000F0A1FD0A4BC4
:10082000186007B05DF804FBB0110020B41100207F
:10083000B8110020BC110020C0110020C4110020FC
:10084000C8110020CC110020DC34002030B583B06A
:100850001C4B9A6A1C4B1A60002417E0A5001B4928
:1008600001EB840101AB6A46096819480068FFF78B
:100870002DFE0098FFF772FF164B2B44186001986D
:10088000FFF76CFF144B2B44186001342F2CE5DD6F
:10089000124B1B78A3B90B4B9B6A0B4A12689B1A2D
:1008A0000F4A13600F490A681A440A600E490A6821
:1008B00001320A600D4A1268934201D90B4A136053
:1008C00003B030BD00000B40CC340020D41F00200A
:1008D000DC3400205421002014220020EA340020BF
:1008E00024240020C81F0020CC1F00205C2E0020E4
:1008F00008B5192000F0DEFF19234FF0010242EC89
:100900004430002008BD192340EC403070470000FF
:1009100008B501F0EDFE29B14FF47A72002309F019
:1009200063FA08BD024BA3FB00308009F9E700BF62
:10093000D34D621038B50546FFF7EAFF044604E0E0
:1009400000214FF0FF3005F051FFFFF7E1FF001BE2
:10095000A842F5D338BD704730B591B004460020A9
:1009600007F0ACF908B911B030BD002007F0C0F9AC
:100970000028F8D040226946204607F0C5F9024613
:100980006946204607F036FA204607F0D7F90020DE
:1009900008F0E7FB3220FFF7CDFF012008F0E1FB74
:1009A0003220FFF7C7FF002008F0DBFBDBE7000089
:1009B00008B5487902280FD14B78012B46D191F820
:1009C00003C0BCF1010F16D0BCF1020F37D1CB88A8
:1009D000022B21D000203AE0B0221D491D4804F02E
:1009E00071FD4FF0E023D3F8F03D13F0010F00D07C
:1009F00000BE00202BE0CB88012B01D0002026E098
:100A0000887892F90020144B1A5489785A56134862
:100A100004F058FD01201AE08878B2F90020104B4C
:100A200023F81020897833F91120002A05DB1212EF
:100A30000C4804F047FD012009E0FF32F7E7624669
:100A40000146094804F03EFD002000E0002008BDFA
:100A500090AB0010E09E0010642E0020F89E001065
:100A6000E0340020149F0010349F001008B548792E
:100A700004280CD14B78012B27D191F803C0BCF18D
:100A8000010F1BD1CB88042B10D000201EE0722256
:100A90000F49104804F016FD4FF0E023D3F8F03D65
:100AA00013F0010F00D000BE00200FE011680A4BC8
:100AB00019600A4804F006FD012007E0624601467D
:100AC000074804F0FFFC002000E0002008BD00BF44
:100AD00074AB0010E09E0010D4110020889F00101D
:100AE000A89F001070B58AB00C46497904290CD132
:100AF0000546E278012A17D0022A5AD06378354891
:100B000004F0E0FC00200AB070BD442232493348B2
:100B100004F0D8FC4FF0E023D3F8F03D13F0010FC0
:100B200000D000BE0020EEE76378012B11D0022B2D
:100B3000E4D1002603960496059606960796089635
:100B4000ADF824600221ADF80C10254804F0BAFC81
:100B500026E0244E3168244804F0B4FC3368039343
:100B6000042303AA2146284606F0D6FFCBE71F4BF5
:100B700053F8262006EB46010AAB03EB810141F84E
:100B80001A2C41F8162C002321F8123C21F8103CB5
:100B9000009313463146164804F094FC0136F6B231
:100BA000012EE4D91A2303AA2146284606F0B4FFF1
:100BB000A9E76378012BA1D101268DF80C6031469D
:100BC0000C4804F07FFC334603AA2146284606F071
:100BD000A3FF98E760A00010D8AB0010E09E0010C3
:100BE00014A00010D4110020F49F0010F8AB0010E6
:100BF00030A0001048A0001070B584B00C464979B0
:100C0000022911D10546E278012A1CD0022A04D11A
:100C10006378022B29D0012B3DD06378294804F05A
:100C200051FC002004B070BD8A222749274804F0F7
:100C300049FC4FF0E023D3F8F03D13F0010F00D052
:100C400000BE0020EEE76378012BDFD1A178204BB6
:100C50005A568DF808201F4804F034FC012302AADC
:100C60002146284606F058FFDCE71B4B02AE93E80E
:100C7000030086E803000123009300236FF0310294
:100C8000A178164804F01EFC082332462146284667
:100C900006F042FFC6E7A178114B33F91130ADF8E9
:100CA00008301A46002B0ADB12120E4804F00AFC28
:100CB000022302AA2146284606F02EFFB2E703F1DE
:100CC000FF02F1E718A10010B4AB0010E09E001085
:100CD000642E0020ACA0001000AC0010C8A00010D2
:100CE000E0340020F8A0001008B50A46497904292C
:100CF00008D002290AD05378D278064804F0E2FBE3
:100D0000002008BD1146FFF7EDFEFAE71146FFF798
:100D100073FFF6E76CA1001008B58C4649790229EB
:100D20000AD004290CD09CF801309CF80320064816
:100D300004F0C8FB002008BD6146FFF739FEFAE762
:100D40006146FFF793FEF6E7B0A100108B88DBB297
:100D50004A88D2B2012B01D001207047002AFBD172
:100D6000024B4FF47A721A60F6E700BFD0110020F0
:100D70008A88D2B24B88DBB2012A0AD0094A002104
:100D8000116023B1013B084AD25C084B1A70012064
:100D900070471BB9034B00221A60F8E7044A192177
:100DA0001160EBE7C0340020F4AB0010EF340020FA
:100DB000D011002038B50C46264D0A4629460020A1
:100DC00006F0C2FC244B186000232449AC4635E0F1
:100DD000604630F9042B07EE902AF8EEE77A9FED93
:100DE000207A67EE877A1F4A02EB8302C2ED007A0F
:100DF000BCF9022007EE902AF8EEE77A67EE877AD0
:100E0000194A02EB8302C2ED007A184A02EB830210
:100E1000D2ED007AFEEEE87A8C4617EE902A2CF896
:100E2000042B134A02EB830EDEED007AFEEEE87A25
:100E300017EE902A4A800133614684462F2BC7DD86
:100E400022460649002006F097FC0120094B187045
:100E500038BD00BFB02E0020C0340020D4220020B6
:100E600000000038D41F00209420002054210020CE
:100E700014220020ED3400200120704770B588B0A6
:100E800004460D461D4B5BB110210DEB010008F02F
:100E90006CF96E08B0EB550F00D80646002524E02B
:100EA000174B049303F1883305930820F1E7154BA2
:100EB000EE460FCB8DE80F0005F120036B4413F8CD
:100EC000103C4FEA8C02134103F00F03CCEB4502B8
:100ED000013220336B4413F8203C24F812300CF11B
:100EE000010CBCF1010FE2D90135AE4202D94FF03D
:100EF000000CF6E7700008B070BD00BF6B910010E9
:100F000001234567F4A1001000487047ECAD0010C4
:100F1000004870470CAC001010B570B103281AD00F
:100F2000062825D8134A52F82040204608F0C4FD70
:100F3000202800D92020002317E00E4B1B681A88B8
:100F40000D4B5A800120431C5B009BB243F440735D
:100F50000948038010BD20210848FFF78FFFF2E702
:100F6000E15C0133044A22F813109842F8D8EAE70A
:100F70000020EFE7D8110020F41C0020F61C002010
:100F800070B52DED028B044607EE901AB7EE007A8D
:100F9000F4EEC77AF1EE10FA04D9F4EE677AF1EEC6
:100FA00010FA4ED04FF07E53A36194ED067AD4ED43
:100FB000007AF8EEE77A67EE877A9FED597A67EE66
:100FC000877AC4ED097A226B9FED567A77EE877A9D
:100FD00017EE903A03F1344303F540031360D4ED68
:100FE000097ADFED516A67EEA67A226B77EE877A8F
:100FF00017EE903A03F1344303F540035360D4ED08
:10100000097ADFED4A6A67EEA67A226B77EE877A75
:1010100017EE903A03F1344303F540039360D4EDA7
:10102000097ADFED436A67EEA67A226B77EE877A5C
:1010300017EE903A03F1344303F54003D3600025E3
:101040001AE0A161B1E7236BAE0003EB850393EDDA
:10105000008AB8EEC88AD4E9180102F08DF918EEBA
:10106000101A02F0DFFEE36A334407EE900AF1EE55
:10107000677AC3ED007A0135032DE4D9D4ED097AFE
:101080009FED2C7A67EE877A9FED267A77EE877A46
:1010900017EE903AA16C284A13440B60D4ED097AFC
:1010A000DFED266A67EEA67A77EE877A17EE903A3A
:1010B000A16C13444B60D4ED097ADFED216A67EE31
:1010C000A67A77EE877A17EE903AA16C13448B607C
:1010D000D4ED097ADFED1B6A67EEA67A77EE877AA0
:1010E00017EE903AA16C1344CB60002513E0A36C7B
:1010F00003EB850393ED008AE66C06EB8506B8EEFC
:10110000C88AD4E9180102F037F918EE101A02F073
:1011100089FE30600135032DE9D9BDEC028B70BD2D
:1011200004AD403B0000404B7D05513F8104353FFD
:101130003EE8213F85EBD13E0500C0B49A99993E27
:1011400052B81E3E0000000070B52DED028B054622
:1011500007EE101AC161D0ED007AF8EEE77A67EE7B
:10116000877AB7EE007AC7EE277A17EE901A1348FF
:1011700002F058FE08F034FEC5E91801002418E01A
:101180002B6BA60003EB840393ED008AB8EEC88AAC
:10119000D5E9180102F0F0F818EE101A02F042FE3C
:1011A000EB6A334407EE900AF1EE677AC3ED007AFA
:1011B0000134032CE4D9BDEC028B70BD6F12833A6D
:1011C00010B5074C237803F07F03064A937003237E
:1011D0000021084607F066F923780133237010BD1B
:1011E000EE340020F411002010B507EE902AF8EE3E
:1011F000E77ADFED3E6A87EEA67A0D39052917D822
:10120000DFE801F003172B435866DFED397A67EE0C
:10121000277A17EE904A2146364B1868FFF7B0FE42
:10122000204608F0DDFD02460B46334804F04AF93B
:1012300010BDF3EE0E7A67EE277A17EE904A21463C
:101240002C4B1868FFF780FF204608F0C9FD0246C6
:101250000B462A4804F036F9EAE7264B1A6882ED75
:101260000E7A002305E0516B51F82310906B086053
:101270000133032BF7D917EE100A08F0B1FD02462F
:101280000B461F4804F01EF9D2E71A4B1B6883ED8A
:10129000017A1B69F7EE007A77EEC77AC3ED007A20
:1012A00017EE100A08F09CFD02460B46154804F0A4
:1012B00009F9BDE70F4B1B6883ED037A17EE100A9F
:1012C00008F08EFD02460B460F4804F0FBF8AFE72E
:1012D000084B1B6883ED027A17EE100A08F080FDB8
:1012E00002460B46094804F0EDF8A1E70000FE4273
:1012F00000002442DC3400204CA2001064A2001044
:1013000078A200108CA20010A8A20010C0A20010A9
:1013100000B583B00021084607F092F8B0B101A9EA
:10132000002007F0A1F89DF805000A4B18709DF801
:101330000610094B19709DF80720084B1A7000F031
:10134000F003B02BE6D1FFF74FFFE3E703B05DF802
:1013500004FB00BFE6340020EC340020EB34002016
:101360002DE9F0472DED048B054608EE101A09EE25
:10137000102A1E46DDED0D8ADDED0E9A682002F082
:10138000F3FD044605600C9B836380ED058A80EDC8
:10139000069AC6610F9BC360109B836007EE905A4C
:1013A000F8EEE77A27EE888A9FED697AC8EE076A39
:1013B000C0ED086A67EE897AC7EE876AC0ED096AF0
:1013C000C0ED019AF7EE007A77EEE97A17EE900A0F
:1013D00000F031FA20610421084602F0DBFDA06232
:1013E00000250DE0D4ED087AFDEEE77A17EE900ABD
:1013F000A66A00F57A7000F027FA46F82500013554
:10140000032DEFDD0421084602F0C4FDE062042153
:10141000084602F0BFFD20630421084602F0BAFD31
:101420006063002506E0666BA06B00F004FA46F8E6
:1014300025000135032DF6DD94ED077AD4ED007A11
:10144000F8EEE77A67EE877AFDEEE77A17EE900A14
:1014500001F0A0FF02460B4600203E4901F03EFF8E
:1014600002460B4632A1D1E9000101F017FEC4E9A2
:10147000180100259FED389A2BE094ED099A022D72
:101480003AD0032D45D0226BAE00DFED347A79EEF1
:10149000277A17EE903A03F1344303F5400342F8FC
:1014A0002530236B03EB850393ED008AB8EEC88AE1
:1014B000D4E9180101F060FF18EE101A02F0B2FC36
:1014C000E36A334407EE900AF1EE677AC3ED007ADF
:1014D0000135032D4CDC002DCFD0012DCFD1606A1A
:1014E00008F07EFC14A3D3E9002301F0D1FE01F043
:1014F00043FF09EE100AC2E7606A08F071FC10A30E
:10150000D3E9002301F0C4FE01F036FF09EE100A12
:10151000B7E7606A08F064FC0BA3D3E9002301F08D
:10152000B7FE01F029FF09EE100AACE7AFF3008027
:10153000000000E04D62503F715AF0A2AF20EA3F38
:101540001B0DE02D90A0E63FCC5D4BC8073DE43F6E
:101550000000AA430000F03F000000000000404BE4
:1015600000A0A744D28D003EC2A25A3F00005243C1
:101570000421084602F00EFD20650421084602F011
:1015800009FD60650421084602F004FDA065236B97
:10159000D3ED037AF8EEE77A1FED0F7A87EE878AAC
:1015A000B0EE089A28EE899A5FED127A68EEA77A73
:1015B000FDEEE77A17EE906A06F271129F365FED44
:1015C000167A69EE277AFDEEE77A17EE903A03F283
:1015D000A333A3EB020840F23D57FD1A042108464D
:1015E00002F0D8FC8246E0635FED207A68EE277A4D
:1015F000FDEEE77A17EE909A4FF07D51484600F0E5
:10160000FFF8CAF8000007EE906AF8EEE77A67EE96
:10161000887AE66B4FF07D51FDEEE77A17EE900A7F
:1016200000F0EEF8706007EE908AF8EEE77A67EE69
:10163000887AE66B6E49FDEEE77A17EE900A00F0C5
:10164000DFF8B06007EE905AF8EEE77A67EE887A36
:10165000E56B6749FDEEE77A17EE900A00F0D0F8E7
:10166000E860DFED647A68EEA78AFDEEE87A17EEAF
:10167000903A03F271129F3308EE903ADFED5E7AF2
:1016800029EE279ABDEEC99A19EE103A03F2A33358
:101690009D1AFF1A0421084602F07CFC06462064CD
:1016A0004FF07D51484600F0ABF83060F8EEE88A24
:1016B00068EE888A266C4FF07D51FDEEE87A17EED1
:1016C000900A00F09DF8706007EE905AF8EEE77A05
:1016D00067EE887A256C4649FDEEE77A17EE900AA8
:1016E00000F08EF8A86007EE907AF8EEE77A67EEE1
:1016F000887A256C3E49FDEEE77A17EE900A00F0F5
:101700007FF8E8604AF6E03000F09EF8606404215B
:10171000084602F03FFC0546A0640421084602F09A
:1017200039FCE064606A08F05BFB06460F462AA3BA
:10173000D3E9002301F0ACFD0022304B01F080FD25
:1017400001F04CFE286026A3D3E900233046394639
:1017500001F09EFD0022294B01F072FDA56C01F005
:101760003DFE6860606A08F03BFB1FA3D3E90023DD
:1017700001F08EFD0022214B01F062FDA56C01F00D
:101780002DFEA860606A08F02BFB0022002301F008
:101790007FFD0022194B01F053FDA56C01F01EFEE8
:1017A000E860002511E0A36CAE0053F8250001F0BD
:1017B000F1FD02460B46D4E9180101F06FFCE36C21
:1017C0001E4401F0D9FD30600135032DEBDD2046CC
:1017D000BDEC048BBDE8F0873D0AD7A3703DDA3F2E
:1017E000333333333333D33FD7A3703D0AD7C33FAB
:1017F0000000203F6F8011BFCBDB01BE0000144012
:1018000070B506460C46102002F0AEFB0546066099
:10181000446000248460B00002F0A6FBE860234628
:1018200005E0EA6802EB8302002111600133B34254
:10183000F7DB284670BD10B50446082002F094FB83
:1018400004600022426010BD70B506460C2002F014
:101850008BFB0546066000244460B00002F084FB68
:10186000A860234605E0AA6802EB8302002111600C
:101870000133B342F7DB284670BD00000C4B03EB8D
:10188000800253F8203083F0400303F0C00302F5D8
:10189000805CCCF80030C00000F1804000F52030C2
:1018A000416002F540524FF480731360704700BFEF
:1018B0000480034008B54FF0000242EC440042ECC3
:1018C00040000521FFF7DAFF08BD00000FB400B5A6
:1018D00083B0049C074803F0C5FD3CB105A9019104
:1018E000204603F0CFFD044803F0BCFD012003F0C7
:1018F00065FC00BFD8A20010F4A00010EFF3108028
:1019000072B6064BD3E8CF1F01220029FAD1C3E8F3
:10191000412F0029F6D1BFF35F8F70478B1E002047
:101920000023034AC2E88F3F80F31088704700BF4E
:101930008B1E002070B505460C461646FFF7DEFFED
:10194000E208A95C04F0070C012303FA0CF3194226
:1019500005D1DBB20B43AB54FFF7E2FF70BD21466C
:101960003046FFF7B3FFF8B506460D4614461F464E
:10197000FFF7C4FF00E00134BC420ED84FEAD40C9C
:1019800016F80C1004F0070301229A401142F2D11C
:10199000D2B20A4306F80C2001E04FF0FF34FFF703
:1019A000BFFF002C01DB2046F8BD002DFBD00698C0
:1019B000FFF78CFF054A1078431CDBB21370172B1E
:1019C00002D9134610221A70704700BFF711002089
:1019D00000B583B00146054B00931F23182204482D
:1019E000FFF7C1FF03B05DF804FB00BFE8A20010E1
:1019F000A42300204FF0E022936843F0005393604B
:101A000070470000002305E0044A1A440021C2E8A0
:101A10008F1F01331F2BF7D9704700BF801E002096
:101A2000064B9B68103043F82010BFF35F8F0023F4
:101A30000349C1E88F3F82F31088704700ED00E052
:101A4000891E00200048704700E400E008B5FFF759
:101A5000F9FF002304E04FF0803240F8042B0133FB
:101A60000C2BF8D908BD000008B50388DA0A1C2A37
:101A700006D15B050BD45B15023300EB430008BDB8
:101A8000064B074A40F21511064803F0B7FB03F571
:101A9000FF1303F5FF531F33EDE700BF04A300104E
:101AA00028AE00101CA3001008B5091A01F2FC7240
:101AB00040F6FE739A4208D8081F11F0010F04D1B6
:101AC000C0F34A0040F4604008BD034B034A40F2B3
:101AD0000711034803F092FB64A300101CAE001032
:101AE0001CA300104209064B53F8223000F01F00DF
:101AF0000122824003EA0200003818BF012070472B
:101B000000E100E03AB1064B00F1600243F8221018
:101B100043F8201070472030014B43F820107047E5
:101B200000E100E008B50A4600F01F0301219940DA
:101B30004009FFF7E7FF08BD024B9B68103053F8E0
:101B40002000704700ED00E070B505460C46EFF34D
:101B5000108672B60F4BD3E8CF1F01220029FAD1AD
:101B6000C3E8412F0029F6D1BFF35F8FFFF7E4FFF1
:101B7000094B984201D0A04205D132462146284661
:101B8000FFF74EFF70BD054B054AE721054803F0FE
:101B900035FB00BF891E00201D01001094A300101A
:101BA00050AE00101CA300102DE9F04F87B000913B
:101BB0001546EFF3108A72B67C4BD3E8CF1F012293
:101BC0000029FAD1C3E8412F0029F6D1BFF35F8F76
:101BD000774B93F90040002C44DB804604EB44072C
:101BE000744B03EB870797F90610714A1170724A1C
:101BF000926800F1100152F82190A9EB03022F2AFC
:101C00003ED96E4B994534D14FF42143ADF80C3099
:101C10004FEA440904EB4400664E06EB8000684935
:101C20000230FFF741FFADF80E004BF60153ADF85F
:101C30001030FF238DF812308DF81350009B059360
:101C4000A14406EB890306AA12E9070083E807000E
:101C500047F00109524649464046FFF7E1FE07B00A
:101C6000BDE8F08F574B584A40F27311574803F0C4
:101C7000C5FA574B544A4FF4BD71544803F0BEFAAD
:101C800029F0010BABEB0303524AA2FB0312D2086B
:101C900002EB4202B3EB820F0FD15B460026DA79EA
:101CA000AA4212D993F90620002A0DDB02EB420268
:101CB0001E46404B03EB8203F1E7474B424A40F29A
:101CC0008B11424803F09AFA1E46A6B344F601036C
:101CD000ADF80C304FF48F43ADF80E3096F906B0E6
:101CE000BBF1000F1ADA4BF60150ADF810008DF879
:101CF00012B08DF81350009B05933946301DFFF745
:101D0000D3FEB080B47104EB44042A4B03EB84038C
:101D100006AA12E9070083E807009BE7301DFFF7DA
:101D2000A3FE014604EB4402224B03EB8203181D81
:101D3000FFF7BAFED9E74FF42143ADF80C3063004A
:101D4000019304EB4406DFF86C9009EB86061C490E
:101D5000B01CFFF7A9FEADF80E005946301DFFF785
:101D6000A3FEADF810004AF6AA235A464946521A75
:101D7000524153431B0D8DF812308DF81350009AC9
:101D80000592019B234409EB830906AB13E9070085
:101D900089E8070044F60103ABF800304FF48F43A5
:101DA000ABF8023047F0010954E700BF891E00205C
:101DB000F0340020F811002000ED00E01D010010BB
:101DC00028120020CCA3001038AE00101CA3001075
:101DD000F4A30010ABAAAAAA1CA4001038B540F0C6
:101DE0000104324BE31A2F2B31D8EFF30581C9B22E
:101DF000002933D0EFF3108E72B62D4BD3E8CF5FAE
:101E00000122002DFAD1C3E8452F002DF6D1BFF3F2
:101E10005F8F4AF6AA230246244D521B5241534378
:101E20001B0D4FFA83FC234B9B6853F82130A342D0
:101E30001BD00023032B32D803EB43011B4A02EBD8
:101E4000810292F90620624520D00133F2E71A4B55
:101E50001A4A4FF41D711A4803F0D0F9194B174A6A
:101E600040F27721164803F0C9F9124B9B68164AD5
:101E700043F82120154B1A78827183F800C00023A3
:101E80000B4AC2E88F3F8EF3108838BD074A02EB39
:101E90008101FF248C714BF601538B80EAE70C4BD8
:101EA000064A4FF42271064803F0A8F9F811002001
:101EB000891E002000ED00E0A0A4001000AE00107C
:101EC0001CA30010C8A400101D010010F034002055
:101ED000D4A40010014B0B4403607047801E002007
:101EE00010B50446FFF766FD01462046FFF7F2FFF6
:101EF000FF232371BFF35F8F10BD10B50446FFF7BA
:101F000059FD01462046FFF7E5FFFF23237100231B
:101F10006371BFF35F8F10BD10B50D4C09E00D4B21
:101F20000D4A1A210D4803F069F92046FFF7D8FF42
:101F300008340B4B9C4209D22368002BF5D0012BAF
:101F4000EDD12046FFF7D9FF0834F2E710BD00BFFE
:101F5000E8170020DCA4001090AE0010FCA40010D4
:101F6000F8170020024B0B440360BFF35F8F7047EC
:101F7000801E002010B504460120FFF729FD014610
:101F80002046FFF7EFFF10BD0246EFF30583DBB2FB
:101F9000103B990804D0034803F003031360704713
:101FA0000148F9E700800B4000000B4010B4846A40
:101FB000A2EB040C0B1D50F823301B1B9C4504D3D3
:101FC000046A01238B401C4202D1043140F82120D5
:101FD0005DF8044B704741EA004070470D4B1A68AA
:101FE000EFF3108172B6D2E8CFCF0120BCF1000F21
:101FF000F9D1C2E84C0FBCF1000FF4D1BFF35F8FF1
:102000001A680023C2E88F3F81F3108840BF002088
:1020100000217047AC2E00202DE9F04F85B003A8B9
:10202000FFF7B2FF954B984214BF00230123039999
:1020300001EB8303924A52F823402378994206D158
:10204000054601228A4000F541535A602CE18D4B30
:102050008D4A92218D4803F0D1F8D4F8149006EB04
:1020600046074FEAC70A09EBC707D7F808B0D7F801
:102070000C80284600F034FBB0EB0B0061EB08034A
:10208000002BC0F21A81B8F1000F64DB3B691A46DD
:1020900000937F4B9A4230D0798889B2B4F9080016
:1020A000FFF799FF7969009B98470090019100998B
:1020B000019A51EA02034ED01346002A29DABBEBFB
:1020C000010268EB0308BA60C7F80C8039F90A709E
:1020D000002FC0F2F280D4F814E007EB47030EEBB8
:1020E000C3039968DB68511A68EB0303002BC0F245
:1020F000E480A4462CF8087F17E07A6913690092FF
:102100001046984738B3009A1368009353680193B8
:10211000CDE7284600F0E4FA009B1A18019B43EB38
:102120000108D0E79C463EF90B70002F0EDBBCF98E
:10213000003003EB43034FEAC30B0EEBC303986875
:10214000D968101A68EB01010029EBDA29F80A7046
:10215000ACF80060B1E039F90A3023812369EFF36C
:10216000108272B6D3E8CF0F01210028FAD1C3E85C
:10217000401F0028F6D1BFF35F8FB4F9023029F871
:102180000A30668021690023C1E88F3F82F31088FE
:1021900093E02369EFF3108272B6D3E8CF0F0121E9
:1021A0000028FAD1C3E8401F0028F6D1BFF35F8FA3
:1021B000B4F804800FFA88F84FF6FF73A380216902
:1021C0000023C1E88F3F82F310881AE01F4630F9E0
:1021D0000A60002E0FDBB7F9003003EB43034FEA30
:1021E000C30A00EBC3039968DA68BCEB01016EEB2C
:1021F0000202002AEADAA7F8008030F9098020F804
:102200000960B8F1000F5DDB606908EB48034FEA35
:10221000C30900EBC303D3F808C0D3F80CE004F102
:102220000807B4F90860D4E70023A37104F1080C8F
:10223000B4F9083010E04FF0FF384FF0FF39C0E933
:102240000289B4F90800984205D0ACF80020B4F92E
:102250000800C85323811346B3F1FF3F35D06169AD
:1022600003EB4302D70001EBC20031F9322046886C
:1022700016F4004FDFD18446EDE700BF00800B402D
:10228000842E002094A50010BCAE0010C0A5001044
:1022900019200010284600F023FA3F1A66EB0106C9
:1022A000012F76F1000628DA039A01239340EB63AD
:1022B000B4F90860002EBFF6D0AEA38813F4004F27
:1022C0003FF467AFA379002BAED1B4F90830002BEF
:1022D00013DB626903EB430302EBC3039F68DE6811
:1022E000B6F1FF3F08BFB7F1FF3FD3D03A463346C0
:1022F00003992846FFF75AFECCE740BF05B0BDE87A
:10230000F08F00BFF8B504460D4611460A4B9842BF
:1023100010D000262E44012707FA05F52562304625
:10232000FFF712FC39463046FFF7FCFB04F5015479
:102330002560F8BD0426EDE700800B40F8B50446A3
:102340000E4617461D46C160FFF734FB164B03448B
:1023500023612770ABB263814FF0504212786270F4
:102360004FF6FF722281A280013B63804FF0000C88
:1023700008E00CF1FF300CEB4C0E636923F83E00D3
:102380000CF1010CAC45F4D3084B9E4214BF002362
:10239000012307EB8303064A42F82340054A3946E6
:1023A0003046FFF7AFFFF8BD801E002000800B40D5
:1023B000842E00201920001008B5054B1B690BB1B5
:1023C000034808BD034B044A6521044802F016FF88
:1023D0004012002000A60010A4AE0010C0A50010FE
:1023E000F8B504469E460069EFF3108172B6D0E856
:1023F000CF6F0125002EFAD1C0E8465F002EF6D13E
:10240000BFF35F8FB4F90250666905EB4500C70062
:1024100006EBC000002D03DB36F907C0A4F802C0AC
:102420004FF0000C2369C3E88FCF81F31088654516
:1024300033DB06990161079941618260C0F80CE0C5
:10244000418889B20131C1F30E0101B901214180F6
:102450002846FFF7C0FD2369EFF3108272B6D3E878
:10246000CFCF0121BCF1000FF9D1C3E84C1FBCF163
:10247000000FF4D1BFF35F8FA388F353A5802169C8
:102480000023C1E88F3F82F31088E368217801229E
:102490008A4003F501535A60F8BD4FF0FF30FBE767
:1024A00070B582B0064615461C469DF8203033B9FB
:1024B00000F01EF9854264EB010100290ADB079B4D
:1024C0000193069B00932A4623463046FFF788FF78
:1024D00002B070BD0020FBE7F0B585B005460C46A4
:1024E00016461F46FFF768FF9DF8283002930197B4
:1024F00000962A462346FFF7D3FF05B0F0BD0346FA
:102500004089B0EB214F31DD10B50A14586902EB58
:10251000420200EBC2001A69EFF3108C72B6D2E8E7
:10252000CF4F5FF0010E002CF9D1C2E844EF002C30
:10253000F5D1BFF35F8F428892B289B28A420FD041
:10254000002019690022C1E88F2F8CF3108830B168
:10255000DA681B780121994002F50153596010BDDA
:1025600042F40042428001209871EAE7002070475F
:1025700010B50446FFF720FF2146FFF7C0FF10BD4E
:1025800040787047F0B583B005460C46EFF30583FD
:10259000DBB293B1384B5B6A8B4209D3364A926AFD
:1025A000824208D28B4201D0012002E0002000E0EC
:1025B000002003B0F0BD0120FBE7FFF7FDFEC76878
:1025C0000678384600F08CF82A1A64EB01010436CC
:1025D00057F826301B1A9A4271F1000112DB20BF16
:1025E000254B5B6A9C4209D8234A926AAA4207D2C9
:1025F0009C4201D00120DCE70020DAE70020D8E788
:102600000120D6E7002300931C4A28462146FFF705
:1026100063FF002818DD184B5B6A9C4205D8164AF8
:10262000926AAA4202D29C4200D120BFFFF7A0FFCB
:10263000114B5B6A9C421BD80F4A926AAA4219D27C
:102640009C4213D00120B4E70B4B5B6A9C4209D833
:10265000094A926AAA4207D29C4201D00120A8E707
:102660000020A6E70020A4E70120A2E70020A0E7C1
:1026700000209EE701209CE700000B40DD1F0010BA
:102680000048704700000B4010B50A4B1B6923B18E
:102690000A210948FFF71EFC10BDFFF7F1FF0446B1
:1026A000032100F00BF81023032221460148FFF715
:1026B00045FEEDE740120020AC2E002010B5054A83
:1026C000054C064BA04214BF1846581CFFF732F9C0
:1026D00010BD00BF24A6001000800B40A8230020DE
:1026E0000246436A906A1946536A9942FAD1704782
:1026F00008B50248FFF7F4FF08BD00BF00000B401B
:1027000070B51646049D00EB400C4FEA8C0C0CF1A2
:10271000804C0CF5803CDCF80420AA4201D2CCF8B5
:102720000450A0F1040E5FFA8EFEBEF1010F28D90D
:102730000CF540524FF4006414601E4A52F82020F9
:1027400042B11C4C6469B4FBF2F4013404EB440460
:10275000033CFDD2DCF8002082EA461202F0E002DF
:102760000CF580542260BEF1010F16D90CF5005211
:102770004FF400611160CCF804500E4A42F820304A
:1027800070BD0129D4D10CF5405203241460DCF84B
:10279000082012F0010FFAD0DCE7DCF800204A40F4
:1027A00002F003022260DCF8084001228A40144251
:1027B000F9D0DBE7AC23002010B582B04FF48034B1
:1027C0000094FFF79DFF02B010BD0000014B53F8CD
:1027D00020007047AC23002070B5049C344DB5FB3D
:1027E000F1FC344D1544344EB54237D8B2FBFCF5FC
:1027F000A5F1100EBEF5987F36D803F1FF3EBEF16D
:10280000060F37D804F1FF3EBEF1060F32D8BCEBFD
:10281000121F35D8240344EA03440368002B35DB38
:10282000264B984242D00E2301229A40244B1A6034
:1028300003F580531A60234B9B6832EA0303FAD1F5
:102840000160856000F54052043221231360036863
:10285000002BFCDAC4600823136070BD1A4B1B4ABE
:1028600011211B4802F0CAFC1A4B184A19211848BA
:1028700002F0C4FC184B154A1C21154802F0BEFC9E
:10288000164B124A2321124802F0B8FC036803F0E9
:102890003F038B42C4D18368C3F30B03AB42BFD168
:1028A000C36803F4EE23A342BAD1D6E70F23BBE7F4
:1028B000001BB70080E84BD380F8A93200800540A8
:1028C000002002400000024048A60010D4AE0010D4
:1028D00098A60010E0A60010FCA6001048A7001063
:1028E000054A00EB400302EB8303596000EB400014
:1028F00080000123135070470080104008B500236A
:10290000DB8A002242E800F212F4800F02D110218B
:10291000984708BD04219847FBE70000034BD3F814
:102920002838002BFAD0BFF35F8F704700000E40AD
:10293000002207E0054B13449B00BFF35F8F00218B
:1029400019600132072AF5D9704700BF03820310CE
:1029500008B5FFF7EDFF08BD074B4FF42A621A6078
:102960004FF48D72DA6003F50053044A1A60024B8B
:102970005B68002BFBDA70470080044000B0FA006F
:1029800010B5044602E054F8043B9847014B9C42C2
:10299000F9D310BD589E00107047000008B50248DA
:1029A000FFF7EEFF08BD00BF189E001008B50248F3
:1029B000FFF7E6FF08BD00BF449E0010064B074A24
:1029C0001A6003F58053064A1A60064B9A68044B56
:1029D0009343FAD1704700BF002002407F3BEFEFE6
:1029E000F6FFF30300000240054BDB6CB3F5004F2C
:1029F00000D07047034B4FF48022DA64F9E700BF40
:102A000000001150002011504FF0E022D2F8881D34
:102A1000034B0B43C2F8883D10EE3004704700BFF3
:102A200003033000054B6FF060421A60044B9B6853
:102A3000DB4333F06043F9D1704700BF0030024000
:102A40000000024008B545F25320FFF757FF034648
:102A50000420984708BD08B545F25320FFF74EFF04
:102A600003460120984708BD08B5FEF7CBFF08BD17
:102A700038B5054CA168054D4FF48872284606F01C
:102A8000A5FFA56038BD00BF00ED00E000000020FC
:102A900038B50420FFF79AFE064BA3FB0035AD0CBA
:102AA000002404E02946E0B2FFF71AFF0134052CA8
:102AB000F8DD38BD83DE1B4330B583B0264B0022E2
:102AC000C3F88420FFF748FF244B0122DA63224B2E
:102AD0005B6C012BFBD1214B03221A631E4B9B6BBA
:102AE000012BFBD10224009405231D4A01211D481E
:102AF000FFF772FE052500952B461B4A01211B4856
:102B0000FFF76AFE1A4B002221460420FFF754FE0D
:102B1000184C2346002201212846FFF74DFE164D92
:102B20002B46002211460820FFF746FE2B460022C6
:102B300011460920FFF740FE2346002211460620D9
:102B4000FFF73AFE2346002211460720FFF734FE26
:102B5000FFF79EFF03B030BD000001400030014090
:102B6000002F685900000540008C86470080054012
:102B7000001BB70080D1F008006CDC02C1F30A53DF
:102B8000EBB110B58C4640F2FF7E734511D0134473
:102B9000002B0BDD40F2FE718B420BDD0CF0004C84
:102BA00000204CF0FF4141F4E00102E0002001F080
:102BB000004110BD002318180CEB0251F9E77047D3
:102BC00010B5C1F30A530BB30A46A3F2FF33002B2F
:102BD0001EDBC3F13403002B1CDD4FF0FF31A3F1EA
:102BE0002004C3F1200E01FA03FC01FA04F44CEABC
:102BF000040C21FA0EFE4CEA0E0C994020EA01006A
:102C000022EA0C02104307D1012000E0012010BD90
:102C10000020FCE70120FAE70020F8E7C1F30A539F
:102C2000A3F2FF33002B2CDB02468C46D3F1340396
:102C300029D410B54FF0FF31A3F12004C3F1200EC9
:102C400001FA03F001FA04F4204321FA0EFE40EAEF
:102C50000E00994022EA01012CEA0000014314D140
:102C6000342B14D0C3F12004A3F1200122FA03F085
:102C70000CFA04F420432CFA01F1084300F001009F
:102C800010BD00207047002070470020F8E70120A9
:102C9000F6E702460B46C1F30A5058B140F2FF7105
:102CA000884206D0C3F313031A430CBF012000204F
:102CB000704700207047D0B506460F46012A10D055
:102CC000144602EBD2725210FFF7F5FF02460B4694
:102CD00000F0DEFA14F0010F03D032463B4600F05C
:102CE000D7FAD0BD10B5141E03DB2246FFF7E3FF71
:102CF00010BD02460B460020024900F0EFFA644284
:102D0000F3E700BF0000F03F2DE9F04F8BB0144611
:102D10001D46C1F30A57A7F2FF36C7F57F7203328B
:102D2000FFF72CFF00F0E9FE68A3D3E9002300F0D1
:102D3000D5FA82468B4600225F4B00F0D3FB48B1A8
:102D400000225E4B5046594600F08EFA82468B4672
:102D5000A7F2FE366EB10022594B2046294600F0FC
:102D6000ADFB90B1002E0DDB002056490BB0BDE845
:102D7000F08F22462B465046594600F089FA00F063
:102D80004BF9F3E700200021F0E700224E4B2046EC
:102D9000294600F07FFB38B1002E02DB0020002125
:102DA000E4E700204749E1E72046294600F0F4F82F
:102DB0008046894602460B462046294600F054FAD2
:102DC00002460B46CDE900231A2200F0E1F800F09C
:102DD000E3F86FF01902FFF7D1FE04460D460246F4
:102DE0000B46DDE9000100F03FFACDE9060140465F
:102DF000494600F0F3FA804600FB06F7304600F043
:102E0000C9FA02460B46CDE9022322462B4600F0C2
:102E10003FFA02460B46CDE9082300F0BDF8044610
:102E20000D4600F0DBFAC319059322462B46DDE977
:102E3000080100F019FA04460D46DDE90623DDE934
:102E4000020100F025FA02460B462046294600F012
:102E5000F7F904460D46404600F09CFA52465B46A0
:102E600000F016FA8046894600F096F806460F46AE
:102E700000F0B4FA059BC318029332463B46404625
:102E8000494600F0F1F922462B4600F0D9F90446F4
:102E90000D46DDE900235046594600F0F9F9224677
:102EA0002B4600F0CDF900F0B7F8029AFFF766FE66
:102EB0005CE700BFAFF300800000E03F0000F03FA0
:102EC0000000B0400000F07F0000B0C0EF39FAFE13
:102ED000422EE63F2DE9F84316461F46B1F10009A0
:102EE00018DA804610461946FFF798FE50B1404662
:102EF00009F1004132463B46FFF7ECFF01F100418A
:102F0000BDE8F883404609F1004132463B46FFF7F1
:102F1000E1FFF5E704460D461046194600F05EFA5B
:102F2000804620462946FFF7B4FE68B9B8F1000F85
:102F300026D008F12003402B1CD932463B462046C0
:102F40002946FFF7E1FEDBE7C9F30A52A2F2FF329E
:102F5000B8F5006F05DA18F5006F04DADFF82C8099
:102F600001E040F2FF7802FB08F200200649FFF77B
:102F700005FEC5E7424620462946FFF7B3FEBFE7F8
:102F800000200149BCE700BF0000F03F00F8FFFF50
:102F900008B5FFF7F3FD08BD0A46C1F30A53A3F2D3
:102FA000FF33B3F1FF3F2BDB8446B3F1FF3F2BD060
:102FB00010B5C3F13404002C21DDC3F13304012129
:102FC000C3F11300133B01FA00F021FA03F3184395
:102FD000A1401CEB010E42EB00020223A4F12001F0
:102FE000C4F1200003FA01F123FA00F00143A340E9
:102FF0005B4261EB410C03EA0E000CEA020110BDDA
:10300000002001F00041704701F00042002042F032
:103010007F5141F44011704740F6FF73B3EB115FED
:103020002BD070B504460D460022194B00F032FA41
:1030300030BB0022174B2046294600F03FFA10B162
:10304000002015491EE020462946FFF7A5FF00F0A5
:10305000C5F9064600F09EF902460B462046294671
:1030600000F002F908A3D3E9002300F011F900F001
:10307000C6FB3246FFF782FD04E0002000217047C6
:103080000020002170BD00BFEF39FAFE422EE63F5E
:103090000000B0C00000B0400000F07F2DE9F04714
:1030A00004460D4616461F460022504B00F0CCF950
:1030B00010BBB8464FEA175AC7F30A59B9F1000FC7
:1030C0001AD000224A4B2046294600F0BDF918B11B
:1030D00040F2FF73994571D02A0DC5F30A53EBB93D
:1030E000B8F1000F0CDB30463946FFF797FD00289A
:1030F00067D02046294601E000203C49BDE8F08722
:1031000030463946FFF78AFD00285DD005F00049BA
:10311000002049F0FF4141F4E001EFE740F2FF7188
:103120008A4215D040F6FF718A4217D040F2FF72F2
:10313000924527D040F6FF7292452AD03046394654
:10314000FFF73EFD60BB002D31DA00202949D5E7AD
:10315000B8F1000F3BDA00200021CFE7B8F1000FF3
:1031600007DB30463946FFF759FD98B30020224966
:10317000C4E730463946FFF751FD70B300204FF0E9
:103180000041BBE740F2FE32934229DC00200021DF
:10319000B4E740F2FE32934225DC00201549ADE74A
:1031A00032463B4620462946FFF794FEA6E73246C4
:1031B0003B4620462946FFF7A7FD9FE700200B4925
:1031C0009CE70020002199E700200A4996E70020AB
:1031D000084993E70020074990E7002000218DE788
:1031E000002004498AE70020002187E70000F03F23
:1031F0000000F0BF0000F07F0000F0FF86B003B4D5
:1032000051FC0804CDE9020151FC0904CDE9040197
:1032100051EC0A04CDE9060103BCF047BDE80050BB
:103220004EEC00C4BDE800504EEC01C4BDE80050B7
:103230004EEC02C400BD000000B5FFF7DFFF02E066
:1032400010FE30F4F8D441EC100443EC112400EEED
:10325000010410EE010480EE200451EC10047047CC
:1032600000B5FFF7CBFF02E010FE30F4F8D441ECDC
:10327000100443EC112400EE010410EE210480EE52
:10328000200451EC3004704700B5FFF7B7FF02E0AF
:1032900010FE30F4F8D410B541EC100443EC1124C6
:1032A00051EC040453EC0524A0FB024C5FF0000E2B
:1032B000E0FB03CEE1FB02CE4CEC20440024E1FB1A
:1032C00003E444EC30E480EE200451EC5004BDE80B
:1032D0001040704700B5FFF791FF02E010FE30F498
:1032E000F8D441EC100443EC112451EC2104A0FB70
:1032F00001126FEA820252FB100052FB12F252FBE3
:103300001000A0EBD07C53EC04245CFB13F153ECD5
:103310001524A1FB022001FB030053EC4424A2EB83
:10332000000050FB1CF24FEA111312EB017043EB4B
:10333000E27140EA515020EA915020F0070053EC2E
:103340007524A0FB023C53EC752400FB03CC01FB6D
:1033500002CC53EC0424ACEB824C40EA5C70A0F14C
:10336000010041EC400480EE200451EC70047047F1
:1033700000B5FFF743FF02E010FE30F4F8D441EC53
:10338000100480EE220410EEB204704700B5FFF77F
:1033900035FF02E010FE30F4F8D440EC700400EE8B
:1033A000010410EE210480EE200451EC300470473B
:1033B00000B5FFF723FF02E010FE30F4F8D440EC34
:1033C000600400EE010410EE210480EE200451ECB4
:1033D0003004704700B5FFF711FF02E010FE30F433
:1033E000F8D441EC800400EE010410EE010480EEFC
:1033F000400410EE1304704700B5FFF7FFFE02E033
:1034000010FE30F4F8D441EC800400EE010410EE1C
:10341000010480EE400410EE3304704700B5FFF75E
:10342000EDFE02E010FE30F4F8D441EC100443EC61
:10343000112400EE010410EE3004C0F30070704758
:1034400000B5FFF7DBFE02E010FE30F4F8D441ECEB
:10345000100443EC112400EE010410EE3004C0F31C
:103460008070704700B5FFF7C9FE02E010FE30F42F
:10347000F8D443EC102441EC110400EE010410EEEA
:1034800030F48CBF01200020704700BF00B5FFF76B
:10349000B5FE02E010FE30F4F8D443EC102441EC09
:1034A000110400EE010410EE30F42CBF01200020C6
:1034B000704700BF00B5FFF7A1FE02E010FE30F438
:1034C000F8D441EC100443EC112400EE010410EE9A
:1034D00030F42CBF01200020704700BF00B5FFF77B
:1034E0008DFE02E010FE30F4F8D441EC100443EC01
:1034F000112400EE010410EE30F48CBF01200020F6
:10350000704700BF404261EB410140F2F334B1FA31
:1035100081F20C2A0CD2153211FA02F3C2F1200208
:10352000D04021FA02F12244584141EB0251704748
:1035300069B1C2F12B0230FA02F3C2F120029140CC
:1035400090401943A4EB020201EB025170470100C5
:103550004FF00000A4F12004D9D17047012767F390
:103560001F5117FA03F817D0A0FB080701FB0871D9
:10357000A1FB06785FEAD8469219A6FB047806FB01
:103580000588090351EA1051D7EB003061EB0801BF
:10359000A94238BF70470BE00C33012717FA03F834
:1035A0000FD0A0FB080701FB0871A94238BF704784
:1035B00008BFA04238BF7047001B61EB0501013214
:1035C000704703F1200311FA03F6D3F12003D8402A
:1035D000D9403043704700000000000000000000A8
:1035E0000453B1086018850FC8E5F22A6E07271E3C
:1035F0000D12B2210412572F12557CBCDA30723FE3
:1036000017A717A55531994E9D0DBF0AEEE0AB5F88
:10361000E3EF6D9C7636AD6F697BCCE33D62BD7E9A
:10362000F0810682F3FA428F37D5B78A5313C89ECA
:103630007FABB320491570AF000000000000000010
:10364000025E88155580FF00907806B1A602FE0143
:10365000DC4E21F0EB88FB027A7C801F1615F80304
:103660003C5DA9D110A9F304AA466CF5C146EE054C
:10367000FF65E4EB09F0E70613C00C9EC3A6E00764
:10368000E1BFEC91C46CD808D5AF5EFFDC43CF0935
:10369000466A72E4D72DC50A237E6E197B2CBA0BBD
:1036A000BFF571648741AE0C61DFB88CB86EA10DB7
:1036B00009A9856DC5B5930E3153B1086018850F02
:1036C0003071E498359875105915550580FF0F0035
:1036D00009C3EB8F80FB2F00B1910E9A82F34F004C
:1036E0001FE7FD2287E76F00C3A09A298FD78F00BD
:1036F0004F4366AC9BC3AF00412A83A9ADABCF005B
:103700004FB7B41EC68FEF00B6815F09E66F0F0199
:10371000678589660E4C2F011A52DA3240244F0118
:10372000483A9B6A7CF86E01FF81B709C4C88E01D4
:103730009C8DBC0B1895AE017010DA6B795DCE01D3
:103740003A3BE224E921EE0138739533427FECA045
:103750003114FAF5BD8689916B02FAE6E0F29183A5
:10376000E682120713A85177212621686AB2736A8C
:103770009D0DBF0AEEE0AB5F19B4E0B71CB66A540A
:103780009596E53DEF07A548D1CBE555DC0E4E3CBF
:10379000CE68ADE839B5A432CB3CFA96D9569A2812
:1037A000C9B21CA1F9FCAE21864B6BE58AD2F0169A
:1037B0000453B1086018850F02C00C9EC3A6E00731
:1037C0000000000000000000AC79CFD1F71772B103
:1037D000293BAAB84FEAC12040F00040490043F11C
:1037E000200340F20001C3F6F071C3F10B0320FA8D
:1037F00003F038BF7047404261F1000170475FEA53
:10380000D17CC1F30A53A3F2FF330C2B62DA13F11C
:10381000200FDFDD2DE9F0413C4C70CC4FF0000271
:10382000FFF79CFE1CF0010F04D06FEA0202201A81
:1038300065EB010102F2FE3C40F2FE739C455CD256
:103840000A0F334B03EBC2030CCB02F03F0545F0EC
:103850004005801A99410A0E2E4B03EBC20318CB88
:1038600002F580725543C01AA1414A0D2A4B03EB61
:10387000C20318CB124402F5805205FB0255C01A50
:10388000A1418A0252EA905242F1000282FB0234C4
:103890005B0D53EAC423C01841EB545184FB02343E
:1038A0004FF0553383FB043454FB11F304EB9304C2
:1038B00010EB440241EBE473E900A1FB0240C1FBC1
:1038C0000301400A50EBC1504FEA512151EB0C511A
:1038D000BDE8F081B3F5806F07D150EA01320CBF2B
:1038E00021EAE17141F400217047002000211CF021
:1038F000010F08BFC7F6F07170474FF000004FF09E
:103900000001A8BFC7F6F071BDE8F081C83700100C
:10391000D835001038360010C836001040F20001CB
:10392000CFF6F0710020704750EA013218BF41F421
:10393000002170477FEAA65540F019814FF480546A
:1039400020E18CEA11331B0640F0EE80BCF1000F41
:1039500067D1C90451EA5031C004B1FA81F4202C76
:103960004BD20125A540A0FB052301FB0533A0FB9D
:1039700003C5A1FB02C6E1FB6356B2EB152263F15E
:103980000003B2EB066273EB1623A0FB06C7A1FB94
:1039900005C8E1FB66784FF05535A7FB05C65FF01B
:1039A000000CE8FB056C16EB0C064CF1000C12EB5E
:1039B000963243F1000312EB8C4243EB9C3358FBED
:1039C00011F55FF0333755FB11F656FB17F8A5EBF1
:1039D000581756FB11F5C2F6802656FB15F507EB76
:1039E0001537B2EB472063EBD751C4F58064A4F1DF
:1039F0001504FFF78CFDBDE8F081B0FA80F410FAF1
:103A000004F1A0FB01234FF00000B0EB132061F1A3
:103A10000001C4F58064A4F13504FFF778FDBDE82A
:103A2000F081890451EA90318004404261EB410108
:103A3000B1FA81F4202C4ED2013C0125A540A0FB17
:103A4000052301FB0533A0FB03C5A1FB02C6E1FB77
:103A5000635612EB152243F1000312EB066253EB9F
:103A60001623A0FB06C7A1FB05C8E1FB66784FF053
:103A70005535A7FB05C65FF0000CE8FB056C16EB9F
:103A80000C064CF1000C12EB963243F1000312EBE2
:103A90008C4243EB9C3358FB11F55FF0333755FBF9
:103AA00011F656FB17F805EB581756FB11F5C2F641
:103AB000802656FB15F507EB153712EB472043EB35
:103AC000D751C4F58064A4F11504FFF720FD41F03F
:103AD0000041BDE8F081B0FA80F410FA04F1A0FBD7
:103AE00001234FEA1320C4F58064A4F13504FFF7E5
:103AF0000EFD91F00041BDE8F0815FEA410CBFF49A
:103B00000DAF5FEA5C5C3FF409AFACF2FF3CBCF583
:103B1000806F3FF409AF012262F31F512DE9F0419C
:103B2000BCEBEC7F3FF40DAF0C0C4E4D05EBC40528
:103B300095E80C0002F03F0505F14005A5FB0006E5
:103B400005FB01616FEAE14404F01F04464D05EBFB
:103B5000C40560CD521943EB060304F58074A4FB41
:103B6000000604FB01667FEA26643FF4E3AE3F4DA6
:103B700005EBC40522CD521843EB050341F20105C4
:103B800005EB44046404A4FB0050C4EBC401E4FB53
:103B9000060180EAE17481EAE175A5FB0567A4FBF3
:103BA00005487F084FEA360616EB080647F100077E
:103BB0008C0254EA905444F10004801B61EB07012D
:103BC00054FB14F555FB14F655FB15F74FF055341F
:103BD00056FB14F6B6EB173610EB860041EBA671D8
:103BE000101A63EB0101224A24CA1CF1010C0BDDFF
:103BF000A2FB0C230024E5FB0C34121A8B4164F168
:103C000000045FF080410CE0DCF1000CA2FB0C230F
:103C10000024E5FB0C3482184B4144F100045FF0B2
:103C200040414CB91C0013000022B1F100711CB9D5
:103C30001C000023B1F10071B4FA84F5A5F11D0652
:103C4000A1EB0651AC4013FA05F0C5F12005EB409D
:103C50001C43EA401043C00A50EB445041EBD421CE
:103C6000BDE8F081C836001038360010C8360010A4
:103C7000C8370010C0F3C7536BB17F3B0DD4C3F1FD
:103C80001703002B0BDD012202FA03F3013B034271
:103C900007D110467047012070470020704701206F
:103CA000704700207047C0F3C7537F3B0DD4D3F15A
:103CB00017030CD401229A40013A024209D1172B72
:103CC00009D0D84000F00100704700207047002064
:103CD0007047002070470120704710F0FF4308D064
:103CE000B3F1FF4F07D0C0F31600B0FA80F04009DF
:103CF0007047002070470020704738B505460129FD
:103D000011D00C4601EBD1714910FFF7F6FF07EE19
:103D1000900A67EEA77A14F0010F06D007EE105A4A
:103D200067EE877A01E007EE900A17EE900A38BD39
:103D300008B5002902DBFFF7E0FF08BDF7EE007AC7
:103D400007EE100AC7EE877A17EE900A4942F2E7AB
:103D500070B50E4606F044F8FFF7CFFE04460D4658
:103D6000304606F03DF802460B4620462946FFF74E
:103D70008FFAFFF744FDFFF7FFFA70BD2DE9F04120
:103D80000F460446C60F12D00846FFF78CFF40B11D
:103D9000394604F10040FFF7F1FF00F10040BDE8B3
:103DA000F081394604F10040FFF7E8FFF7E707EE3E
:103DB000901AFDEEE77A17EE908AFFF78EFF58B95A
:103DC000B8F1000F2BD008F12003402B22D939463F
:103DD0002046FFF7BDFFE2E7C4F3C7547F3CB8F1CC
:103DE000FF0F05DC18F5807F04DA6FF0FF0801E0B3
:103DF0004FF0FF0804FB08F404F17F03002B07DDFC
:103E0000FE2B03DCE40504F17E5601E04FF0FF4693
:103E10003046C4E741462046FFF78AFFBFE74FF030
:103E20007E50BCE738B52DED028B08EE100AF7EE98
:103E3000007AB4EE678AF1EE10FA1DD00C460B46FC
:103E400011F0FF4218D0FFEE007AB4EE678AF1EE6F
:103E500010FA02D1B2F1FF4F5ED018EE105A15F0F1
:103E6000FF4F18D1002B0CDB2046FFF71CFF00286A
:103E700055D018EE100A01E04FF07E50BDEC028BD9
:103E800038BD2046FFF70FFF00284AD005F000405C
:103E900040F0FF40F2E7EA0DFF2A13D040F2FF1195
:103EA0008A4213D0DB0DFF2B1FD040F2FF118B4253
:103EB00020D02046FFF7DEFE10BB002D26DA4FF0A3
:103EC000FF40DBE7002B2FDA0020D7E7002B05DBD4
:103ED0002046FFF7E8FE50B31A48CFE72046FFF729
:103EE000E2FE38B34FF00040C8E7D2B27E2A23DCAE
:103EF0000020C3E7D2B27E2A21DC4FF0FF40BDE7AD
:103F0000214618EE100AFFF739FFB7E7214618EEF1
:103F1000100AFFF71DFFB1E74FF07E50AEE700201B
:103F2000ACE74FF0FF40A9E74FF0FF40A6E74FF0A6
:103F3000FF40A3E70020A1E74FF0FF409EE70020ED
:103F40009CE700BF000080FF08B528B103460B4482
:103F5000034A934200D808BD0248FDF7B7FC00BFF2
:103F60000000082064A7001070B50546084E3046D2
:103F700005F042FF284605F0E1F90446304605F019
:103F800037FF29462046FFF7DFFF204670BD00BF00
:103F9000E8170020F8B505460E46094F384605F0EB
:103FA0002BFF3146284605F089F90446384605F0CE
:103FB0001FFF06FB05F12046FFF7C6FF2046F8BDB0
:103FC000E8170020704720B108B50A684968904793
:103FD00008BD70470146002008E000EB8000531C3C
:103FE0000B60137803EB4003A3F130000A681378E9
:103FF000303BDBB2092BF0D970472DE9F04F83B08D
:1040000005460E4693461F46DDF830A00D9CDDF8B0
:1040100038900F9B13F0030F19D1A046019208E0CE
:1040200002F1010B3B4631462020A84708F1010868
:104030005A46C845F4D3DDF804B008E0013C02F16B
:1040400001083B4631461AF80400A8474246002CB6
:10405000F4D10F9B13F0020F09D1104603B0BDE855
:10406000F08F541C3B4631462020A8472246A2EB45
:104070000B034B45F5D3F0E72DE9F04385B09946A6
:104080000C9D0D9C9DF83880DDF840E0119F129E3C
:1040900016F0020F21D17FB116F0010F0CD0B8F14C
:1040A000000F02D116F00C0F06D0013F04E04FF0D4
:1040B000300C05F804C00134744501D21F2CF6D928
:1040C00016F0010F09D0BC4207D21F2C05D84FF0C3
:1040D000300C05F804C00134F2E716F0100F14D0CC
:1040E00016F4806F04D11CB1744522D0BC4220D09C
:1040F0000F9B102B33D00F9B022B3DD01F2C0ED8C3
:104100004FF0300C05F804C001341F2C07D8B8F16B
:10411000000F39D04FF02D0C05F804C00134039680
:104120000297019400954B46FFF767FF05B0BDE885
:10413000F083B4F1010C1DD00F9B102B0ED0644600
:104140000F9B102BD7D116F0200FD4D01F2CD2D814
:104150004FF0580C05F804C00134CFE7023C16F0CC
:10416000200FEDD11F2CEBD84FF0780C05F804C0D0
:104170000134C3E76446BBE71F2CD0D84FF0620C74
:1041800005F804C00134B9E716F0040F05D04FF06C
:104190002B0C05F804C00134C1E716F0080FBED09F
:1041A0004FF0200C05F804C00134B8E7F0B591B029
:1041B000169C189D1B9E0CB926F0100616F4806EF6
:1041C0001DD064B34FF0000E19E016F0200F24D07C
:1041D0004127BC445FFA8CFCACF10A0C5FFA8CFC02
:1041E0000EF101070EF1400EEE440EF820CCB4FBA8
:1041F000F5FCAC4214D31F2F12D8BE466446B4FB64
:10420000F5FC05FB1C4C5FFA8CFCBCF1090FDCD8FB
:104210000CF1300C5FFA8CFCE2E76127D9E7274606
:1042200006961A9C0594199C049403959DF85C408D
:104230000294019708AC0094FFF71EFF11B0F0BD87
:104240002DE9F04F95B009900A910B929846DDF850
:1042500078B0DDF87C90229D239F269E5BEA0902C0
:1042600001D126F0100616F4806424D05BEA09021E
:104270002FD000241FE016F0200F28D04123134434
:10428000DBB20A3BDBB204F1010A04F150020DEB90
:10429000020404F8203C2A463B465846494605F0AD
:1042A000A3FDAB4579EB070915D3BAF11F0F12D85F
:1042B0005446834689462A463B465846494605F0B9
:1042C00093FDD2B2092AD6D83032D3B2DBE76123CC
:1042D000D5E74FF0000A0696259B0593249B04938F
:1042E00003959DF880300293CDF804A00CAB0093A9
:1042F00043460B9A0A990998FFF7BEFE15B0BDE830
:10430000F08F0000000000002DE9F04F93B004464C
:104310000D4617461E46DDE91CAB52465B4650462D
:104320005946FFF77FF8002840F0F3804FF0FF3246
:10433000AD4B50465946FFF7D5F8002840F0E980CC
:104340004FF0FF326FF4801350465946FFF78EF856
:10435000002840F0DE800022002350465946FFF737
:1043600085F8002840F0E680CDE906AB209B13F4E9
:1043700080630F9301D106231E93DDE906231046C7
:104380001946CDE90A01079B52EA030100F0DC80DF
:10439000C3F30A50C3F31303904643F07F5949F423
:1043A0004019A0F2FF30FEF7F5FF7DA3D3E900230B
:1043B000FEF76EFF7CA3D3E90023FEF741FFCDE9B2
:1043C00008010022894B40464946FEF74DFF78A37D
:1043D000D3E90023FEF75CFF02460B46DDE9080146
:1043E000FEF72EFFFEF7FAFF0890FEF7D3FF804698
:1043F000894671A3D3E90023FEF74AFF00227C4BD4
:10440000FEF71EFFFEF7EAFF0A906DA3D3E9002333
:1044100040464946FEF73CFF804689460A98FEF72B
:10442000B9FF69A3D3E90023FEF732FF02460B462A
:1044300040464946FEF718FF8046894602460B462D
:10444000FEF726FFCDE90C010A9B03F2FF330021A2
:104450000022CDE90A121B050B9300230A93424662
:104460004B4640464946FEF7EBFECDE91001424679
:104470004B4600204FF08041FEF7F6FE804689460D
:1044800000225C4BDDE90C01FEF728FF00225A4BAD
:10449000FEF7D6FE02460B46DDE90C01FEF71EFFD5
:1044A0000022564BFEF7CCFE02460B46DDE90C011E
:1044B000FEF714FF02460B4640464946FEF7C0FE93
:1044C00002460B46DDE91001FEF708FF00224C4BC7
:1044D000FEF7B6FEDDE90A23FEF7DAFE80468946DE
:1044E000CDE90A89DDE90623FEF7FCFF50B1089B00
:1044F000013B08930022404B40464946FEF7EEFE42
:10450000CDE90A01089B6333C62B46D84FF0040857
:104510001EE0209B04931F9B03931E9B0293CDE9F7
:1045200000AB33463A462946204600F0FDF813B06A
:10453000BDE8F08F9FED267B8DED067BCDF818A0B2
:104540000BF10043079311E7002308934FF0040891
:10455000209B13F4006F5FD0DDE90A1213460B4372
:1045600013D01DA3D3E90023DDE90601FEF7A6FF62
:10457000002800F0B4801AA3D3E90023DDE9060186
:10458000FEF774FF002800F0AA801E9A089B9A424A
:1045900038DDD31A013B1E9336E04FF00508D7E70C
:1045A000FB799F501344D33FB3C8608B288AC63F22
:1045B00061436F63A787D23F71A379094F930A4084
:1045C0001655B5BBB16B0240EF39FAFE422EE63FFD
:1045D00000000000000000002D431CEBE2361A3FF3
:1045E0000000000080842E41FFFFEF7F0000F83FB5
:1045F0000000E03F00002C40000024400000184074
:104600000000F03F00231E93209B43F4806320931F
:104610004FF00008CDF820801F9B984569D2A3EB8E
:104620000809209B13F002030C9304D0B8F1000F8B
:1046300001D04FF00009089B3BB1DDE90A23DDE919
:104640000601FEF74BFECDE906010022002350468D
:104650005946FEF70BFF00284ED1209B23F4006340
:104660000493CDF80C901E9B02939DED067B8DED7F
:10467000007B33463A462946204600F055F8B8F10B
:10468000000F3FF454AF209B13F0200F3CD04FF0AD
:10469000450C00F101093346024629466046A04711
:1046A000089981EAE172A2EBE1720523059308F112
:1046B000FF330493002303930A230293CB0F019348
:1046C000009233464A4629462046FFF76FFD0C9B71
:1046D000002B3FF42CAF0246DDF87C901EE01E9BC1
:1046E000002B99D00F9B002B96D01E9B013B1E9355
:1046F00092E74FF0000994E7DDE90601024601F177
:104700000043CDE90623A8E74FF0650CC1E702F1AD
:104710000108334629462020A0474246D31B4B457B
:10472000F5D3104603E700BF2DE9F04F2DED028BC6
:1047300095B007900A9192469B46DDE92089229D1B
:1047400042464B4640464946FEF76CFE002835D1AE
:104750004FF0FF326FF4801340464946FEF786FE65
:1047600000283AD14FF0FF32B14B40464946FEF7A0
:10477000B9FE002840D1AAA3D3E900234046494608
:10478000FEF7B0FE00284DD1A7A3D3E90023404691
:104790004946FEF76BFE002844D100220023404624
:1047A0004946FEF763FE00284AD100230B93249B61
:1047B00013F4806F00F0B580002454E0249B039331
:1047C000239B0293032301939A4B00935B4652462B
:1047D0000A990798FFF711FC1BE1249B0393239B85
:1047E000029304230193944B00935B4652460A992B
:1047F0000798FFF702FC0CE1249B13F0040F0ED086
:104800008E4B0422249903912399029101920093E3
:104810005B4652460A990798FFF7EFFBF9E0884B91
:104820000322EFE7249B0493239B03930295CDE996
:1048300000895B4652460A990798FFF765FDE8E054
:1048400042464B4600200021FEF70EFD8046894679
:1048500001230B93ABE704F150036B44302203F8C0
:10486000202C013D01341F2C01D8092DF3D84046DE
:104870004946FEF7B3FD0646FEF78CFD02460B46A1
:1048800040464946FEF7F0FC6E4B03EBC50393ED43
:10489000008B53EC182BFEF7FBFC02460B46CDE9D0
:1048A0000823FEF7ADFD0746FEF786FD02460B46E0
:1048B000DDE90801FEF7D8FC02460B46CDE90823E6
:1048C0000022614BFEF70EFE68B301373846FEF753
:1048D00073FD02460B4651EC180BFEF7DBFD08B1E9
:1048E000013600276DBB3046FEF754FD02460B46ED
:1048F00040464946FEF7B8FC074688460022524B20
:10490000FEF7B4FD00284CD100224F4B38464146FB
:10491000FEF7E8FD002844D116F0010F41D0013622
:104920003FE0062548E70022474BDDE90801FEF796
:104930009DFD0028D6D117B117F0010FD2D0013755
:10494000D0E71F2C17D8013D404BA3FB0723DB0802
:10495000194603EB8303A7EB4303621C303304F1D6
:1049600050000DEB000404F8203C092F02D90F463B
:104970001446E6E714461F2C0AD86B1E45B104F115
:1049800050026A44302102F8201C1D460134F2E72F
:104990001F2C06D804F150036B442E2203F8202C60
:1049A00001341F2C17D82A4A82FB0632F317C3EBB7
:1049B000A2031A4603EB8303A6EB4303611C3033C7
:1049C00004F150000DEB000404F8203C16460AB137
:1049D0000C46E6E70C46249B03F00303012B39D079
:1049E0001F2C09D80B9B002B51D004F150036B44B2
:1049F0002D2203F8202C0134249B0393239B029344
:104A000001940CAB00935B4652460A990798FFF756
:104A1000F4FA15B0BDEC028BBDE8F08FAFF3008067
:104A20000000000065CDCD410000000065CDCDC186
:104A3000FFFFEF7FC4A70010C8A70010B8A70010A1
:104A4000C0A7001040AF00100000E03FCDCCCCCCA0
:104A500067666666239BB3B10B9B1BB9249B13F05F
:104A60000C0F12D0239B013B2393194606E004F15F
:104A700050036B44302203F8202C01348C42AFD217
:104A80001F2CF4D9ACE72399F8E72399F6E7249B88
:104A900013F0040F07D004F150036B442B2203F8EA
:104AA000202C0134A8E7249B13F0080FA4D004F1B4
:104AB00050036B44202203F8202C01349CE700BFF4
:104AC0002DE9F04F8FB0804617460D938946002997
:104AD00000F04F83002508E06C1C3B462A464946FF
:104AE000C0470D9B01330D9325460D9B1878002878
:104AF00000F042832528EFD101330D9300261FE0FB
:104B000046F0010601320D92012318E046F002063C
:104B100001320D92012312E046F0040601320D929B
:104B200001230CE046F0080601320D92012306E055
:104B300046F0100601320D92012300E000234BB332
:104B40000D9A1378203B102BF8D801A151F823F0CF
:104B5000254B00103D4B00103D4B0010314B001019
:104B60003D4B00103D4B00103D4B00103D4B0010E5
:104B70003D4B00103D4B00103D4B0010194B0010F9
:104B80003D4B00100D4B00103D4B00103D4B0010F5
:104B9000014B00100A930D9B1A78A2F13003DBB28F
:104BA000092B18D92A2A1BD00A9B0B930D9B1A7824
:104BB0002E2A25D00D9A1378683B122B5CD8DFE89B
:104BC00003F0495BAC5B3B5B5B5B5B5B5B5B575BDD
:104BD0005B5B5B5BB1000DA8FFF7FCF90B90E5E7B1
:104BE000189B1A1D18921B68002B04DB0B930D9B5E
:104BF00001330D93DAE746F002065B420B93F6E7CA
:104C000046F480665A1C0D925A78A2F13003DBB24A
:104C1000092B0CD92A2ACDD1189B1A1D18921C6871
:104C200024EAE4730A930D9B01330D93C2E70DA8A8
:104C3000FFF7D0F90A90BDE746F48071531C0D933D
:104C400053786C2B01D00E4616E046F440760232C3
:104C50000D9211E046F08001531C0D935378682BA0
:104C600001D00E4608E046F0C00602320D9203E085
:104C700046F4807601320D920D9B1878672856D83D
:104C80002528C0F06C82A0F12503422B00F2678238
:104C9000DFE813F05A0265026502650265026502EB
:104CA00065026502650265026502650265026502CC
:104CB00065026502650265026502650265026502BC
:104CC00065026502650265026502650265026502AC
:104CD0006502650288016801880165026502650256
:104CE000650265026502650265026502650265028C
:104CF0006502650265026502650271006502650272
:104D00006502650265026502650265026502710061
:104D1000AF01710088016801880146F40076013214
:104D20000D92A9E746F4807601320D92A4E7782827
:104D300000F215826928C0F01282A0F16902D2B295
:104D40000123934049F24102134214D113F0800F22
:104D500040F0DF8113F4806F00F00182189B1A1D70
:104D60001892D3F800A00A9B002B40F090814FF0DE
:104D7000FF32534674E16F283DD005D858283CD007
:104D8000622803D1022304E0782838D026F01006E8
:104D90000A23582835D0692803D0642801D026F08A
:104DA0000C0616F4806F01D026F0010669282BD07E
:104DB000642829D016F4007F40F0968016F4807F96
:104DC00040F0AE8016F0400F00F0BF80189A111D21
:104DD0001891127805960B9904910A990391029300
:104DE0000023019300923B462A4649464046FFF77E
:104DF000DDF9054629E00823CBE71023C9E7102396
:104E0000C7E746F02006C6E716F4007F21D116F466
:104E1000807F42D116F0400F58D0189A111D18917A
:104E2000127882EAE271A1EBE27105960B98049088
:104E30000A9803900293D20F019200913B462A46B2
:104E400049464046FFF7B2F905460D9B01330D93E5
:104E50004BE6189A073222F0070202F10801189176
:104E6000516812680846002913DB08960B9C0794CA
:104E70000A9C0694049300230593C90F02910092A3
:104E800001903B462A4649464046FFF7D9F9054678
:104E9000DBE7524261EB4100E7E7189A111D1891D8
:104EA000126882EAE271A1EBE27105960B98049018
:104EB0000A9803900293D20F019200913B462A4632
:104EC00049464046FFF772F90546BEE716F0800FE7
:104ED00005D0189A111D1891B2F90020A1E7189A6F
:104EE000111D189112689CE7189A073222F00702E8
:104EF00002F10801189108960B9907910A990691F9
:104F00000021049305910291D2E90023CDE9002309
:104F10003B462A4649464046FFF792F9054694E744
:104F2000189A111D189105960B9904910A990391ED
:104F3000029300230193136800933B462A46494697
:104F40004046FFF733F905467FE716F0800F04D09F
:104F5000189A111D189112883CE7189A111D189182
:104F6000126837E746281AD0189B073323F0070347
:104F700003F10802189204960B9A03920A9A02927D
:104F8000D3E90023CDE900233B462A464946404663
:104F9000FFF7CAFB05460D9B01330D93A5E546F0CF
:104FA0002006E1E7672801D0472801D146F40066D2
:104FB000452801D0472801D146F02006189B073329
:104FC00023F0070303F10802189204960B9A039248
:104FD0000A9A0292D3E90023CDE900233B462A46F0
:104FE00049464046FFF790F905460D9B01330D9366
:104FF0007BE516F002061CD001241898031D1893B7
:1050000005F1010A3B462A4649460078C047AEB939
:105010000D9B01330D93554667E5551C3B464946AC
:105020002020C04723462A465C1C9A45F5D81546E1
:10503000E3E70123DDF82CA02A46F5E75246DDF828
:105040002CA006E0561C3B4649462020C0472C4673
:105050003246651CA245F5D89246D9E701330A4687
:10506000197811B1511E002AF8D1A3EB0A0316F4E6
:10507000806B03D00A9A934228BF134616F00204AD
:1050800007D00C940A9E2A465D469B4623E00A9A66
:105090006FE6CDF830B02A4625460B9C07E002F1BA
:1050A000010B3B4649462020C04733465A465E1C0A
:1050B0009C42F4D8DDF830B02C4633460C940A9E5E
:1050C0005D469B4607E01E460AF1010A541C3B461A
:1050D0004946C04722469AF8000020B1002DF3D07F
:1050E000731E002EEFD10C9C15465B461CB90D9B20
:1050F00001330D93F9E40B9E06E0551C3B464946EF
:105100002020C04723462A465C1C9E42F5D81546FF
:10511000EDE746F02106189B1A1D18921B680596AC
:10512000082204920A9A039210220292002201920B
:1051300000933B462A4649464046FFF737F8054666
:105140000D9B01330D93D0E46C1C3B462A46494627
:105150002520C0470D9B01330D932546C5E46C1CEB
:105160003B462A464946C0470D9B01330D932546D1
:10517000BBE4DFF82080ADE4BD4208D37A1E3B4695
:1051800049460020C04728460FB0BDE8F08F2A46A8
:10519000F5E700BFC53F001000B585B00290039150
:1051A000009313464FF0FF3202A90348FFF788FC33
:1051B00005B05DF804FB00BFC73F001000BEFDE76F
:1051C0000346094A126842B1074A10680344074A75
:1051D000934206D8044A13607047034A0449116099
:1051E000F2E74FF0FF307047502700200000082002
:1051F000F434002008B5FFF7E1FF000000B583B0EC
:105200008C4619465AB11446064B019400936346E6
:105210000246054800F056F90120FFF7CFFF034B87
:105220001C46F2E7D0A70010E0A70010DC9E00109B
:1052300010B5EFF30583DBB203B100BEFDF7AEFBA3
:10524000044C02E054F8043B9847034B9C42F9D3CA
:1052500010BD00BF589E0010609E001008B50346A8
:1052600008461B681146984708BD0000F8B5074678
:105270000D461646437D13B1002420460CE003681A
:105280001146284698472EE03B7D10E03B680221FE
:1052900015489847601C0134B44214DA002CF3DD41
:1052A0002B1913F8013C0D2B14BF002301232A5D99
:1052B0000A2AF0D1002BEED1A042E7DA3B68211A8E
:1052C00028449847E2E7B04203DA3B68311A2844A1
:1052D0009847002E07DD354415F8013C0D2B14BF0F
:1052E000002301233B75F8BD90AF001038B503686B
:1052F000BBB105460B4B1C6806E0294651F8042B50
:105300002046FFF7B3FF24694CB12368002BFAD085
:10531000054B1B68002BF0D0A342F4D1EDE700232E
:105320002B6038BD202400204C27002038B50546CE
:105330000C460B68802B05D023685A1C22601C4445
:10534000257138BD0846FFF7D1FFF5E708B5FDF731
:10535000CFF9074A821841F10003002B03DB05480F
:1053600004F056FD08BD4FF0FF326FF00043F6E742
:1053700040420F00F017002008B5024804F038FD45
:1053800008BD00BFF01700202DE9F04383B00646AA
:105390000D4690461C46FFF7D9FF8146B5F1FF3F09
:1053A00004D044B1174F184B1C6807E0304604F096
:1053B00083FB0546F5E7154FF5E72469BCB1236883
:1053C000002BFAD0124B1B680BB1A342F5D12A4631
:1053D00031462046B847B8F1000FEED00A238DF8C9
:1053E000073001220DF107012046B847E5E7B9F182
:1053F000000F03D1284603B0BDE8F083FFF7BCFFE0
:10540000F8E700BF6D520010202400205D5200100C
:105410004C270020094A136802E003F110021B69BF
:1054200043B113688342F8D131B903691360002393
:105430000361704701B11060704700BF2024002055
:1054400010B5054B1C6800E0246924B16368002B8B
:10545000FAD09847F8E710BD2024002008B500F0E6
:105460006DF808BD38B5054604F026FB0446012357
:105470001A4601462846FFF787FFFFF7E1FF20465F
:1054800038BD0000F0B5A3B004460E46FFF75EFF3E
:1054900005460023019301AF3346224639460848AA
:1054A000FFF77AFE04463846FFF720FFFFF7C8FFF4
:1054B00015B9204623B0F0BDFFF75EFFF9E700BF46
:1054C0002D5300100FB400B583B004A951F8040B9C
:1054D0000191FFF7D7FF03B05DF804EB04B070470C
:1054E000024B1860024B1960704700BF9C230020DC
:1054F000A023002008B5FDF7FBF80E4A821841F101
:105500000003002B11DB0C4804F082FC60B1002189
:105510004FF0FF3001F06AF9002002F00FFC002884
:10552000F5D1054804F064FC08BD4FF0FF326FF080
:105530000043E8E740420F00C434002010B54FF0AC
:1055400050431C68FCF738FFFDF71AF8A0420DD154
:105550000E4B1B7800F062FD70B10D4B1B688BB1D8
:1055600001210C48FFF756FF012010BD0A4B0B4AE2
:10557000C1210B48FFF742FE0A4B084ACC210848DC
:10558000FFF73CFE0248FCF7ABFCE9E7ECB2001089
:10559000C43400205812002010A80010A0AF001042
:1055A00018A8001068A8001008B5002002F086FBBB
:1055B00008BD000038B504460D46FFF7F5FF90B36F
:1055C000002002F095FB88B3FDF792F81A4A821882
:1055D00041F10003002B16DB184804F019FC40B31E
:1055E000FFF7E2FF18B1002002F082FB80B9002132
:1055F0004FF0FF3001F0FAF86FF002040F4804F0AA
:10560000F7FB204638BD4FF0FF326FF00043E3E771
:105610002A462146002002F077FB04460028EDD1FF
:105620006FF00204EAE76FF00204EAE76FF00204A9
:10563000E7E76FF00204E4E740420F00C4340020C3
:10564000F8B507460D46FDF753F82E4A821841F18A
:105650000003002B04DB2C4804F0DAFB28B9F8BD6A
:105660004FF0FF326FF00043F5E7FFF79DFF002892
:1056700045D1264B00200021C3E90001224804F057
:10568000B7FBECE700214FF0FF3001F0AFF800204E
:1056900002F054FBFFF788FF0028EFD0002002F053
:1056A000CBFBF8B1AC42E9DA2E1B002002F0C4FBC0
:1056B000864200DC30460028E4D00246391900203A
:1056C00002F098FB064600214FF0FF3001F08EF803
:1056D000002002F033FB3444FDF70AF80B4BC3E91A
:1056E0000001DFE7FDF704F8084A13685268084E26
:1056F0009B1942F1000283428A41D3D2BEE70024C3
:10570000D0E700BF40420F00C434002078190020C9
:1057100020A1070000B58BB045F24730FDF7EEF849
:1057200003460122092101A89847042801D100233A
:105730000EE00A4B0A4A29210A48FFF75FFDC3F130
:105740000F0228326A4412F8241C074AD15401334C
:10575000072BF4DD0BB05DF804FB00BF8CA8001034
:10576000B0AF001094A80010A42E00200346024AF7
:1057700003CA186059607047A42E002030B400F0AE
:105780007F05C3094FEA450C0CEBD01C244C04EBFD
:105790004C1C8CF8020083F001008CF80100002002
:1057A0008CF80300ACF818108CF81B20DBB9EA0069
:1057B0001C49114403EB4500194A02EB4012916069
:1057C00003EB4501164A02EB411292680021116079
:1057D0007DB903EB4502124B03EB42135960124AA9
:1057E000DA6030BC7047114901EBC501CCF80810F4
:1057F000E6E753B96A1ED2000D49114403EB450395
:10580000074A02EB43135960EBE7691E094A02EBB2
:10581000C10203EB4501024B03EB41135A60E0E781
:1058200054270020840010500001105080001050B8
:105830000C0010500800105008B5038B3F3323F0C4
:105840003F03C27E022A08D008490A68C260134496
:105850000B60074A934202D808BD5B00F4E7054B92
:10586000054A52210548FFF7C9FC00BF682E0020F9
:10587000FF0F1050E4A8001014B0001028A9001069
:1058800070B500F07F054FEA450C0CEBD0130C4CC3
:1058900004EB4314FFF772FF05B970BD218B20465E
:1058A000FFF7CAFFE27EE36883F0A04383F480132E
:1058B00043EA826343F0004362681360EDE700BF90
:1058C0005427002008B500F07F035B0003EBD010E5
:1058D000024B03EB401000F077F908BD542700207D
:1058E00008B520B901210E20FCF71CF908BD034BB7
:1058F000034A40F297110348FFF780FC9CA900106F
:1059000004B0001028A9001008B528B900221146DB
:105910008020FFF7D7FF08BD034B044A40F2A111D6
:105920000348FFF76BFC00BF9CA90010F4AF001008
:1059300028A90010024B4FF48032DA64704700BF90
:105940000020115070B548BB064600F01DF9174CF9
:105950000C23A367FF2216490E20FCF725F94025EA
:105960002A460021134803F0B9FF002229461046B9
:10597000FFF786FF002229468020FFF781FF04F011
:1059800023FA012525644FF00053E3640A4BC4F861
:1059900090303046FFF7CEFF284670BD074B084ACF
:1059A00040F263110748FFF729FC00BF00001150C7
:1059B000F10300205427002010D001009CA9001002
:1059C00028B0001028A90010044B197021B1044B15
:1059D0004FF40032C3F89020704700BFE834002035
:1059E000002011500B7813F07F0F02D14B78052B5C
:1059F00000D070474B88DBB2014A1360F9E700BF63
:105A000000001150CA7802F00302012A09D008B53B
:105A10000B468988C1F30A019878FFF731FF01200E
:105A200008BD00207047000038B50846144601F054
:105A30007F035B0003EBD113064D05EB43150122F9
:105A40002146FFF79BFE21462846FFF7F5FE012081
:105A500038BD00BF5427002038B50C468D788988A2
:105A60001B48FFF72FFD0122A1882846FFF786FE7D
:105A700005F07F00420002EBD512164B03EB4213F8
:105A8000DB68A3B1E909A48801EB4001114A02EBEC
:105A900041121483D17E83F0A04383F4801343EA40
:105AA000816343F0004352681360012038BD40F227
:105AB000092209490948FFF705FD4FF0E023D3F813
:105AC000F03D13F0010F00D000BE0020EEE700BF54
:105AD000A8A9001054270020DCAF0010E09E0010A1
